1021203012000193059611731     Linha Reta Centro Automotivo Ltda EPetrolina                     PE87398322442017010120180103331
11Av Integração                     00367                      Maria Auxiliado56330290BEATRIZ MARIA LEAL BORGES MA087988496357
50105720140005671             20170102PE551  0007375405P000000003960000000000000000000000000000000000000000000000000000000000N
5410572014000567551  00073754055000011660          000000010000000000033840000000006160000000000000000000000000000000000000000
5410572014000567551  0007375405500001572           000000070000000000165780000000030220000000000000000000000000000000000000000
5410572014000567551  00073754055000011222          000000010000000000026050000000004750000000000000000000000000000000000000000
5410572014000567551  0007375405500001835           000000010000000000025870000000004710000000000000000000000000000000000000000
5410572014000567551  00073754055000011660          000000010000000000033830000000006170000000000000000000000000000000000000000
5410572014000567551  00073754055000011222          000000010000000000026050000000004750000000000000000000000000000000000000000
5410572014000567551  00073754055000013947          000000010000000000084580000000015420000000000000000000000000000000000000000
5411564368000441551  0007385405500001572           000000035000000000122500000000000000000000000000000000000000000000000000000
5411564368000441551  00073854055000011633          000000010000000000017620000000000000000000000000000000000000000000000000000
5407063698000133551  0007396404500001604           000000010000000000022660000000000000000000000000000000000000000000000000000
5407063698000133551  00073964045000012062          000000010000000000024200000000000000000000000000000000000000000000000000000
5407063698000133551  0007396404500001508           000000010000000000024240000000000000000000000000000000000000000000000000000
5407063698000133551  0007396404500001572           000000030000000000111000000000000000000000000000000000000000000000000000000
5407063698000133551  00073964045000011010          000000010000000000027500000000000000000000000000000000000000000000000000000
5407063698000133551  00074064045000011156          000000010000000000088000000000000000000000000000000000000000000000000000000
5407063698000133551  00074064045000013120          000000010000000000124300000000000000000000000000000000000000000000000000000
5407063698000133551  00074064045000011381          000000040000000000060000000000000000000000000000000000000000000000000000000
5407063698000133551  00074064045000011895          000000020000000000010000000000000000000000000000000000000000000000000000000
5407063698000133551  00074064045000011447          000000010000000000060500000000000000000000000000000000000000000000000000000
5407063698000133551  0007406404500001572           000000060000000000263700000000000000000000000000000000000000000000000000000
5454337514000166551  0007416404500001508           000000010000000000020680000000000000000000000000000000000000000000000000000
5454337514000166551  0007416404500001572           000000030000000000105000000000000000000000000000000000000000000000000000000
5454337514000166551  00074164045000013857          000000010000000000036850000000000000000000000000000000000000000000000000000
5454337514000166551  00074164045000012202          000000010000000000040540000000000000000000000000000000000000000000000000000
5454337514000166551  00074164045000012382          000000010000000000038410000000000000000000000000000000000000000000000000000
5454337514000166551  00074164045000012182          000000010000000000180000000000000000000000000000000000000000000000000000000
5454337514000166551  0007416404500001636           000000010000000000030180000000000000000000000000000000000000000000000000000
5454337514000166551  00074164045000013504          000000020000000000651000000000000000000000000000000000000000000000000000000
5454337514000166551  00074264045000014362          000000010000000000700000000000000000000000000000000000000000000000000000000
5454337514000166551  00074264045000011248          000000020000000000060000000000000000000000000000000000000000000000000000000
5407063698000133551  00074364045000014195          000000020000000000010000000000000200000000000000000000000000000000000000000
5407063698000133551  0007446404500001572           000000030000000000111000000000000000000000000000000000000000000000000000000
5407063698000133551  00074464045000014291          000000010000000000004350000000000000000000000000000000000000000000000000000
5407063698000133551  00074464045000012060          000000010000000000031400000000000000000000000000000000000000000000000000000
5407063698000133551  00074464045000012062          000000010000000000024200000000000000000000000000000000000000000000000000000
5407063698000133551  0007446404500001508           000000010000000000024240000000000000000000000000000000000000000000000000000
5407063698000133551  00074564045000014408          000000010000000002751000000000000000000000000000000000000000000000000000000
5410215988000160551  00074664045000012392          000000010000000000307430000000002570000000000000000000000000000000000000000
5410215988000160551  00074664045000013855          000000040000000000003970000000000030000000000000000000000000000000000000000
5410215988000160551  000746640450000158            000000010000000000036350000000000300000000000000000000000000000000000000000
5410215988000160551  00074664045000013857          000000010000000000047600000000000400000000000000000000000000000000000000000
5410215988000160551  0007466404500001572           000000030000000000083300000000000700000000000000000000000000000000000000000
5435329242000108551  00074754055000014382          000000010000000000411000000000000000000000000000000000000000000000000000000
5435329242000108551  00074754055000014345          000000040000000000120000000000000000000000000000000000000000000000000000000
5435329242000108551  00074754055000011227          000000010000000000144000000000000000000000000000000000000000000000000000000
5407063698000133551  00074864045000011532          000000010000000000709120000000000000000000000000000000000000000000000000000
5407063698000133551  0007486404500001268           000000010000000000122000000000000000000000000000000000000000000000000000000
5407063698000133551  00074864045000011447          000000010000000000060500000000000000000000000000000000000000000000000000000
5407063698000133551  00074864045000014195          000000020000000000010000000000000000000000000000000000000000000000000000000
5407063698000133551  00074864045000011381          000000040000000000060000000000000000000000000000000000000000000000000000000
5407063698000133551  00074864045000011904          000000010000000000060000000000000000000000000000000000000000000000000000000
5407063698000133551  00074864045000013120          000000010000000000124300000000000000000000000000000000000000000000000000000
5407063698000133551  00074864045000011154          000000020000000000440000000000000000000000000000000000000000000000000000000
5407063698000133551  0007486404500001572           000000060000000000263700000000000000000000000000000000000000000000000000000
5407063698000133551  00074864045000011156          000000010000000000088000000000000000000000000000000000000000000000000000000
5407063698000133551  00074864045000013075          000000010000000000200830000000000000000000000000000000000000000000000000000
5407063698000133551  00074864045000011971          000000060000000000270000000000000000000000000000000000000000000000000000000
5407063698000133551  00074964045000014404          000000010000000000591670000000000000000000000000000000000000000000000000000
5407063698000133551  00074964045000012436          000000010000000000014400000000000000000000000000000000000000000000000000000
5407063698000133551  00074964045000011661          000000010000000000030000000000000000000000000000000000000000000000000000000
5400298293000135551  00075052025000014333          000000010000000000090000000000000000000000000000000000000000000000000000000
5407063698000133551  0007516404500001516           000000040000000001102400000000157600000000000000000000000000000000000000000
5407063698000133551  0007526404500001671           000000040000000000076200000000000000000000000000000000000000000000000000000
5407063698000133551  00075264045000011620          000000010000000000002400000000000000000000000000000000000000000000000000000
5407063698000133551  0007526404500001572           000000030000000000111000000000000000000000000000000000000000000000000000000
5407063698000133551  00075264045000013729          000000010000000000024200000000000000000000000000000000000000000000000000000
5407063698000133551  00075364045000011904          000000010000000000070000000000000000000000000000000000000000000000000000000
5407063698000133551  0007536404500001572           000000060000000000263700000000000000000000000000000000000000000000000000000
5407063698000133551  00075364045000011156          000000010000000000088000000000000000000000000000000000000000000000000000000
5407063698000133551  00075364045000011447          000000010000000000060500000000000000000000000000000000000000000000000000000
5407063698000133551  00075364045000011438          000000010000000000124300000000000000000000000000000000000000000000000000000
5407063698000133551  00075364045000014172          000000020000000000245300000000000000000000000000000000000000000000000000000
5407063698000133551  00075364045000011387          000000040000000000088000000000000000000000000000000000000000000000000000000
5407063698000133551  00075464045000011490          000000010000000000075720000000000000000000000000000000000000000000000000000
5407213360000110551  0007555405500001572           000000070000000000245000000000000000000000000000000000000000000000000000000
5407213360000110551  00075554055000013433          000000010000000000027100000000000000000000000000000000000000000000000000000
5407657078000122551  0007565405500001572           000000035000000000122500000000000000000000000000000000000000000000000000000
5407657078000122551  00075654055000011633          000000010000000000017620000000000000000000000000000000000000000000000000000
5407657078000122551  00075654055000014412          000000020000000000816000000000000000000000000000000000000000000000000000000
5407657078000122551  00075654055000013080          000000010000000000056100000000000000000000000000000000000000000000000000000
5407657078000122551  00075654055000013467          000000010000000000004400000000000000000000000000000000000000000000000000000
5400505735600018551  00075754055000011186          000000010000000000012000000000000000000000000000000000000000000000000000000
5400505735600018551  00075754055000011248          000000010000000000030000000000000000000000000000000000000000000000000000000
5400505735600018551  0007575405500001572           000000040000000000140000000000000000000000000000000000000000000000000000000
5400505735600018551  0007575405500001977           000000010000000000038450000000000000000000000000000000000000000000000000000
5407063698000133551  00075864045000014510          000000010000000000170610000000000000000000000000000000000000000000000000000
5406997469000123551  00075954055000012060          000000010000000000029080000000000000000000000000000000000000000000000000000
5406997469000123551  00075954055000012153          000000030000000000072000000000000000000000000000000000000000000000000000000
5406997469000123551  00075954055000012062          000000010000000000018920000000000000000000000000000000000000000000000000000
5406997469000123551  00075954055000013851          000000010000000000018000000000000000000000000000000000000000000000000000000
5424144040001732551  000760540550000175            000000020000000000416000000000000000000000000000000000000000000000000000000
5407063698000133551  00076164045000014468          000000010000000000415710000000000000000000000000000000000000000000000000000
5407063698000133551  00076164045000014462          000000010000000001511300000000000000000000000000000000000000000000000000000
5407063698000133551  00076164045000014472          000000010000000000292400000000000000000000000000000000000000000000000000000
5407063698000133551  00076164045000014466          000000010000000001241000000000000000000000000000000000000000000000000000000
5407063698000133551  00076164045000014470          000000040000000000210800000000000000000000000000000000000000000000000000000
5407063698000133551  00076164045000014471          000000020000000000034000000000000000000000000000000000000000000000000000000
5407063698000133551  00076164045000014473          000000010000000000178500000000000000000000000000000000000000000000000000000
5407063698000133551  00076164045000014472          000000010000000000292400000000000000000000000000000000000000000000000000000
5407063698000133551  00076164045000014469          000000030000000000204000000000000000000000000000000000000000000000000000000
5407063698000133551  00076164045000014467          000000010000000000263500000000000000000000000000000000000000000000000000000
5407063698000133551  00076164045000013288          000000050000000000299250000000000000000000000000000000000000000000000000000
5407063698000133551  00076164045000013628          000000010000000000166540000000000000000000000000000000000000000000000000000
5407063698000133551  000762640450000161            000000010000000000023330000000001670000000000000000000000000000000000000000
5407063698000133551  00076264045000011229          000000040000000000130630000000009370000000000000000000000000000000000000000
5407063698000133551  00076264045000011092          000000010000000000299680000000021490000000000000000000000000000000000000000
5407063698000133551  0007626404500001672           000000040000000000101000000000007240000000000000000000000000000000000000000
5407063698000133551  0007626404500001800           000000010000000000146080000000010470000000000000000000000000000000000000000
5400399857002846551  00076364045000011710          000000010000000000108740000000000000000000000000000000000000000000000000000
5400399857002846551  00076364045000011714          000000010000000000183720000000000000000000000000000000000000000000000000000
5400399857002846551  00076364045000014133          000000020000000001064900000000000000000000000000000000000000000000000000000
5400399857002846551  00076364045000014520          000000020000000000040800000000000000000000000000000000000000000000000000000
5400399857002846551  00076364045000014495          000000020000000000219160000000000000000000000000000000000000000000000000000
5400399857002846551  00076364045000013896          000000010000000000044190000000000000000000000000000000000000000000000000000
5422254734000130551  00076464045000014488          000000040000000000063870000000004930000000000000000000000000000000000000000
5422254734000130551  00076464045000013241          000000020000000000649840000000050160000000000000000000000000000000000000000
5422254734000130551  00076464045000014502          000000010000000000045490000000003510000000000000000000000000000000000000000
5422254734000130551  00076464045000014501          000000010000000000500370000000038630000000000000000000000000000000000000000
5422254734000130551  0007646404500001788           000000010000000000083550000000006450000000000000000000000000000000000000000
5422254734000130551  0007646404500001992           000000010000000000084570000000006530000000000000000000000000000000000000000
5422254734000130551  0007646404500001789           000000010000000000061270000000004730000000000000000000000000000000000000000
5422254734000130551  0007646404500001120           000000020000000000009280000000000720000000000000000000000000000000000000000
5422254734000130551  00076464045000013241          000000020000000000649840000000050160000000000000000000000000000000000000000
5422254734000130551  00076564045000011             000000020000000000556000000000000000000000000000000000000000000000000000000
5407063698000133551  0007666404500001593           000000010000000000493000000000085600000000000000000000000000000000000000000
5416912179000193551  00076754055000014504          000000010000000000780000000000000000000000000000000000000000000000000000000
5416912179000193551  00076754055000014343          000000080000000000258000000000000000000000000000000000000000000000000000000
5425630302000506551  00076952025000014508          000000300000000000261300000000000000000000000000000000000000000000000000000
5411435633000149551  0007705405500001230           000000020000000000140000000000000000000000000000000000000000000000000000000
5411435633000149551  00077054055000012939          000000040000000000100000000000000000000000000000000000000000000000000000000
5411435633000149551  00077054055000011244          000000010000000000020960000000000000000000000000000000000000000000000000000
5411435633000149551  00077054055000012094          000000010000000000042000000000000000000000000000000000000000000000000000000
5411435633000149551  00077054055000011091          000000010000000000031830000000000000000000000000000000000000000000000000000
5411435633000149551  0007705405500001572           000000043000000000120400000000000000000000000000000000000000000000000000000
5416912179000193551  00077154055000013419          000000010000000000061770000000000000000000000000000000000000000000000000000
5416912179000193551  0007715405500001572           000000044000000000154000000000000000000000000000000000000000000000000000000
5416912179000193551  00077154055000012062          000000010000000000018920000000000000000000000000000000000000000000000000000
5422254734000130551  00077264045000013824          000000020000000000180000000000000000000000000000000000000000000000000000000
5422254734000130551  00077264045000013821          000000020000000000210000000000000000000000000000000000000000000000000000000
5422254734000130551  00077264045000014536          000000010000000000098000000000000000000000000000000000000000000000000000000
5422254734000130551  0007726404500001120           000000040000000000020000000000000000000000000000000000000000000000000000000
5422254734000130551  0007726404500001290           000000040000000001196000000000000000000000000000000000000000000000000000000
5411564368000441551  00077354055000014540          000000010000000000021580000000000000000000000000000000000000000000000000000
5411564368000441551  00077354055000014544          000000010000000000272000000000000000000000000000000000000000000000000000000
5411564368000441551  00077354055000014542          000000010000000000119000000000000000000000000000000000000000000000000000000
5411564368000441551  00077354055000011917          000000020000000000036000000000000000000000000000000000000000000000000000000
5411564368000441551  0007735405500001636           000000020000000000060360000000000000000000000000000000000000000000000000000
5411564368000441551  00077354055000011102          000000010000000000066000000000000000000000000000000000000000000000000000000
5411564368000441551  0007735405500001820           000000010000000000115170000000000000000000000000000000000000000000000000000
5411564368000441551  00077354055000011231          000000030000000000090000000000000000000000000000000000000000000000000000000
5411564368000441551  00077354055000012062          000000010000000000018920000000000000000000000000000000000000000000000000000
5411564368000441551  0007735405500001636           000000020000000000060360000000000000000000000000000000000000000000000000000
5400399857002846551  00077464045000013337          000000010000000000488000000000000000000000000000000000000000000000000000000
5407063698000133551  00077564045000011244          000000010000000000020960000000000000000000000000000000000000000000000000000
5407063698000133551  00077664045000014285          000000010000000000048240000000000000000000000000000000000000000000000000000
5407063698000133551  00077764045000014291          000000010000000000004350000000000000000000000000000000000000000000000000000
5407063698000133551  00077764045000011894          000000010000000000035000000000000000000000000000000000000000000000000000000
5407063698000133551  00077864045000014285          000000010000000000048240000000000000000000000000000000000000000000000000000
5401098297000990551  00077952025000014572          000000020000000000087800000000000000000000000000000000000000000000000000000
5410835932000108551  00078054055000014308          000000010000000000255000000000000000000000000000000000000000000000000000000
5400399857002846551  00078164045000014450          000000010000000000085000000000000000000000000000000000000000000000000000000
5400399857002846551  00078164045000014441          000000020000000000177660000000000000000000000000000000000000000000000000000
5400399857002846551  00078164045000011971          000000010000000000066500000000000000000000000000000000000000000000000000000
5400399857002846551  00078164045000014430          000000020000000000133000000000000000000000000000000000000000000000000000000
5400399857002846551  0007816404500001572           000000070000000000196000000000000000000000000000000000000000000000000000000
5400399857002846551  00078164045000011710          000000010000000000036100000000000000000000000000000000000000000000000000000
5400399857002846551  00078164045000011714          000000010000000000171000000000000000000000000000000000000000000000000000000
5400399857002846551  00078164045000013896          000000010000000000041800000000000000000000000000000000000000000000000000000
5400399857002846551  00078164045000014431          000000020000000000085500000000000000000000000000000000000000000000000000000
5400399857002846551  00078164045000014442          000000020000000000162440000000000000000000000000000000000000000000000000000
5400399857002846551  00078164045000014436          000000040000000000433200000000000000000000000000000000000000000000000000000
5400399857002846551  00078164045000014429          000000010000000000177650000000000000000000000000000000000000000000000000000
5400399857002846551  00078164045000011327          000000010000000000049400000000000000000000000000000000000000000000000000000
5400399857002846551  00078164045000014525          000000010000000000484500000000000000000000000000000000000000000000000000000
5400399857002846551  00078164045000014133          000000020000000000957600000000000000000000000000000000000000000000000000000
5422254734000130551  0007826404500001516           000000020000000000600000000000000000000000000000000000000000000000000000000
5422254734000130551  00078364045000011             000000020000000000556000000000000000000000000000000000000000000000000000000
5416912179000193551  00078454055000014573          000000040000000000515200000000062800000000000000000000000000000000000000000
5405440725000114551  00078554055000011229          000000035000000000087600000000010400000000000000000000000000000000000000000
5405440725000114551  000785540550000167            000000010000000000022810000000002710000000000000000000000000000000000000000
5405440725000114551  00078554055000012355          000000010000000000024650000000002930000000000000000000000000000000000000000
5405440725000114551  00078554055000013470          000000010000000000001340000000000160000000000000000000000000000000000000000
5405440725000114551  00078554055000012267          000000010000000000023600000000002800000000000000000000000000000000000000000
5405440725000114551  00078654055000011229          000000040000000000120000000000000000000000000000000000000000000000000000000
5405440725000114551  00078654055000012267          000000010000000000019000000000000000000000000000000000000000000000000000000
5405440725000114551  000786540550000167            000000010000000000025000000000000000000000000000000000000000000000000000000
5405440725000114551  00078654055000012355          000000010000000000026000000000000000000000000000000000000000000000000000000
5461198164000755551  00078754055000013174          000000010000000000059650000000000000000000000000000000000000000000000000000
5405440725000114551  00078854055000011257          000000010000000000683000000000000000000000000000000000000000000000000000000
5405440725000114551  00078954055000012399          000000010000000000022680000000001320000000000000000000000000000000000000000
5405440725000114551  00078954055000013470          000000010000000000001410000000000090000000000000000000000000000000000000000
5405440725000114551  00078954055000011229          000000035000000000115740000000006760000000000000000000000000000000000000000
5405440725000114551  000789540550000167            000000010000000000024110000000001410000000000000000000000000000000000000000
5405440725000114551  00078954055000012355          000000010000000000026060000000001520000000000000000000000000000000000000000
5411564368000441551  00079054055000014576          000000020000000000093380000000000000000000000000000000000000000000000000000
5411564368000441551  00079054055000013513          000000010000000000066390000000000000000000000000000000000000000000000000000
5411564368000441551  0007905405500001572           000000035000000000122500000000000000000000000000000000000000000000000000000
5411564368000441551  00079054055000013340          000000020000000000416000000000000000000000000000000000000000000000000000000
5411564368000441551  00079054055000011633          000000010000000000017950000000000000000000000000000000000000000000000000000
5411564368000441551  0007905405500001120           000000020000000000010000000000000000000000000000000000000000000000000000000
5422254734000130551  000791640450000195            000000040000000001460000000000000000000000000000000000000000000000000000000
5410215988002294551  00079264045000013857          000000010000000000036850000000000000000000000000000000000000000000000000000
5410215988002294551  00079264045000012382          000000010000000000038410000000000000000000000000000000000000000000000000000
5410215988002294551  00079264045000013504          000000020000000000651000000000000000000000000000000000000000000000000000000
5410215988002294551  00079264045000014088          000000010000000000020500000000000000000000000000000000000000000000000000000
5410215988002294551  00079264045000012202          000000010000000000040550000000000000000000000000000000000000000000000000000
5410215988002294551  0007926404500001572           000000030000000000105000000000000000000000000000000000000000000000000000000
5405440725000114551  00079354055000012399          000000010000000000019020000000000000000000000000000000000000000000000000000
5405440725000114551  00079354055000011229          000000035000000000119980000000000000000000000000000000000000000000000000000
5405440725000114551  000793540550000167            000000010000000000025000000000000000000000000000000000000000000000000000000
5405440725000114551  00079354055000012355          000000010000000000026000000000000000000000000000000000000000000000000000000
5412907085000175550  00079452025000014588          000000010000000001650000000000000000000000000000000000000000000000000000000
5412907085000175550  00079552025000014587          000000010000000000200000000000000000000000000000000000000000000000000000000
5400399857002846551  00079664045000013582          000000020000000000551850000000028150000000000000000000000000000000000000000
5400399857002846551  00079664045000013343          000000010000000000215040000000010960000000000000000000000000000000000000000
5400399857002846551  00079664045000014591          000000010000000000024260000000001240000000000000000000000000000000000000000
5400399857002846551  00079664045000014590          000000010000000000072790000000003710000000000000000000000000000000000000000
5400399857002846551  00079664045000014575          000000010000000000048530000000002470000000000000000000000000000000000000000
5400399857002846551  00079664045000012987          000000010000000000004760000000000240000000000000000000000000000000000000000
5400399857002846551  00079664045000012987          000000010000000000004760000000000240000000000000000000000000000000000000000
5400399857002846551  00079664045000011374          000000010000000000013040000000000660000000000000000000000000000000000000000
5400399857002846551  00079664045000014571          000000010000000000071630000000003650000000000000000000000000000000000000000
5400399857002846551  00079664045000012982          000000020000000000092850000000004730000000000000000000000000000000000000000
5400399857002846551  0007966404500001841           000000020000000000600260000000030600000000000000000000000000000000000000000
5400399857002846551  00079664045000011953          000000020000000000022840000000001160000000000000000000000000000000000000000
5400399857002846551  0007966404500001473           000000020000000000022840000000001160000000000000000000000000000000000000000
5400399857002846551  0007966404500001920           000000010000000000039960000000002040000000000000000000000000000000000000000
5400399857002846551  0007966404500001767           000000010000000000017130000000000870000000000000000000000000000000000000000
5400399857002846551  0007966404500001671           000000040000000000095150000000004850000000000000000000000000000000000000000
5400399857002846551  0007966404500001697           000000010000000000063900000000003260000000000000000000000000000000000000000
5400399857002846551  000796640450000129            000000010000000000023430000000001190000000000000000000000000000000000000000
5400399857002846551  00079664045000011861          000000010000000000087920000000004480000000000000000000000000000000000000000
5400399857002846551  00079664045000011636          000000020000000000038380000000001960000000000000000000000000000000000000000
5400399857002846551  00079664045000011396          000000020000000000108260000000005520000000000000000000000000000000000000000
5400399857002846551  0007966404500001240           000000020000000000022840000000001160000000000000000000000000000000000000000
5400399857002846551  0007966404500001702           000000010000000000025770000000001310000000000000000000000000000000000000000
5400399857002846551  00079664045000011026          000000010000000000057090000000002910000000000000000000000000000000000000000
5400399857002846551  00079664045000011173          000000010000000000068510000000003490000000000000000000000000000000000000000
5400399857002846551  0007966404500001994           000000080000000000109610000000005590000000000000000000000000000000000000000
5400399857002846551  0007966404500001204           000000020000000000015220000000000780000000000000000000000000000000000000000
5400399857002846551  00079664045000011248          000000020000000000057090000000002910000000000000000000000000000000000000000
5400399857002846551  0007966404500001578           000000040000000000062530000000003190000000000000000000000000000000000000000
5405440725000114551  00079754055000012355          000000010000000000039600000000000000000000000000000000000000000000000000000
5405440725000114551  00079754055000011229          000000035000000000098000000000000000000000000000000000000000000000000000000
5405440725000114551  000797540550000167            000000010000000000026000000000000000000000000000000000000000000000000000000
5405440725000114551  00079754055000012267          000000010000000000026400000000000000000000000000000000000000000000000000000
5400298293000135551  00079852025000014600          000000010000000000030000000000000000000000000000000000000000000000000000000
5405440725000114551  00079954055000014612          000000010000000000119000000000017000000000000000000000000000000000000000000
5405440725000114551  00080054055000014599          000000010000000000063650000000011150000000000000000000000000000000000000000
5405440725000114551  00080054055000011222          000000010000000000026200000000004600000000000000000000000000000000000000000
5405440725000114551  0008005405500001835           000000010000000000026370000000004630000000000000000000000000000000000000000
5405440725000114551  00080054055000013947          000000010000000000115700000000020300000000000000000000000000000000000000000
5405440725000114551  00080054055000011231          000000070000000000178660000000031340000000000000000000000000000000000000000
5405440725000114551  000801540550000167            000000010000000000024450000000001550000000000000000000000000000000000000000
5405440725000114551  00080154055000012355          000000010000000000025930000000001650000000000000000000000000000000000000000
5405440725000114551  00080154055000011229          000000035000000000115170000000007330000000000000000000000000000000000000000
5405440725000114551  000801540550000161            000000010000000000024450000000001550000000000000000000000000000000000000000
5405440725000114551  00080254055000011904          000000010000000000026890000000003110000000000000000000000000000000000000000
5405440725000114551  0008025405500001572           000000070000000000175720000000020280000000000000000000000000000000000000000
5405440725000114551  00080254055000014442          000000020000000000196480000000022680000000000000000000000000000000000000000
5405440725000114551  00080254055000011710          000000010000000000097720000000011280000000000000000000000000000000000000000
5405440725000114551  00080254055000014291          000000010000000000003900000000000450000000000000000000000000000000000000000
5405440725000114551  00080254055000014285          000000010000000000043250000000004990000000000000000000000000000000000000000
5405440725000114551  00080254055000011327          000000010000000000056480000000006520000000000000000000000000000000000000000
5405440725000114551  00080254055000014434          000000010000000000101810000000011750000000000000000000000000000000000000000
5405440725000114551  00080254055000014435          000000010000000000031990000000003690000000000000000000000000000000000000000
5407063698000133551  00080364045000014547          000000010000000000578000000000000000000000000000000000000000000000000000000
5407063698000133551  00080364045000011532          000000010000000000755000000000000000000000000000000000000000000000000000000
5407063698000133551  0008046404500001572           000000060000000000263700000000000000000000000000000000000000000000000000000
5407063698000133551  00080464045000011904          000000010000000000070000000000000000000000000000000000000000000000000000000
5407063698000133551  00080464045000011154          000000020000000000440000000000000000000000000000000000000000000000000000000
5407063698000133551  00080464045000011447          000000010000000000060500000000000000000000000000000000000000000000000000000
5407063698000133551  00080464045000013120          000000010000000000124300000000000000000000000000000000000000000000000000000
5407063698000133551  00080464045000011156          000000010000000000088000000000000000000000000000000000000000000000000000000
5400348003004108551  00080554055000013210          000000010000000000826750000000000000000000000000000000000000000000000000000
5400348003004108551  0008055405500001591           000000010000000000435000000000000000000000000000000000000000000000000000000
5400348003004108551  00080554055000011633          000000010000000000017950000000000000000000000000000000000000000000000000000
5400348003004108551  0008055405500001673           000000010000000000016890000000000000000000000000000000000000000000000000000
5400348003004108551  0008055405500001673           000000010000000000016890000000000000000000000000000000000000000000000000000
5400348003004108551  00080654055000014252          000000020000000000047600000000000000000000000000000000000000000000000000000
5400348003004108551  00080654055000014251          000000010000000000025500000000000000000000000000000000000000000000000000000
5400348003004108551  00080654055000014250          000000010000000000091850000000000000000000000000000000000000000000000000000
5400348003004108551  00080654055000014249          000000020000000000157000000000000000000000000000000000000000000000000000000
5400348003004108551  00080654055000014530          000000010000000000799190000000000000000000000000000000000000000000000000000
5400348003004108551  00080654055000014532          000000010000000000070000000000000000000000000000000000000000000000000000000
5400348003004108551  00080654055000014531          000000010000000000090000000000000000000000000000000000000000000000000000000
5400348003004108551  00080654055000014527          000000010000000000350000000000000000000000000000000000000000000000000000000
5400348003004108551  00080654055000014258          000000010000000000474300000000000000000000000000000000000000000000000000000
5400348003004108551  00080654055000014257          000000010000000000161500000000000000000000000000000000000000000000000000000
5400348003004108551  00080654055000014256          000000010000000000122400000000000000000000000000000000000000000000000000000
5400348003004108551  00080654055000014255          000000020000000000102000000000000000000000000000000000000000000000000000000
5400348003004108551  00080654055000014254          000000010000000000039100000000000000000000000000000000000000000000000000000
5400348003004108551  00080654055000014253          000000010000000000025500000000000000000000000000000000000000000000000000000
5400348003004108551  00080654055000014248          000000020000000000182000000000000000000000000000000000000000000000000000000
5400348003004108551  00080654055000014247          000000020000000000442000000000000000000000000000000000000000000000000000000
5400348003004108551  00080654055000014246          000000010000000000051000000000000000000000000000000000000000000000000000000
5400348003004108551  00080654055000014245          000000020000000000034000000000000000000000000000000000000000000000000000000
5400348003004108551  00080654055000014244          000000010000000000323000000000000000000000000000000000000000000000000000000
5400348003004108551  0008065405500001636           000000010000000000030180000000000000000000000000000000000000000000000000000
5400348003004108551  00080754055000013854          000000020000000000007400000000000000000000000000000000000000000000000000000
5400348003004108551  00080754055000011895          000000020000000000073400000000000000000000000000000000000000000000000000000
5400348003004108551  00080754055000013899          000000010000000000430130000000000000000000000000000000000000000000000000000
5400348003004108551  00080754055000014049          000000010000000000145470000000000000000000000000000000000000000000000000000
5400348003004108551  00080754055000011279          000000010000000000111510000000000000000000000000000000000000000000000000000
5400348003004108551  00080754055000011000          000000020000000000672980000000000000000000000000000000000000000000000000000
5400348003004108551  000807540550000161            000000010000000000034020000000000000000000000000000000000000000000000000000
5400348003004108551  0008075405500001669           000000010000000000089780000000000000000000000000000000000000000000000000000
5400348003004108551  00080754055000013358          000000010000000000099270000000000000000000000000000000000000000000000000000
5400348003004108551  00080754055000013917          000000010000000000014180000000000000000000000000000000000000000000000000000
5400348003004108551  0008075405500001800           000000010000000000119640000000000000000000000000000000000000000000000000000
5400348003004108551  00080754055000013917          000000010000000000014180000000000000000000000000000000000000000000000000000
5400348003004108551  00080854055000014444          000000010000000000485030000000114970000000000000000000000000000000000000000
5400348003004108551  00080854055000014285          000000010000000000050600000000011990000000000000000000000000000000000000000
5400348003004108551  00080854055000014443          000000010000000000202100000000047900000000000000000000000000000000000000000
5400348003004108551  0008085405500001599           000000010000000000056590000000013410000000000000000000000000000000000000000
5400348003004108551  00080954055000014055          000000010000000000212430000000000000000000000000000000000000000000000000000
5400348003004108551  00080954055000014243          000000010000000000130950000000000000000000000000000000000000000000000000000
5400348003004108551  00081054055000011022          000000010000000000006470000000000030000000000000000000000000000000000000000
5400348003004108551  00081054055000011950          000000020000000000279480000000000520000000000000000000000000000000000000000
5400348003004108551  0008105405500001150           000000010000000000079850000000000150000000000000000000000000000000000000000
5400348003004108551  00081054055000011293          000000010000000000081760000000000150000000000000000000000000000000000000000
5400348003004108551  0008105405500001291           000000010000000000003280000000000010000000000000000000000000000000000000000
5400348003004108551  00081054055000011661          000000010000000000022510000000000040000000000000000000000000000000000000000
5400348003004108551  00081054055000011661          000000010000000000022510000000000040000000000000000000000000000000000000000
5400348003004108551  0008105405500001144           000000010000000000112980000000000210000000000000000000000000000000000000000
5400348003004108551  0008105405500001144           000000010000000000112980000000000210000000000000000000000000000000000000000
5400348003004108551  00081054055000011022          000000020000000000012980000000000020000000000000000000000000000000000000000
5400348003004108551  00081154055000014055          000000010000000000212430000000000000000000000000000000000000000000000000000
5400348003004108551  00081254055000014333          000000010000000000289400000000002570000000000000000000000000000000000000000
5400348003004108551  00081254055000014300          000000010000000001524330000000013510000000000000000000000000000000000000000
5400348003004108551  00081254055000014301          000000010000000001621630000000014370000000000000000000000000000000000000000
5400348003004108551  00081254055000013854          000000020000000000077550000000000690000000000000000000000000000000000000000
5400348003004108551  00081254055000014441          000000010000000000699960000000006200000000000000000000000000000000000000000
5400348003004108551  00081254055000013531          000000010000000000200950000000001780000000000000000000000000000000000000000
5400348003004108551  00081354055000014461          000000010000000000238000000000000000000000000000000000000000000000000000000
5400348003004108551  00081354055000014459          000000010000000000300900000000000000000000000000000000000000000000000000000
5400348003004108551  00081354055000013855          000000010000000000001000000000000000000000000000000000000000000000000000000
5400348003004108551  00081354055000012114          000000010000000000128000000000000000000000000000000000000000000000000000000
5400348003004108551  00081354055000014261          000000010000000000241660000000000000000000000000000000000000000000000000000
5400348003004108551  0008135405500001743           000000060000000000036000000000000000000000000000000000000000000000000000000
5400348003004108551  00081354055000014288          000000010000000000294910000000000000000000000000000000000000000000000000000
5400348003004108551  00081454055000013607          000000010000000000137070000000006930000000000000000000000000000000000000000
5400348003004108551  00081454055000011293          000000020000000000252990000000012810000000000000000000000000000000000000000
5400348003004108551  00081454055000011900          000000020000000000049800000000002520000000000000000000000000000000000000000
5400348003004108551  0008145405500001312           000000010000000000077960000000003950000000000000000000000000000000000000000
5400348003004108551  00081454055000012439          000000010000000000113310000000005740000000000000000000000000000000000000000
5400348003004108551  00081454055000014340          000000010000000000220690000000011180000000000000000000000000000000000000000
5400348003004108551  00081454055000014341          000000010000000000134920000000006830000000000000000000000000000000000000000
5400348003004108551  00081454055000011894          000000010000000000089970000000004560000000000000000000000000000000000000000
5400348003004108551  00081454055000014506          000000010000000000133250000000006750000000000000000000000000000000000000000
5400348003004108551  00081554055000012421          000000010000000000015400000000000370000000000000000000000000000000000000000
5400348003004108551  00081554055000013189          000000020000000000097660000000002340000000000000000000000000000000000000000
5400348003004108551  0008155405500001285           000000020000000000195320000000004680000000000000000000000000000000000000000
5400348003004108551  0008155405500001295           000000010000000000341820000000008180000000000000000000000000000000000000000
5400348003004108551  0008155405500001636           000000020000000000058950000000001410000000000000000000000000000000000000000
5400348003004108551  00081654055000014637          000000010000000000893810000000000000000000000000000000000000000000000000000
5400348003004108551  00081654055000013111          000000010000000000030000000000000000000000000000000000000000000000000000000
5400348003004108551  00081654055000013208          000000010000000000130000000000000000000000000000000000000000000000000000000
5400348003004108551  00081654055000014640          000000010000000000220000000000000000000000000000000000000000000000000000000
5400348003004108551  00081654055000014638          000000010000000000140000000000000000000000000000000000000000000000000000000
5400348003004108551  00081754055000011633          000000010000000000017920000000000030000000000000000000000000000000000000000
5400348003004108551  0008175405500001658           000000010000000000118790000000000180000000000000000000000000000000000000000
5400348003004108551  000817540550000118            000000010000000000105280000000000160000000000000000000000000000000000000000
5400348003004108551  00081854055000013832          000000010000000000240000000000106020000000000000000000000000000000000000000
5400348003004108551  00081954055000014350          000000010000000000135140000000000860000000000000000000000000000000000000000
5400348003004108551  00082054055000014568          000000010000000000188330000000061670000000000000000000000000000000000000000
5400348003004108551  00082054055000014569          000000040000000001072550000000351290000000000000000000000000000000000000000
5400348003004108551  00082054055000013079          000000010000000000183320000000060040000000000000000000000000000000000000000
5400348003004108551  00082054055000014564          000000020000000000265250000000086870000000000000000000000000000000000000000
5400348003004108551  00082054055000011647          000000010000000000027400000000008980000000000000000000000000000000000000000
5400348003004108551  00082054055000014561          000000020000000000045260000000014830000000000000000000000000000000000000000
5400348003004108551  00082054055000013470          000000010000000000001130000000000370000000000000000000000000000000000000000
5400348003004108551  00082054055000014505          000000010000000000152800000000050050000000000000000000000000000000000000000
5400348003004108551  0008205405500001204           000000020000000000024920000000008160000000000000000000000000000000000000000
5400348003004108551  0008205405500001545           000000020000000000028470000000009330000000000000000000000000000000000000000
5400348003004108551  00082054055000011417          000000010000000000106880000000035010000000000000000000000000000000000000000
5400348003004108551  00082054055000012399          000000010000000000025630000000008390000000000000000000000000000000000000000
5400348003004108551  00082054055000011229          000000035000000000099660000000032640000000000000000000000000000000000000000
5400348003004108551  00082154055000014546          000000010000000000815880000000000120000000000000000000000000000000000000000
5400348003004108551  00082154055000014261          000000010000000000841820000000000100000000000000000000000000000000000000000
5400348003004108551  00082154055000014560          000000010000000001155860000000000140000000000000000000000000000000000000000
5400348003004108551  000821540550000161            000000010000000000034020000000000000000000000000000000000000000000000000000
5400348003004108551  00082154055000014557          000000020000000000017000000000000000000000000000000000000000000000000000000
5400348003004108551  00082154055000011417          000000010000000000141870000000000020000000000000000000000000000000000000000
5400348003004108551  00082154055000011248          000000020000000000060070000000000010000000000000000000000000000000000000000
5400348003004108551  0008215405500001545           000000010000000000033080000000000000000000000000000000000000000000000000000
5400348003004108551  00082154055000012997          000000020000000000191380000000000020000000000000000000000000000000000000000
5400348003004108551  0008215405500001454           000000020000000000047990000000000010000000000000000000000000000000000000000
5400348003004108551  0008215405500001506           000000010000000000022100000000000000000000000000000000000000000000000000000
5400348003004108551  00082154055000014558          000000010000000000294420000000000040000000000000000000000000000000000000000
5400348003004108551  00082154055000014556          000000010000000000017000000000000000000000000000000000000000000000000000000
5400348003004108551  00082154055000014552          000000030000000000009000000000000000000000000000000000000000000000000000000
5400348003004108551  00082154055000014551          000000010000000000314460000000000040000000000000000000000000000000000000000
5400348003004108551  00082154055000014550          000000010000000000246470000000000030000000000000000000000000000000000000000
5400348003004108551  00082154055000014545          000000010000000000083290000000000010000000000000000000000000000000000000000
5400348003004108551  00082154055000011363          000000010000000000040000000000000000000000000000000000000000000000000000000
5400348003004108551  00082154055000011618          000000080000000000016000000000000000000000000000000000000000000000000000000
5400348003004108551  0008215405500001988           000000020000000000367320000000000040000000000000000000000000000000000000000
5400348003004108551  00082154055000014317          000000010000000000098660000000000010000000000000000000000000000000000000000
5400348003004108551  00082154055000014316          000000010000000000141730000000000020000000000000000000000000000000000000000
5400505735600018551  00082254055000014579          000000020000000000662000000000000000000000000000000000000000000000000000000
5400505735600018551  00082254055000014582          000000010000000000142500000000000000000000000000000000000000000000000000000
5400505735600018551  00082254055000014581          000000020000000000160800000000000000000000000000000000000000000000000000000
5400505735600018551  00082254055000013019          000000020000000000050000000000000000000000000000000000000000000000000000000
5400505735600018551  00082254055000011417          000000010000000000035000000000000000000000000000000000000000000000000000000
5407063698000133551  00082364045000014209          000000010000000000643500000000000000000000000000000000000000000000000000000
5407063698000133551  00082364045000011156          000000010000000000128000000000000000000000000000000000000000000000000000000
5407063698000133551  00082364045000011447          000000010000000000060500000000000000000000000000000000000000000000000000000
5407063698000133551  00082364045000013120          000000010000000000124300000000000000000000000000000000000000000000000000000
5407063698000133551  0008236404500001572           000000060000000000263700000000000000000000000000000000000000000000000000000
5407063698000133551  00082364045000013105          000000030000000000033900000000000000000000000000000000000000000000000000000
5407063698000133551  00082364045000014622          000000170000000000235960000000000000000000000000000000000000000000000000000
5407063698000133551  00082364045000014620          000000020000000000934420000000000000000000000000000000000000000000000000000
5407063698000133551  0008236404500001636           000000020000000000060360000000000000000000000000000000000000000000000000000
5407063698000133551  00082364045000011971          000000030000000000105000000000000000000000000000000000000000000000000000000
5407063698000133551  00082364045000011971          000000010000000000035000000000000000000000000000000000000000000000000000000
5407063698000133551  00082364045000011971          000000020000000000070000000000000000000000000000000000000000000000000000000
5407063698000133551  00082364045000014613          000000020000000000576000000000000000000000000000000000000000000000000000000
5407063698000133551  00082364045000014610          000000020000000000057000000000000000000000000000000000000000000000000000000
5407063698000133551  00082364045000014609          000000020000000000064000000000000000000000000000000000000000000000000000000
5407063698000133551  00082364045000013206          000000010000000000338400000000000000000000000000000000000000000000000000000
5407063698000133551  00082364045000014230          000000010000000000088700000000000000000000000000000000000000000000000000000
5407063698000133551  00082364045000014291          000000010000000000004350000000000000000000000000000000000000000000000000000
5407063698000133551  00082364045000014285          000000010000000000048240000000000000000000000000000000000000000000000000000
5407063698000133551  00082464045000013748          000000010000000000193000000000000000000000000000000000000000000000000000000
5407063698000133551  0008246404500001984           000000010000000000254000000000000000000000000000000000000000000000000000000
5407063698000133551  00082464045000013467          000000010000000000004400000000000000000000000000000000000000000000000000000
5407063698000133551  00082464045000011442          000000010000000000246400000000000000000000000000000000000000000000000000000
5407063698000133551  00082464045000011531          000000010000000000464100000000000000000000000000000000000000000000000000000
5405440725000114551  00082554055000014664          000000020000000005623550000000000050000000000000000000000000000000000000000
5405440725000114551  00082554055000014659          000000020000000000540000000000000000000000000000000000000000000000000000000
5405440725000114551  00082554055000011222          000000010000000000030800000000000000000000000000000000000000000000000000000
5405440725000114551  00082554055000011286          000000010000000000054000000000000000000000000000000000000000000000000000000
5405440725000114551  00082554055000014367          000000020000000000510000000000000000000000000000000000000000000000000000000
5405440725000114551  00082554055000012001          000000010000000000118270000000000000000000000000000000000000000000000000000
5405440725000114551  0008255405500001636           000000020000000000060360000000000000000000000000000000000000000000000000000
5405440725000114551  0008255405500001835           000000010000000000031000000000000000000000000000000000000000000000000000000
5405440725000114551  00082554055000014641          000000020000000000244000000000000000000000000000000000000000000000000000000
5405440725000114551  00082554055000014642          000000020000000000308000000000000000000000000000000000000000000000000000000
5405440725000114551  00082554055000014643          000000010000000000191000000000000000000000000000000000000000000000000000000
5405440725000114551  00082554055000014652          000000020000000000312000000000000000000000000000000000000000000000000000000
5405440725000114551  00082554055000014653          000000020000000000056000000000000000000000000000000000000000000000000000000
5405440725000114551  00082554055000014604          000000070000000000245000000000000000000000000000000000000000000000000000000
5405440725000114551  0008265405500001572           000000070000000000193730000000002270000000000000000000000000000000000000000
5405440725000114551  00082654055000011327          000000010000000000062270000000000730000000000000000000000000000000000000000
5401612452000197551  00082764045000012168          000000080000000000176000000000000000000000000000000000000000000000000000000
5401612452000197551  00082764045000014676          000000010000000000108000000000000000000000000000000000000000000000000000000
5401612452000197551  00082764045000014677          000000010000000000114000000000000000000000000000000000000000000000000000000
5401612452000197551  00082764045000011141          000000010000000000090610000000000000000000000000000000000000000000000000000
5426548626000120551  00082854055000012392          000000010000000000300000000000000000000000000000000000000000000000000000000
5407063698000133551  0008296404500001593           000000010000000000493000000000000000000000000000000000000000000000000000000
5422254734000130551  0008306404500001516           000000020000000000600000000000000000000000000000000000000000000000000000000
5407213360000110551  00083154055000013174          000000010000000000105000000000000000000000000000000000000000000000000000000
5407213360000110551  00083154055000012151          000000010000000000026500000000000000000000000000000000000000000000000000000
5407213360000110551  00083154055000014562          000000010000000000057020000000000000000000000000000000000000000000000000000
5407213360000110551  0008315405500001508           000000010000000000020000000000000000000000000000000000000000000000000000000
5407213360000110551  0008315405500001572           000000035000000000122500000000000000000000000000000000000000000000000000000
5407213360000110551  00083154055000011633          000000010000000000018000000000000000000000000000000000000000000000000000000
5407213360000110551  0008325405500001572           000000060000000000180000000000000000000000000000000000000000000000000000000
5407213360000110551  00083254055000011447          000000010000000000050000000000000000000000000000000000000000000000000000000
5407213360000110551  00083254055000013120          000000010000000000099040000000000000000000000000000000000000000000000000000
5407213360000110551  00083254055000011156          000000010000000000068040000000000000000000000000000000000000000000000000000
5407213360000110551  00083254055000011154          000000020000000000265000000000000000000000000000000000000000000000000000000
5408106732000172551  0008335405500001134           000000010000000000114160000000000000000000000000000000000000000000000000000
5417103120000117551  00083454055000014708          000000010000000000204000000000000000000000000000000000000000000000000000000
5464858525014286551  00083554055000011257          000000010000000000670000000000000000000000000000000000000000000000000000000
5405440725000114551  00083654055000011417          000000010000000000038320000000000000000000000000000000000000000000000000000
5405440725000114551  00083654055000011714          000000010000000000113000000000000000000000000000000000000000000000000000000
5405440725000114551  0008365405500001572           000000080000000000224000000000000000000000000000000000000000000000000000000
5405440725000114551  0008365405500001428           000000100000000000350000000000000000000000000000000000000000000000000000000
5405440725000114551  00083654055000011327          000000010000000000063000000000000000000000000000000000000000000000000000000
5405440725000114551  00083654055000014435          000000010000000000035680000000000000000000000000000000000000000000000000000
5405440725000114551  00083654055000011710          000000010000000000109000000000000000000000000000000000000000000000000000000
5422254734000130551  0008376404500001516           000000020000000000620000000000024000000000000000000000000000000000000000000
5422254734000130551  0008386404500001290           000000020000000000621440000000022560000000000000000000000000000000000000000
5422254734000130551  00083864045000013485          000000010000000000021710000000000790000000000000000000000000000000000000000
5422254734000130551  00083864045000011231          000000030000000000086850000000003150000000000000000000000000000000000000000
5407063698000133551  00083964045000013126          000000010000000000068200000000000000000000000000000000000000000000000000000
5407063698000133551  0008396404500001703           000000010000000000024240000000000000000000000000000000000000000000000000000
5407063698000133551  0008396404500001572           000000030000000000111000000000000000000000000000000000000000000000000000000
5407063698000133551  00083964045000012117          000000010000000000073700000000000000000000000000000000000000000000000000000
5407063698000133551  00083964045000011010          000000010000000000027500000000000000000000000000000000000000000000000000000
5407063698000133551  0008396404500001604           000000010000000000031400000000000000000000000000000000000000000000000000000
5407063698000133551  0008396404500001852           000000040000000000076200000000000000000000000000000000000000000000000000000
5407063698000133551  00083964045000013485          000000010000000000022500000000000000000000000000000000000000000000000000000
5407063698000133551  0008396404500001918           000000010000000000160150000000000000000000000000000000000000000000000000000
5407063698000133551  00083964045000014561          000000020000000000066000000000000000000000000000000000000000000000000000000
5407063698000133551  00083964045000014100          000000020000000000016000000000000000000000000000000000000000000000000000000
5408636841000100551  00084064045000014717          000000010000000000640000000000000000000000000000000000000000000000000000000
5408636841000100551  00084064045000014761          000000020000000000146000000000000000000000000000000000000000000000000000000
5408636841000100551  0008406404500001554           000000010000000000102000000000000000000000000000000000000000000000000000000
5408636841000100551  00084064045000014719          000000010000000000550000000000000000000000000000000000000000000000000000000
5408636841000100551  0008406404500001555           000000020000000000260000000000000000000000000000000000000000000000000000000
5408636841000100551  00084064045000012194          000000020000000000372000000000000000000000000000000000000000000000000000000
5408636841000100551  00084064045000011019          000000010000000000006000000000000000000000000000000000000000000000000000000
5417103120000117551  00084154055000014741          000000010000000000091200000000004800000000000000000000000000000000000000000
5417103120000117551  00084154055000014740          000000010000000000041800000000002200000000000000000000000000000000000000000
5417103120000117551  00084154055000014739          000000010000000000064600000000003400000000000000000000000000000000000000000
5417103120000117551  00084154055000012168          000000080000000000190000000000010000000000000000000000000000000000000000000
5407063698000133551  00084264045000014742          000000010000000000107000000000000000000000000000000000000000000000000000000
5407063698000133551  00084264045000014665          000000020000000000045280000000000000000000000000000000000000000000000000000
5407063698000133551  00084264045000014291          000000020000000000008700000000000000000000000000000000000000000000000000000
5407063698000133551  00084264045000011894          000000010000000000035000000000000000000000000000000000000000000000000000000
5407063698000133551  00084264045000014120          000000010000000000076000000000000000000000000000000000000000000000000000000
5407063698000133551  0008426404500001572           000000030000000000072600000000000000000000000000000000000000000000000000000
5407063698000133551  00084264045000012062          000000010000000000024200000000000000000000000000000000000000000000000000000
5407063698000133551  0008426404500001508           000000010000000000024240000000000000000000000000000000000000000000000000000
5407063698000133551  0008426404500001947           000000010000000000073700000000000000000000000000000000000000000000000000000
5407063698000133551  0008426404500001918           000000010000000000160150000000000000000000000000000000000000000000000000000
5407063698000133551  00084264045000012060          000000010000000000027500000000000000000000000000000000000000000000000000000
5407063698000133551  00084364045000014195          000000020000000000010000000000000000000000000000000000000000000000000000000
5407063698000133551  0008436404500001120           000000020000000000010000000000000000000000000000000000000000000000000000000
5407063698000133551  0008436404500001110           000000020000000001403280000000000000000000000000000000000000000000000000000
5407063698000133551  00084464045000011190          000000010000000000050000000000000000000000000000000000000000000000000000000
5407063698000133551  00084464045000014792          000000020000000000714000000000000000000000000000000000000000000000000000000
5407063698000133551  00084464045000014785          000000020000000002244000000000000000000000000000000000000000000000000000000
5407063698000133551  00084464045000011721          000000020000000000860000000000000000000000000000000000000000000000000000000
5407063698000133551  00084464045000012242          000000010000000000043000000000000000000000000000000000000000000000000000000
5407063698000133551  00084464045000014790          000000010000000000550000000000000000000000000000000000000000000000000000000
5407063698000133551  00084464045000014791          000000010000000000066000000000000000000000000000000000000000000000000000000
5407063698000133551  00084464045000013432          000000040000000000394400000000000000000000000000000000000000000000000000000
5407063698000133551  00084464045000013431          000000040000000000462400000000000000000000000000000000000000000000000000000
5407063698000133551  00084464045000012072          000000020000000000118000000000000000000000000000000000000000000000000000000
5407063698000133551  00084464045000014727          000000010000000000030000000000000000000000000000000000000000000000000000000
5407063698000133551  00084464045000014748          000000020000000000356000000000000000000000000000000000000000000000000000000
5407063698000133551  00084464045000014747          000000020000000000350000000000000000000000000000000000000000000000000000000
5407063698000133551  00084464045000012965          000000010000000000179370000000000000000000000000000000000000000000000000000
5407063698000133551  00084464045000014753          000000010000000000063800000000000000000000000000000000000000000000000000000
5407063698000133551  00084464045000014752          000000010000000000063800000000000000000000000000000000000000000000000000000
5407063698000133551  00084464045000014749          000000020000000000473440000000000000000000000000000000000000000000000000000
5407063698000133551  00084464045000013279          000000010000000000504900000000000000000000000000000000000000000000000000000
5407063698000133551  00084464045000013855          000000060000000000006000000000000000000000000000000000000000000000000000000
5407063698000133551  000844640450000137            000000010000000000075000000000000000000000000000000000000000000000000000000
5407063698000133551  00084464045000011290          000000010000000000072290000000000000000000000000000000000000000000000000000
5416912179000193551  0008455405500001591           000000010000000000395280000000024370000000000000000000000000000000000000000
5416912179000193551  00084554055000013860          000000010000000000036930000000002270000000000000000000000000000000000000000
5416912179000193551  00084554055000011229          000000040000000000131880000000008120000000000000000000000000000000000000000
5416912179000193551  00084554055000014763          000000010000000000105690000000006510000000000000000000000000000000000000000
5416912179000193551  00084554055000011910          000000010000000000031090000000001910000000000000000000000000000000000000000
5416912179000193551  0008455405500001516           000000020000000000606630000000037370000000000000000000000000000000000000000
5416912179000193551  0008455405500001672           000000040000000000101960000000006280000000000000000000000000000000000000000
5416912179000193551  0008455405500001120           000000020000000000009420000000000580000000000000000000000000000000000000000
5416912179000193551  00084554055000012399          000000010000000000022610000000001390000000000000000000000000000000000000000
5416912179000193551  00084554055000014632          000000010000000000018840000000001160000000000000000000000000000000000000000
5416912179000193551  00084554055000014561          000000020000000000062170000000003830000000000000000000000000000000000000000
5416912179000193551  00084554055000014100          000000020000000000015070000000000930000000000000000000000000000000000000000
5416912179000193551  00084554055000011720          000000010000000000078230000000004820000000000000000000000000000000000000000
5407063698000133551  0008466404500001591           000000010000000000387000000000000000000000000000000000000000000000000000000
5410215988002294551  00084764045000011             000000020000000000500400000000000000000000000000000000000000000000000000000
5410215988002294551  0008476404500001572           000000030000000000075600000000000000000000000000000000000000000000000000000
5410215988002294551  00084764045000014176          000000020000000000847620000000000000000000000000000000000000000000000000000
5410215988002294551  00084764045000014794          000000020000000000153000000000000000000000000000000000000000000000000000000
5410215988002294551  00084764045000014796          000000020000000000099000000000000000000000000000000000000000000000000000000
5410215988002294551  00084764045000012946          000000020000000000099000000000000000000000000000000000000000000000000000000
5410215988002294551  00084764045000013504          000000020000000000594000000000000000000000000000000000000000000000000000000
5410215988002294551  00084764045000012382          000000010000000000034560000000000000000000000000000000000000000000000000000
5410215988002294551  00084764045000014633          000000010000000000032980000000000000000000000000000000000000000000000000000
5410215988002294551  0008476404500001703           000000010000000000022500000000000000000000000000000000000000000000000000000
5410215988002294551  00084764045000013857          000000010000000000037800000000000000000000000000000000000000000000000000000
5419713702000140551  0008485929400001591           000000010000000000399000000000000000000000000000000000000000000000000000000
5407063698000133551  00084964045000013485          000000010000000000024200000000000000000000000000000000000000000000000000000
5407063698000133551  0008496404500001572           000000030000000000111000000000000000000000000000000000000000000000000000000
5407063698000133551  00085064045000014793          000000010000000000576000000000000000000000000000000000000000000000000000000
5407063698000133551  00085064045000014674          000000010000000000034000000000000000000000000000000000000000000000000000000
5407063698000133551  00085064045000012987          000000010000000000005000000000000000000000000000000000000000000000000000000
5407063698000133551  00085064045000012988          000000010000000000005000000000000000000000000000000000000000000000000000000
5407063698000133551  00085064045000012986          000000010000000000003000000000000000000000000000000000000000000000000000000
5407063698000133551  0008506404500001885           000000010000000000043120000000000000000000000000000000000000000000000000000
5407063698000133551  00085064045000011417          000000010000000000035000000000000000000000000000000000000000000000000000000
5407063698000133551  0008506404500001918           000000010000000000187200000000000000000000000000000000000000000000000000000
5407063698000133551  0008506404500001947           000000010000000000075020000000000000000000000000000000000000000000000000000
5407063698000133551  00085064045000013912          000000010000000000142230000000000000000000000000000000000000000000000000000
5407063698000133551  0008506404500001887           000000010000000000022000000000000000000000000000000000000000000000000000000
5407063698000133551  00085064045000014100          000000020000000000016000000000000000000000000000000000000000000000000000000
5407063698000133551  00085064045000014561          000000020000000000066000000000000000000000000000000000000000000000000000000
5405440725000114551  00085154055000013489          000000010000000000070000000000000000000000000000000000000000000000000000000
5400399857002846551  00085264045000014580          000000040000000000421900000000020900000000000000000000000000000000000000000
5400399857002846551  00085264045000011229          000000070000000000186730000000009270000000000000000000000000000000000000000
5400399857002846551  00085264045000014525          000000010000000000276020000000013680000000000000000000000000000000000000000
5400399857002846551  00085264045000014770          000000010000000000171500000000008500000000000000000000000000000000000000000
5400399857002846551  00085264045000014710          000000010000000000034000000000001680000000000000000000000000000000000000000
5400399857002846551  00085264045000014435          000000010000000000034000000000001680000000000000000000000000000000000000000
5400399857002846551  00085264045000014434          000000010000000000108200000000005360000000000000000000000000000000000000000
5400399857002846551  00085264045000014727          000000010000000000066700000000003300000000000000000000000000000000000000000
5400399857002846551  00085264045000011327          000000010000000000060030000000002970000000000000000000000000000000000000000
5400399857002846551  00085264045000014431          000000020000000000047640000000002360000000000000000000000000000000000000000
5400001141625814551  00085364045000014798          000000010000000010640000000000000000000000000000000000000000000000000000000
5400001141625814551  00085364045000013855          000000080000000000008000000000000000000000000000000000000000000000000000000
5410835932000108551  00085454055000011506          000000010000000000006000000000000000000000000000000000000000000000000000000
5410835932000108551  00085454055000013302          000000010000000000006000000000000000000000000000000000000000000000000000000
5410835932000108551  00085454055000011009          000000010000000000055000000000000000000000000000000000000000000000000000000
5410835932000108551  00085454055000014561          000000020000000000066000000000000000000000000000000000000000000000000000000
5410835932000108551  0008545405500001508           000000010000000000020000000000000000000000000000000000000000000000000000000
5410835932000108551  00085454055000013485          000000010000000000019000000000000000000000000000000000000000000000000000000
5410835932000108551  0008545405500001572           000000030000000000105000000000000000000000000000000000000000000000000000000
5410835932000108551  00085454055000014100          000000020000000000016000000000000000000000000000000000000000000000000000000
5410835932000108551  00085454055000011244          000000010000000000020960000000000000000000000000000000000000000000000000000
5405440725000114551  00085554055000011904          000000010000000000063620000000006380000000000000000000000000000000000000000
5405440725000114551  00085554055000011327          000000010000000000057260000000005740000000000000000000000000000000000000000
5405440725000114551  00085554055000011710          000000010000000000099070000000009930000000000000000000000000000000000000000
5405440725000114551  0008555405500001572           000000070000000000178140000000017860000000000000000000000000000000000000000
5405440725000114551  00085554055000011895          000000010000000000004540000000000460000000000000000000000000000000000000000
5405440725000114551  00085554055000011714          000000010000000000145420000000014580000000000000000000000000000000000000000
5405440725000114551  00085554055000014442          000000020000000000181780000000018220000000000000000000000000000000000000000
5405440725000114551  00085554055000013896          000000010000000000040170000000004030000000000000000000000000000000000000000
5426548626000120551  00085754055000011251          000000010000000000126800000000000000000000000000000000000000000000000000000
5426548626000120551  00085754055000014608          000000010000000000450000000000000000000000000000000000000000000000000000000
5426548626000120551  00085754055000014561          000000030000000000084000000000000000000000000000000000000000000000000000000
5426548626000120551  00085754055000011261          000000010000000000145200000000000000000000000000000000000000000000000000000
5426548626000120551  00085754055000013656          000000010000000000122000000000000000000000000000000000000000000000000000000
5426548626000120551  00085754055000012168          000000080000000000200000000000000000000000000000000000000000000000000000000
5426548626000120551  00085754055000013469          000000020000000000010000000000000000000000000000000000000000000000000000000
5426548626000120551  00085754055000012307          000000010000000000044850000000000000000000000000000000000000000000000000000
5426548626000120551  00085754055000014100          000000040000000000032000000000000000000000000000000000000000000000000000000
5410215988002294551  0008586404500001703           000000010000000000029710000000000000000000000000000000000000000000000000000
5410215988002294551  00085864045000011             000000020000000000556000000000000000000000000000000000000000000000000000000
5410215988002294551  00085864045000013855          000000080000000000008000000000000000000000000000000000000000000000000000000
5410215988002294551  0008586404500001120           000000020000000000010000000000000000000000000000000000000000000000000000000
5410215988002294551  00085864045000013504          000000020000000000660000000000000000000000000000000000000000000000000000000
5410215988002294551  0008586404500001572           000000030000000000105000000000000000000000000000000000000000000000000000000
5410215988002294551  00085864045000013401          000000020000000000101340000000000000000000000000000000000000000000000000000
5410215988002294551  00085864045000014633          000000010000000000032000000000000000000000000000000000000000000000000000000
5410215988002294551  00085864045000013857          000000010000000000036850000000000000000000000000000000000000000000000000000
5422254734000130551  00085964045000012062          000000010000000000020000000000000000000000000000000000000000000000000000000
5422254734000130551  0008596404500001572           000000030000000000090000000000000000000000000000000000000000000000000000000
5422254734000130551  0008596404500001508           000000010000000000020000000000000000000000000000000000000000000000000000000
5422254734000130551  00085964045000012454          000000010000000000026000000000000000000000000000000000000000000000000000000
5422254734000130551  00085964045000011010          000000010000000000024000000000000000000000000000000000000000000000000000000
5400505735600018551  000860540550000161            000000010000000000026000000000000000000000000000000000000000000000000000000
5400505735600018551  00086054055000011417          000000010000000000035000000000000000000000000000000000000000000000000000000
5400505735600018551  00086054055000011231          000000035000000000105000000000000000000000000000000000000000000000000000000
5400505735600018551  00086054055000014789          000000010000000000030000000000000000000000000000000000000000000000000000000
5400505735600018551  00086054055000011005          000000010000000000026400000000000000000000000000000000000000000000000000000
5400505735600018551  00086054055000011175          000000010000000000142910000000000000000000000000000000000000000000000000000
5400505735600018551  00086054055000013024          000000010000000000060000000000000000000000000000000000000000000000000000000
5400348003004108551  00086454055000011279          000000010000000000072000000000000000000000000000000000000000000000000000000
5400348003004108551  00086454055000012355          000000050000000000170100000000000000000000000000000000000000000000000000000
5400348003004108551  00086454055000014663          000000020000000000180000000000000000000000000000000000000000000000000000000
5400348003004108551  00086454055000013855          000000080000000000008000000000000000000000000000000000000000000000000000000
5400348003004108551  0008645405500001295           000000010000000000153000000000000000000000000000000000000000000000000000000
5400348003004108551  0008645405500001123           000000010000000000072000000000000000000000000000000000000000000000000000000
5400348003004108551  00086454055000013078          000000010000000000083500000000000000000000000000000000000000000000000000000
5400348003004108551  0008645405500001609           000000010000000000038010000000000000000000000000000000000000000000000000000
5400348003004108551  0008645405500001658           000000010000000000055550000000000000000000000000000000000000000000000000000
5400348003004108551  00086454055000014766          000000010000000001610760000000000000000000000000000000000000000000000000000
5400348003004108551  00086454055000012012          000000010000000000156000000000000000000000000000000000000000000000000000000
5400348003004108551  00086454055000014289          000000040000000000100000000000000000000000000000000000000000000000000000000
5400348003004108551  0008645405500001703           000000010000000000020000000000000000000000000000000000000000000000000000000
5400348003004108551  0008645405500001972           000000010000000000018000000000000000000000000000000000000000000000000000000
5400348003004108551  00086454055000014578          000000010000000000065000000000000000000000000000000000000000000000000000000
5400348003004108551  0008645405500001971           000000010000000000154240000000000000000000000000000000000000000000000000000
5400348003004108551  00086454055000013860          000000010000000000039200000000000000000000000000000000000000000000000000000
5400348003004108551  0008645405500001609           000000010000000000038010000000000000000000000000000000000000000000000000000
5400348003004108551  00086454055000014615          000000010000000000145000000000000000000000000000000000000000000000000000000
5400348003004108551  0008645405500001746           000000010000000000066000000000000000000000000000000000000000000000000000000
5400348003004108551  00086454055000014594          000000010000000000095660000000000000000000000000000000000000000000000000000
5400348003004108551  00086454055000014661          000000010000000000110430000000000000000000000000000000000000000000000000000
5400348003004108551  00086454055000012399          000000010000000000024000000000000000000000000000000000000000000000000000000
5400348003004108551  00086454055000012392          000000010000000000292000000000000000000000000000000000000000000000000000000
5400348003004108551  0008645405500001432           000000010000000000070000000000000000000000000000000000000000000000000000000
5400348003004108551  0008645405500001609           000000010000000000038010000000000000000000000000000000000000000000000000000
5400348003004108551  00086454055000013860          000000010000000000039200000000000000000000000000000000000000000000000000000
5400348003004108551  00086454055000013860          000000010000000000039200000000000000000000000000000000000000000000000000000
5400348003004108551  00086454055000014561          000000010000000000033000000000000000000000000000000000000000000000000000000
5400348003004108551  00086454055000012176          000000010000000000009000000000000000000000000000000000000000000000000000000
5400348003004108551  0008645405500001291           000000010000000000009000000000000000000000000000000000000000000000000000000
5400348003004108551  00086454055000014564          000000020000000000117400000000000000000000000000000000000000000000000000000
5400348003004108551  00086454055000013078          000000010000000000083500000000000000000000000000000000000000000000000000000
5400348003004108551  00086454055000013078          000000010000000000083500000000000000000000000000000000000000000000000000000
5400348003004108551  0008645405500001432           000000010000000000070000000000000000000000000000000000000000000000000000000
5400348003004108551  0008645405500001746           000000010000000000066000000000000000000000000000000000000000000000000000000
5400348003004108551  0008645405500001765           000000010000000000145530000000000000000000000000000000000000000000000000000
5400348003004108551  00086454055000014592          000000010000000000051000000000000000000000000000000000000000000000000000000
5400348003004108551  0008645405500001591           000000010000000000419650000000000000000000000000000000000000000000000000000
5400348003004108551  00086454055000012987          000000010000000000005000000000000000000000000000000000000000000000000000000
5400348003004108551  00086454055000013890          000000050000000000032300000000000000000000000000000000000000000000000000000
5400348003004108551  00086454055000012309          000000010000000000232980000000000000000000000000000000000000000000000000000
5400348003004108551  00086454055000014646          000000010000000000040000000000000000000000000000000000000000000000000000000
5400348003004108551  0008645405500001675           000000010000000000115000000000000000000000000000000000000000000000000000000
5400348003004108551  00086454055000012374          000000010000000000125000000000000000000000000000000000000000000000000000000
5400348003004108551  00086454055000014757          000000010000000000031000000000000000000000000000000000000000000000000000000
5400348003004108551  0008645405500001672           000000040000000000109000000000000000000000000000000000000000000000000000000
5400348003004108551  0008645405500001591           000000010000000000419650000000000000000000000000000000000000000000000000000
5400348003004108551  0008645405500001591           000000010000000000419650000000000000000000000000000000000000000000000000000
5400348003004108551  00086454055000012399          000000020000000000048000000000000000000000000000000000000000000000000000000
5400348003004108551  00086454055000012399          000000010000000000024000000000000000000000000000000000000000000000000000000
5400348003004108551  00086454055000012355          000000010000000000034020000000000000000000000000000000000000000000000000000
5400348003004108551  000864540550000161            000000010000000000026000000000000000000000000000000000000000000000000000000
5400348003004108551  0008655405500001594           000000010000000000823930000000000000000000000000000000000000000000000000000
5400348003004108551  00086654055000012273          000000010000000000297710000000091800000000000000000000000000000000000000000
5400348003004108551  000866540550000150            000000010000000000013440000000004140000000000000000000000000000000000000000
5400348003004108551  00086654055000014756          000000010000000000009930000000003070000000000000000000000000000000000000000
5400348003004108551  00086654055000014561          000000020000000000050440000000015560000000000000000000000000000000000000000
5400348003004108551  00086654055000012273          000000010000000000297710000000091800000000000000000000000000000000000000000
5400348003004108551  00086654055000014756          000000010000000000009940000000003060000000000000000000000000000000000000000
5422254734000130550  00086722025000011643          000000010000000000436000000000000000000000000000000000000000000000000000000
5401098297000990551  00086859155000011643          000000010000000000198410000000000000000000000000000000000000000000000000000
5469954626000303551  00087054055000012015          000000020000000000668580000000000000000000000000000000000000000000000000000
5469954626000303551  00087054055000011208          000000010000000000024000000000000000000000000000000000000000000000000000000
5469954626000303551  00087054055000011960          000000010000000000024000000000000000000000000000000000000000000000000000000
5469954626000303551  00087054055000012043          000000020000000000624000000000000000000000000000000000000000000000000000000
5469954626000303551  00087054055000011026          000000010000000000060000000000000000000000000000000000000000000000000000000
5469954626000303551  0008705405500001545           000000010000000000025580000000000000000000000000000000000000000000000000000
5469954626000303551  00087054055000011636          000000020000000000040000000000000000000000000000000000000000000000000000000
5469954626000303551  0008705405500001763           000000010000000000025000000000000000000000000000000000000000000000000000000
5407063698000133551  00087164045000011532          000000010000000000755850000000000000000000000000000000000000000000000000000
5400399857000479551  00087254055000011615          000000010000000001127000000000000000000000000000000000000000000000000000000
5400399857000479551  00087254055000013898          000000010000000000082000000000000000000000000000000000000000000000000000000
5400298293000135551  00087352025000011008          000000010000000000015000000000000000000000000000000000000000000000000000000
5400298293000135551  00087352025000014722          000000010000000000015000000000000000000000000000000000000000000000000000000
5400298293000135551  00087352025000014721          000000010000000000035000000000000000000000000000000000000000000000000000000
5422254734000130551  0008746404500001516           000000010000000000310000000000000000000000000000000000000000000000000000000
5422254734000130551  0008746404500001572           000000030000000000105000000000000000000000000000000000000000000000000000000
5422254734000130551  00087464045000012212          000000010000000000020940000000000000000000000000000000000000000000000000000
5422254734000130551  00087464045000012117          000000010000000000072000000000000000000000000000000000000000000000000000000
5422254734000130551  0008746404500001918           000000010000000000185000000000000000000000000000000000000000000000000000000
5422254734000130551  0008746404500001973           000000010000000000024000000000000000000000000000000000000000000000000000000
5422254734000130551  00087464045000012062          000000010000000000019000000000000000000000000000000000000000000000000000000
5405440725000114551  00087554055000013517          000000010000000000323650000000016350000000000000000000000000000000000000000
5405440725000114551  00087554055000013465          000000010000000000005710000000000290000000000000000000000000000000000000000
5405440725000114551  00087554055000014799          000000020000000000178950000000009050000000000000000000000000000000000000000
5405440725000114551  00087554055000014291          000000020000000000008280000000000420000000000000000000000000000000000000000
5405440725000114551  00087554055000013465          000000010000000000005710000000000290000000000000000000000000000000000000000
5454337514000166551  00087664045000013467          000000010000000000004250000000000150000000000000000000000000000000000000000
5454337514000166551  00087664045000012182          000000010000000000173810000000006190000000000000000000000000000000000000000
5454337514000166551  00087664045000014291          000000010000000000004200000000000150000000000000000000000000000000000000000
5454337514000166551  00087664045000013857          000000010000000000035580000000001270000000000000000000000000000000000000000
5454337514000166551  0008766404500001572           000000035000000000118290000000004210000000000000000000000000000000000000000
5454337514000166551  00087664045000014088          000000010000000000017380000000000620000000000000000000000000000000000000000
5454337514000166551  00087664045000011248          000000020000000000057940000000002060000000000000000000000000000000000000000
5454337514000166551  00087664045000012202          000000010000000000039160000000001390000000000000000000000000000000000000000
5454337514000166551  00087664045000013511          000000010000000000093650000000003350000000000000000000000000000000000000000
5454337514000166551  00087664045000013504          000000020000000000628610000000022390000000000000000000000000000000000000000
5454337514000166551  00087664045000013855          000000040000000000003860000000000140000000000000000000000000000000000000000
5454337514000166551  00087664045000012382          000000010000000000037090000000001320000000000000000000000000000000000000000
5454337514000166551  00087664045000013601          000000040000000000398950000000014210000000000000000000000000000000000000000
5454337514000166551  00087664045000014100          000000020000000000015450000000000550000000000000000000000000000000000000000
5400399857002846551  0008776404500001572           000000070000000000210000000000000000000000000000000000000000000000000000000
5400399857002846551  00087764045000014710          000000010000000000180750000000000000000000000000000000000000000000000000000
5400399857002846551  00087764045000014434          000000010000000000113560000000000000000000000000000000000000000000000000000
5400399857002846551  00087764045000013896          000000010000000000044200000000000000000000000000000000000000000000000000000
5400399857002846551  00087764045000011327          000000010000000000063000000000000000000000000000000000000000000000000000000
5410215988002294551  00087864045000014669          000000010000000000267250000000000000000000000000000000000000000000000000000
5410215988002294551  00087864045000014834          000000010000000000412250000000000000000000000000000000000000000000000000000
5410215988002294551  00087864045000014670          000000010000000000267250000000000000000000000000000000000000000000000000000
5410215988002294551  00087864045000014833          000000010000000000129000000000000000000000000000000000000000000000000000000
5410215988002294551  00087864045000013855          000000010000000000001000000000000000000000000000000000000000000000000000000
5410215988002294551  0008786404500001572           000000035000000000122500000000000000000000000000000000000000000000000000000
5410215988002294551  00087864045000012202          000000010000000000041000000000000000000000000000000000000000000000000000000
5410215988002294551  0008786404500001508           000000010000000000021000000000000000000000000000000000000000000000000000000
5410215988002294551  00087864045000013857          000000010000000000037000000000000000000000000000000000000000000000000000000
5400399857002846551  00087964045000011229          000000070000000000217160000000027840000000000000000000000000000000000000000
5400399857002846551  00087964045000011327          000000010000000000055840000000007160000000000000000000000000000000000000000
5422254734000130551  00088064045000011643          000000010000000000350000000000000000000000000000000000000000000000000000000
5422254734000130551  0008806404500001803           000000010000000000156000000000000000000000000000000000000000000000000000000
5422254734000130551  0008806404500001192           000000020000000000168000000000000000000000000000000000000000000000000000000
5422254734000130551  00088064045000011417          000000010000000000030000000000000000000000000000000000000000000000000000000
5422254734000130551  00088064045000014815          000000010000000000160000000000000000000000000000000000000000000000000000000
5422254734000130551  00088064045000012212          000000020000000000030000000000000000000000000000000000000000000000000000000
5422254734000130551  00088064045000012392          000000010000000000292000000000000000000000000000000000000000000000000000000
5422254734000130551  0008806404500001516           000000040000000001240000000000000000000000000000000000000000000000000000000
5422254734000130551  00088064045000011849          000000010000000000120000000000000000000000000000000000000000000000000000000
5422254734000130551  00088064045000014820          000000010000000000200000000000000000000000000000000000000000000000000000000
5401612452000197551  00088164045000011467          000000010000000000731000000000000000000000000000000000000000000000000000000
5401612452000197551  00088164045000011611          000000010000000000487900000000000000000000000000000000000000000000000000000
5469954626000303551  0008825405500001205           000000020000000000036000000000000000000000000000000000000000000000000000000
5469954626000303551  00088254055000014860          000000010000000000042500000000000000000000000000000000000000000000000000000
5469954626000303551  00088254055000014136          000000020000000000087940000000000000000000000000000000000000000000000000000
5469954626000303551  00088254055000014291          000000010000000000005000000000000000000000000000000000000000000000000000000
5469954626000303551  00088254055000011843          000000010000000000026000000000000000000000000000000000000000000000000000000
5469954626000303551  0008825405500001613           000000020000000000184660000000000000000000000000000000000000000000000000000
5469954626000303551  0008825405500001514           000000020000000000178000000000000000000000000000000000000000000000000000000
5469954626000303551  0008825405500001506           000000010000000000020000000000000000000000000000000000000000000000000000000
5469954626000303551  00088254055000014088          000000010000000000020000000000000000000000000000000000000000000000000000000
5469954626000303551  00088254055000013860          000000010000000000039200000000000000000000000000000000000000000000000000000
5469954626000303551  00088254055000012061          000000010000000000076140000000000000000000000000000000000000000000000000000
5469954626000303551  0008825405500001545           000000010000000000025580000000000000000000000000000000000000000000000000000
5469954626000303551  00088254055000011618          000000080000000000016000000000000000000000000000000000000000000000000000000
5469954626000303551  00088254055000014690          000000010000000000082000000000000000000000000000000000000000000000000000000
5469954626000303551  00088254055000014615          000000010000000000145000000000000000000000000000000000000000000000000000000
5469954626000303551  0008825405500001746           000000010000000000066000000000000000000000000000000000000000000000000000000
5417341115000142550  00088352025000013932          000000010000000000060000000000000000000000000000000000000000000000000000000
5400097252735591551  00088459294000013578          000000010000000000276000000000000000000000000000000000000000000000000000000
5400097252735591550  00088512024000013578          000000010000000000276000000000000000000000000000000000000000000000000000000
