1011053630000140083818822     BAHIA TRATORES DE JUAZEIRO LTDA - MJuazeiro                      BA74361178782017120120171231331
11AVENIDA JOÃO DURVAL CARNEIRO      00007                      JOÃO XXIII     48900300LUIZ ANTONIO DE BRITO       007488090056
5000091212170504829822364     20171201BA551  0067915102P000000002900000000000000000000000000000000000000000000000000000000000N
50000100609284681353419       20171205BA551  0067955405P000000001500000000000000000000000000000000000000000000000000152000000N
50000756053684004149261SSP    20171205PE551  0067966404P000000002700000000000000000000000000000000000000000000000000277000000N
50000636273965535609518       20171205BA551  0067975403P000000004000000000000000000000000000000000000000000000000000402000000N
50000078641245340184111890    20171205BA551  0067985405P000000002800000000000000000000000000000000000000000000000000288000000N
509683207600015237906122      20171205BA551  0068005405P000000000135000000000000000000000000000000000000000000000000013500000N
5004899037000669019646828     20171206PE551  0068016404P000000001300000000000000000000000000000000000000000000000000130000000N
5012786836000304072242655     20171206BA551  0068025405P000000006020000000000000000000000000000000000000000000000000602000000N
50000377520305202532207       20171206PE551  0068036404P000000013740000000000000000000000000000000000000000000000001382000000N
50000883873724041117103404    20171206BA551  0068045405P000000002450000000000000000000000000000000000000000000000000245000000N
50000999039115721116411520    20171206BA551  0068055405P000000001260000000000000000000000000000000000000000000000000126000000N
50000011398595951136890718    20171206BA551  0068065405P000000002850000000000000000000000000000000000000000000000000285000000N
50000012551105111131179498    20171207BA551  0068075405P000000002850000000000000000000000000000000000000000000000000285000000N
50000008551094756316947ssppe  20171207BA551  0068085405P000000005500000000000029730000000000236000000000000000000000563910800N
50000258400614680             20171208BA551  0068095405P000000002600000000000239880000000000178000000000000000000000020120100N
50000445512905723233199       20171208BA551  0068105405P000000000300000000000023710000000000056000000000000000000000006910200N
50000909437595870936182636    20171208BA551  0068115405P000000000300000000000009890000000000178000000000000000000000024611800N
50000504801625492147138908    20171208BA551  0068125405P000000001500000000000049410000000000889000000000000000000000138591800N
5006153897000412126356313     20171208BA551  0068135405P000000031800000000003036670000000001001000000000000000000000143330000N
500005192455251504799627      20171208BA551  0068145405P000000000400000000000040000000000000000000000000000000000000000000000N
50000269957944000             20171208BA551  0068155405P000000015475000000001301630000000015618000000000000000000000343271200N
50000015968445581155029801    20171208BA551  0068165405P000000004000000000000400000000000004800000000000000000000000040811200N
5000056435010587587893834     20171209BA551  0068175405P000000000400000000000000000000000000000000000000000000000000040000000N
50000225602625680258015110    20171211BA551  0068185405P000000005900000000000000000000000000000000000000000000000000590000000N
50000102094004202018573322    20171211BA551  0068195405P000000001350000000000000000000000000000000000000000000000000135000000N
50000012551105111131179498    20171211BA551  0068205405P000000001200000000000000000000000000000000000000000000000000120000000N
50000358127705063741833SSP    20171211BA551  0068215405P000000004000000000000000000000000000000000000000000000000000400000000N
50000238688484872255760       20171211BA551  0068225405P000000011000000000000000000000000000000000000000000000000001100000000N
500957570800022681278536      20171211BA551  0068235405P000000001700000000000000000000000000000000000000000000000000170000000N
50000388645504102784264       20171212BA551  0068245405P000000005460000000000000000000000000000000000000000000000000546000000N
5003070664000115068312067     20171212PE551  0068256404P000000000280000000000000000000000000000000000000000000000000028000000N
50000020247464035240137SSPPE  20171212PE551  0068266404P000000000560000000000000000000000000000000000000000000000000056000000N
505855124300028925888766      20171212BA551  0068275405P000000003150000000000000000000000000000000000000000000000000315000000N
5058551243000440030386454     20171212PE551  0068286404P000000004320000000000000000000000000000000000000000000000000432000000N
508884768600036336808843      20171212BA551  0068295405P000000002530000000000000000000000000000000000000000000000000253000000N
500000004309898300            20171212BA551  0068305405P000000016500000000000000000000000000000000000000000000000001650000000N
50000358959184682598819       20171212BA551  0068315405P000000003140000000000000000000000000000000000000000000000000314000000N
50000053341638830             20171212PE551  0068326404P000000000700000000000000000000000000000000000000000000000000070000000N
500957570800022681278536      20171212BA551  0068335405P000000001800000000000000000000000000000000000000000000000000180000000N
50000377520305202532207       20171212BA551  0068345405P000000007900000000000000000000000000000000000000000000000000792000000N
5018283249000117109614306     20171212BA551  0068355405P000000002810000000000000000000000000000000000000000000000000283800000N
508884768600036336808843      20171213BA551  0068365405P000000006880000000000000000000000000000000000000000000000000688000000N
50000909437595870936182636    20171213BA551  0068375405P000000000300000000000000000000000000000000000000000000000000030000000N
5000003359301315294368        20171213PE551  0068386404P000000010500000000000000000000000000000000000000000000000001050000000N
50000225617815340296014362    20171213BA551  0068395405P000000004090000000000000000000000000000000000000000000000000409000000N
5077310589000159144410696117  20171213SP551  0068406411P000000038081600000002980200000000020861000000000000000000000008520700N
50000040010484931294278371SSP 20171213PE551  0068416404P000000001800000000000000000000000000000000000000000000000000180000000N
50000002253565971007978066    20171213BA551  0068425405P000000003500000000000000000000000000000000000000000000000000350000000N
50000002253565971007978066    20171213BA551  0068435405P000000005850000000000000000000000000000000000000000000000000585000000N
50000002253565971007978066    20171213BA551  0068445405P000000000800000000000000000000000000000000000000000000000000080000000N
5000097750670572549695494     20171213BA551  0068455405P000000002300000000000000000000000000000000000000000000000000230000000N
50000652480404003622347       20171213BA551  0068465405P000000000200000000000000000000000000000000000000000000000000020000000N
500474047500025657808039      20171214BA551  0068475405P000000000420000000000000000000000000000000000000000000000000042000000N
50000225617815340296014362    20171214BA551  0068481202P000000004090000000000000000000000000000000000000000000000000409000000N
50000225617815340296014362    20171214BA551  0068495405P000000003090000000000000000000000000000000000000000000000000336000000N
50000000694645371129235858    20171214BA551  0068505405P000000002300000000000000000000000000000000000000000000000000230000000N
5004740475000337030233976     20171214PE551  0068516404P000000000960000000000000000000000000000000000000000000000000096000000N
500957570800022681278536      20171214BA551  0068525405P000000001800000000000000000000000000000000000000000000000000180000000N
50000020658235851192460901    20171214BA551  0068535405P000000002000000000000000000000000000000000000000000000000000217000000N
5012786836000142016472373     20171215PE551  0068546404P000000009180000000000000000000000000000000000000000000000000918000000N
50000037209104075662483SSP    20171215PE551  0068556404P000000002150000000000000000000000000000000000000000000000000215000000N
50000037209104075662483SSP    20171215PE551  0068566404P000000000440000000000000000000000000000000000000000000000000044000000N
5000020706111400613582SSP     20171215PE551  0068636404P000000004700000000000000000000000000000000000000000000000000470000000N
50000049140354211307728103SSP 20171216PE551  0068646404P000000006360000000000000000000000000000000000000000000000000712700000N
50000999999999990             20171216BA551  0068655929P000000000400000000000000000000000000000000000000000000000000080000000N
50000999999999990             20171216BA551  0068661202P000000000400000000000000000000000000000000000000400000000000000000000N
508884768600036336808843      20171216BA551  0068675405P000000005000000000000000000000000000000000000000000000000000500000000N
50000909437595870936182636    20171216BA551  0068685405P000000005000000000000000000000000000000000000000000000000000617000000N
50000015395645331256463485SSP 20171218BA551  0068695405P000000003300000000000000000000000000000000000000000000000000357500000N
50000183526344530             20171218BA551  0068705405P000000004000000000000000000000000000000000000000000000000000451000000N
500005192455251504799627      20171218BA551  0068715929P000000000900000000000000000000000000000000000000000000000000090000000N
500005192455251504799627      20171218BA551  0068721202P000000000900000000000000000000000000000000000000000000000000090000000N
50000636281045724642185       20171218BA551  0068735405P000000004125000000000000000000000000000000000000000000000000415000000N
506995462600013344149198      20171218BA551  0068745405P000000015150000000000000000000000000000000000000000000000001638000000N
5004785526000266030951348     20171219PE551  0068756404P000000000260000000000000000000000000000000000000000000000000026000000N
50000040010484931294278371SSP 20171219PE551  0068766404P000000003060000000000000000000000000000000000000000000000000306000000N
50000470517874203096009       20171219PE551  0068776404P000000004980000000000000000000000000000000000000000000000000576000000N
500005192455251504799627      20171219BA551  0068785405P000000001900000000000000000000000000000000000000000000000000190000000N
50000053341638830             20171219PE551  0068796404P000000001700000000000000000000000000000000000000000000000000170000000N
5012786836000142016472373     20171219PE551  0068806404P000000005050000000000000000000000000000000000000000000000000505000000N
50000078641245340184111890    20171220BA551  0068815405P000000001650000000000000000000000000000000000000000000000000165000000N
50000652480404003622347       20171220BA551  0068825405P000000010262000000000000000000000000000000000000000000000001026200000N
50000792020634001268991       20171220BA551  0068835405P000000070000000000000000000000000000000000000000000000000008449000000N
5000031238831400000           20171220PE551  0068846404P000000009300000000000000000000000000000000000000000000000000930000000N
5000066656583504671958810     20171220BA551  0068855405P000000010000000000000000000000000000000000000000000000000001000000000N
5000097719838572904356728SSP  20171221BA551  0068865405P000000000030000000000000000000000000000000000000000000000000003000000N
50000035713444306112020       20171221BA551  0068875405P000000007500000000000000000000000000000000000000000000000000755650000N
50000041611984001194012400    20171221BA551  0068885405P000000001900000000000000000000000000000000000000000000000000190000000N
5000005211191463627151SSP     20171221PE551  0068916929P000000006120000000000000000000000000000000000000000000000001224000000N
5000005211191463627151SSP     20171221PE551  0068922202P000000006120000000000000000000000000000000000000000000000000612000000N
5000097061140500968800408     20171221BA551  0068935405P000000000300000000000000000000000000000000000000000000000000030000000N
5077310589000159144410696117  20171221SP551  0068942102P000000038081600000002980200000000020861000000000000000000000000000700N
5077310589000159144410696117  20171221SP551  0068956202P000000038081600000002980200000000020861000000000000000000000008520700N
500009899595284911566164      20171222BA551  0068995405P000000019875000000000000000000000000000000000000000000000001987500000N
5000066335027100191414        20171222BA551  0069005405P000000018000000000000000000000000000000000000000000000000001800000000N
50000100720554721456559       20171222BA551  0069015405P000000000900000000000000000000000000000000000000000000000000099000000N
50000652480404003622347       20171222BA551  0069021202P000000006340000000000000000000000000000000000000000000000000634000000N
50000183526344530             20171222BA551  0069035405P000000004400000000000000000000000000000000000000000000000000440000000N
500005192455251504799627      20171222BA551  0069045405P000000003000000000000000000000000000000000000000000000000000300000000N
50000018533075481334337225    20171222BA551  0069055405P000000003810000000000000000000000000000000000000000000000000381000000N
50000347375705593652807SSP    20171223BA551  0069065405P000000005200000000000000000000000000000000000000000000000000520000000N
50000173255524911438608365    20171223BA551  0069075405P000001140000000000000000000000000000000000000000000000000114000000000N
50000173255524911438608365    20171223BA551  0069095405P000000980000000000000000000000000000000000000000000000000098000000000N
50000173255524911438608365    20171223BA551  0069105405P000001140000000000000000000000000000000000000000000000000114000000000N
50000173255524911438608365    20171223BA551  0069115405P000000980000000000000000000000000000000000000000000000000098000000000N
50000173255524911438608365    20171223BA551  0069125405P000000980000000000000000000000000000000000000000000000000098000000000N
50000911089185491495121712    20171223BA551  0069135405P000000009500000000000000000000000000000000000000000000000001065800000N
506995462600013344149198      20171226BA551  0069145405P000000009080000000000000000000000000000000000000000000000000908000000N
506995462600013344149198      20171226BA551  0069155405P000000003520000000000000000000000000000000000000000000000000352000000N
50000092960505530136485510    20171226BA551  0069165405P000000006975000000000000000000000000000000000000000000000000697500000N
50000401624605975519058SSP    20171226BA551  0069175405P000000003450000000000000000000000000000000000000000000000000374000000N
50000961905075490942450965SSP 20171226BA551  0069185405P000000000300000000000000000000000000000000000000000000000000030000000N
5000094700702591854781480     20171227BA551  0069195405P000000011300000000000000000000000000000000000000000000000001130000000N
50000015934175271337321346    20171227BA551  0069205405P000000001100000000000000000000000000000000000000000000000000110000000N
50000652480404003622347       20171227BA551  0069215405P000000000180000000000000000000000000000000000000000000000000018000000N
5000066656583504671958810     20171227PE551  0069226404P000000007000000000000000000000000000000000000000000000000000738000000N
50000563923625684108946       20171227BA551  0069235405P000000001380000000000000000000000000000000000000000000000000138000000N
5013133227000157011471998     20171227BA551  0069245405P000000008960000000000000000000000000000000000000000000000000896000000N
50000483466407498592152       20171227PE551  0069256404P000000000260000000000000000000000000000000000000000000000000026000000N
50000503719835680             20171227BA551  0069265405P000000001250000000000000000000000000000000000000000000000000125000000N
508884768600036336808843      20171227BA551  0069275405P000000084000000000000000000000000000000000000000000000000008859350000N
5000098517260520911181156SSP  20171227BA551  0069285405P000000001600000000000000000000000000000000000000000000000000166000000N
50000750583670683062010636    20171227BA551  0069295405P000000041000000000000000000000000000000000000000000000000004330500000N
5000020706111400613582SSP     20171227PE551  0069306404P000000000450000000000000000000000000000000000000000000000000045000000N
5000031238831400000           20171227PE551  0069316404P000000026800000000000000000000000000000000000000000000000002705300000N
50000015934175271337321346    20171228BA551  0069325405P000000001300000000000000000000000000000000000000000000000000136000000N
50000030432334920             20171228BA551  0069335405P000000030000000000000000000000000000000000000000000000000003220450000N
50000377520305202532207       20171228BA551  0069345405P000000012820000000000000000000000000000000000000000000000001282000000N
5000059260742587551944943     20171228BA551  0069365405P000000006300000000000000000000000000000000000000000000000000670000000N
50000999999999990             20171228BA551  0069395929P000000001300000000000000000000000000000000000000000000000000260000000N
50000999999999990             20171228BA551  0069401202P000000001300000000000000000000000000000000000001300000000000000000000N
500957570800022681278536      20171228BA551  0069415405P000000002450000000000000000000000000000000000000000000000000245000000N
506995462600013344149198      20171228BA551  0069425405P000000003330000000000000000000000000000000000000000000000000333000000N
50000053341638830             20171228PE551  0069436404P000000000900000000000000000000000000000000000000000000000000090000000N
500000102758484511779384SSPSP 20171229SP551  0069446404P000000008000000000000000000000000000000000000000000000000000873000000N
5004220135000113028097882     20171229PE551  0069456411P000000004454000000000409710000000007375000000000000000000000000001800N
50000926450975530             20171229BA551  0069465405P000000043600000000000000000000000000000000000000000000000005163000000N
50000388645504102784264       20171229BA551  0069475405P000000000900000000000000000000000000000000000000000000000000090000000N
5001273669000462037761072     20171229PE551  0069486404P000000029970000000000000000000000000000000000000000000000002997000000N
5001273669001191047997044     20171229PE551  0069496404P000000001220000000000000000000000000000000000000000000000000122000000N
500009899595284911566164      20171229BA551  0069505405P000000003520000000000000000000000000000000000000000000000000352000000N
50000775269964000             20171229BA551  0069515405P000000001500000000000000000000000000000000000000000000000000153600000N
50000636273965535609518       20171229BA551  0069525405P000000025200000000000000000000000000000000000000000000000003207300000N
50000911089185491495121712    20171229BA551  0069535405P000000060000000000000000000000000000000000000000000000000006967550000N
5000067906702549661638626     20171229BA551  0069545405P000000110000000000000000000000000000000000000000000000000011000000000N
50000058057735031304655423    20171229BA551  0069555405P000000012500000000000000000000000000000000000000000000000001562000000N
50000049140354211307728103SSP 20171229PE551  0069562202P000000004167700000000000000000000000000000000000000000000000468000000N
50000025420755301365774821    20171230BA551  0069575405P000000040000000000000000000000000000000000000000000000000004234150000N
50000855982755200512512051    20171230BA551  0069585405P000000060000000000000000000000000000000000000000000000000006758550000N
50000855982755200512512051    20171230BA551  0069595405P000000013000000000000000000000000000000000000000000000000001604000000N
5008694543000400128034066     20171230BA551  0069605405P000000005360000000000000000000000000000000000000000000000000536000000N
500009899595284911566164      20171230BA551  0069615405P000000000040000000000000000000000000000000000000000000000000004000000N
500299140900014250333187      20171201BA551  0661761403T000000000694500000000000000000000000000000000000000000000000000000000N
5400091212170504551  0067915403060001538           000000020000000000058000000000006000000000000000000000000000000000000000000
5400091212170504551  0067915403060002966           000000010000000000077000000000004000000000000000000000000000000000000000000
5400091212170504551  00679154030600032720          000000010000000000031000000000000000000000000000000000000000000000000000000
5400091212170504551  00679154030600046159          000000050000000000070000000000005000000000000000000000000000000000000000000
5400091212170504551  006791540306000565            000000010000000000010000000000001000000000000000000000000000000000000000000
5400091212170504551  0067915403060006215           000000010000000000016000000000002000000000000000000000000000000000000000000
5400091212170504551  0067915403060007527           000000010000000000028000000000003000000000000000000000000000000000000000000
5400010060928468551  00679554050600011901          000000020000000000092760000000001240000000000000000000000000000000000001200
5400010060928468551  00679554050600024405          000000010000000000057240000000000760000000000000000000000000000000000001200
5400075605368400551  00679664040600013146          000000010000000000270000000000007000000000000000000000000000000000000001200
5400063627396553551  00679754030600012997          000000010000000000244780000000001220000000000000000000000000000000000001200
5400063627396553551  0067975403060002538           000000020000000000063680000000000320000000000000000000000000000000000001200
5400063627396553551  00679754030600033147          000000020000000000091540000000000460000000000000000000000000000000000001200
5400007864124534551  0067985405060001180           000000010000000000280000000000008000000000000000000000000000000000000001200
5496832076000152551  0068005403060001299           000000030000000000013500000000000000000000000000000000000000000000000001200
5404899037000669551  00680164040600014596          000000020000000000130000000000000000000000000000000000000000000000000001200
5412786836000304551  00680254030600012254          000000030000000000342000000000000000000000000000000000000000000000000001200
5412786836000304551  0068025403060002320           000000020000000000260000000000000000000000000000000000000000000000000001200
5400037752030520551  00680364030600013217          000000010000000000013920000000000080000000000000000000000000000000000001200
5400037752030520551  00680364030600022610          000000010000000000483190000000002810000000000000000000000000000000000001200
5400037752030520551  0068036403060003319           000000010000000000382770000000002230000000000000000000000000000000000001200
5400037752030520551  0068036403060004919           000000020000000000113340000000000660000000000000000000000000000000000001200
5400037752030520551  00680364030600052396          000000020000000000023860000000000140000000000000000000000000000000000001200
5400037752030520551  00680364030600063007          000000010000000000356920000000002080000000000000000000000000000000000001200
5400088387372404551  00680454050600012621          000000020000000000045000000000000000000000000000000000000000000000000001200
5400088387372404551  00680454050600021125          000000010000000000200000000000000000000000000000000000000000000000000001200
5400099903911572551  00680554050600012099          000000030000000000126000000000000000000000000000000000000000000000000001200
5400001139859595551  00680654050600012259          000000010000000000220000000000000000000000000000000000000000000000000001200
5400001139859595551  0068065405060002470           000000010000000000065000000000000000000000000000000000000000000000000001200
5400001255110511551  00680754050600011589          000000010000000000078000000000000000000000000000000000000000000000000001200
5400001255110511551  00680754050600022720          000000020000000000062000000000000000000000000000000000000000000000000001200
5400001255110511551  00680754050600031403          000000010000000000090000000000000000000000000000000000000000000000000001200
5400001255110511551  0068075405060004471           000000010000000000055000000000000000000000000000000000000000000000000001200
5400000855109475551  0068085405060001207           000000020000000000107230000000008770000000000000000000000000000000000001200
5400000855109475551  0068085405060002471           000000020000000000101680000000008320000000000000000000000000000000000001200
5400000855109475551  00680854050600032720          000000020000000000057310000000004690000000000000000000000000000000000001200
5400000855109475551  00680854050600042997          000000010000000000227390000000018610000000000000000000000000000000000001200
5400000855109475551  0068085405010005215           000000010000000000016640000000001360000000016640000000000000000000000000000
5400000855109475551  0068085405020006168           000000010000000000039750000000003250000000013090000000000000000000000001800
5400025840061468551  00680954050100016057          000000300000000000230000000000040000000000230000000000000000000000000000000
5400025840061468551  00680954050200022146          000000200000000000030000000000000000000000009880000000000000000000000001800
5400044551290572551  00681054050100016197          000000020000000000020620000000001380000000020620000000000000000000000000000
5400044551290572551  00681054050200021415          000000020000000000009380000000000620000000003090000000000000000000000001800
5400090943759587551  00681154050200011753          000000040000000000003480000000000520000000001150000000000000000000000001800
5400090943759587551  00681154050200022178          000000040000000000006960000000001040000000002290000000000000000000000001800
5400090943759587551  00681154050200031002          000000090000000000015650000000002350000000005160000000000000000000000001800
5400090943759587551  00681154050200042136          000000090000000000003910000000000590000000001290000000000000000000000001800
5400050480162549551  00681254050200016645          000000010000000000118880000000030120000000039160000000000000000000000001800
5400050480162549551  00681254050200026644          000000010000000000031120000000007880000000010250000000000000000000000001800
5406153897000412551  00681354050200011415          000000020000000000010000000000000000000000003290000000000000000000000001800
5406153897000412551  00681354050100024906          000000010000000000004000000000000000000000004000000000000000000000000000000
5406153897000412551  00681354050200033006          000000010000000000024000000000000000000000007910000000000000000000000001800
5406153897000412551  00681354050100044861          000000020000000000176000000000000000000000176000000000000000000000000000000
5406153897000412551  00681354050200053006          000000010000000000024000000000000000000000007910000000000000000000000001800
5406153897000412551  00681354050200061143          000000010000000000002000000000000000000000000660000000000000000000000001800
5406153897000412551  00681354050100074750          000000010000000000070000000000000000000000070000000000000000000000000000000
5406153897000412551  00681354050100085357          000000010000000002700000000000000000000002700000000000000000000000000000000
5406153897000412551  00681354050200091430          000000010000000000012000000000000000000000003950000000000000000000000001800
5406153897000412551  00681354050200101419          000000020000000000010000000000000000000000003290000000000000000000000001800
5406153897000412551  00681354050100116192          000000010000000000010000000000000000000000010000000000000000000000000000000
5406153897000412551  00681354050600126159          000000020000000000030000000000000000000000000000000000000000000000000001200
5406153897000412551  00681354050200136615          000000010000000000035000000000000000000000011530000000000000000000000001800
5406153897000412551  00681354050100145990          000000010000000000021000000000000000000000021000000000000000000000000000000
5406153897000412551  00681354050200152293          000000020000000000052000000000000000000000017130000000000000000000000001800
5400051924552515551  0068145405010001685           000000010000000000025000000000000000000000025000000000000000000000000000000
5400051924552515551  0068145405010002324           000000010000000000015000000000000000000000015000000000000000000000000000000
5400026995794400551  0068155405060001180           000000010000000000245870000000042130000000000000000000000000000000000001200
5400026995794400551  00681554050200021753          000000010000000000000850000000000150000000000850000000000000000000000001200
5400026995794400551  00681554050100032111          000000020000000000003410000000000590000000003410000000000000000000000001200
5400026995794400551  00681554050100046192          000000020000000000017070000000002930000000017070000000000000000000000001200
5400026995794400551  00681554050200051365          000000020000000000023900000000004100000000023900000000000000000000000001200
5400026995794400551  00681554050100061203          000000010000000000007680000000001320000000007680000000000000000000000001200
5400026995794400551  00681554050200071415          000000020000000000008540000000001460000000008540000000000000000000000001200
5400026995794400551  00681554050200081419          000000020000000000008540000000001460000000008540000000000000000000000001200
5400026995794400551  0068155405010009472           000000010000000000000550000000000100000000000550000000000000000000000001200
5400026995794400551  00681554050200101700          000000060000000000220290000000037710000000220290000000000000000000000001200
5400026995794400551  00681554050200114013          000000020000000000013660000000002340000000013660000000000000000000000001200
5400026995794400551  00681554050100123848          000000010000000000067440000000011560000000067440000000000000000000000001200
5400026995794400551  00681554050200131416          000000010000000000046950000000008050000000046950000000000000000000000001200
5400026995794400551  00681554050100142110          000000030000000000868240000000148760000000868240000000000000000000000001200
5400026995794400551  00681554050100151226          000000010000000000014510000000002490000000014510000000000000000000000001200
5400001596844558551  0068165405020001267           000000010000000000035370000000003630000000035370000000000000000000000001200
5400001596844558551  0068165405020002230           000000010000000000039000000000004000000000039000000000000000000000000001200
5400001596844558551  00681654050100031150          000000020000000000001810000000000190000000001810000000000000000000000001200
5400001596844558551  0068165405020004217           000000020000000000070750000000007250000000070750000000000000000000000001200
5400001596844558551  0068165405020005231           000000010000000000078000000000008000000000078000000000000000000000000001200
5400001596844558551  00681654050200061468          000000010000000000040820000000004180000000040820000000000000000000000001200
5400001596844558551  0068165405020007223           000000020000000000134250000000013750000000134250000000000000000000000001200
5400056435010587551  0068175405060001695           000000010000000000007000000000000000000000000000000000000000000000000001200
5400056435010587551  00681754050600021365          000000010000000000014000000000000000000000000000000000000000000000000001200
5400056435010587551  00681754050600032549          000000010000000000008000000000000000000000000000000000000000000000000001200
5400056435010587551  00681754050600041271          000000020000000000003000000000000000000000000000000000000000000000000001200
5400056435010587551  00681754050600051675          000000020000000000008000000000000000000000000000000000000000000000000001200
5400022560262568551  00681854050600012099          000000100000000000450000000000000000000000000000000000000000000000000001200
5400022560262568551  00681854050600025352          000000010000000000110000000000000000000000000000000000000000000000000001200
5400022560262568551  00681854050600032136          000000150000000000007500000000000000000000000000000000000000000000000001200
5400022560262568551  00681854050600041002          000000150000000000022500000000000000000000000000000000000000000000000001200
5400010209400420551  00681954050600012099          000000030000000000135000000000000000000000000000000000000000000000000001200
5400001255110511551  00682054050600016352          000000100000000000090000000000000000000000000000000000000000000000000001200
5400001255110511551  00682054050600024912          000000100000000000030000000000000000000000000000000000000000000000000001200
5400035812770506551  00682154050600013236          000000010000000000400000000000000000000000000000000000000000000000000001200
5400023868848487551  00682254050600012352          000000010000000001100000000000000000000000000000000000000000000000000001200
5409575708000226551  0068235405060001532           000000010000000000150000000000000000000000000000000000000000000000000001200
5409575708000226551  0068235405060002493           000000020000000000020000000000000000000000000000000000000000000000000001200
5400038864550410551  00682454050600016472          000000040000000000056000000000000000000000000000000000000000000000000001200
5400038864550410551  00682454050600026378          000000020000000000490000000000000000000000000000000000000000000000000001200
5403070664000115551  00682564040600011345          000000040000000000028000000000000000000000000000000000000000000000000001200
5400002024746403551  00682664040600015693          000000040000000000028000000000000000000000000000000000000000000000000001200
5400002024746403551  0068266404060002770           000000020000000000028000000000000000000000000000000000000000000000000001200
5458551243000289551  00682754050600012625          000000030000000000105000000000000000000000000000000000000000000000000001200
5458551243000289551  0068275405060002153           000000060000000000210000000000000000000000000000000000000000000000000001200
5458551243000440551  00682864040600015571          000000120000000000012000000000000000000000000000000000000000000000000001200
5458551243000440551  0068286404060002137           000000070000000000420000000000000000000000000000000000000000000000000001200
5488847686000363551  00682954050600013743          000000200000000000060000000000000000000000000000000000000000000000000001200
5488847686000363551  0068295405060002861           000000010000000000033000000000000000000000000000000000000000000000000001200
5488847686000363551  00682954050600035455          000000200000000000030000000000000000000000000000000000000000000000000001200
5488847686000363551  00682954050600045866          000000200000000000030000000000000000000000000000000000000000000000000001200
5488847686000363551  00682954050600055457          000000200000000000100000000000000000000000000000000000000000000000000001200
5400000043098983551  00683054050600016649          000000200000000001650000000000000000000000000000000000000000000000000001200
5400035895918468551  00683154050600016055          000000060000000000045000000000000000000000000000000000000000000000000001200
5400035895918468551  00683154050600021307          000000100000000000080000000000000000000000000000000000000000000000000001200
5400035895918468551  0068315405060003995           000000010000000000004000000000000000000000000000000000000000000000000001200
5400035895918468551  00683154050600041013          000000010000000000001000000000000000000000000000000000000000000000000001200
5400035895918468551  00683154050600051206          000000080000000000184000000000000000000000000000000000000000000000000001200
5400005334163883551  0068326404060001553           000000010000000000070000000000000000000000000000000000000000000000000001200
5409575708000226551  00683354050600015499          000000020000000000180000000000000000000000000000000000000000000000000001200
5400037752030520551  00683454050600012398          000000010000000000790000000000002000000000000000000000000000000000000001200
5418283249000117551  0068355405060001923           000000010000000000069310000000000690000000000000000000000000000000000001200
5418283249000117551  00683554050600023354          000000010000000000015840000000000160000000000000000000000000000000000001200
5418283249000117551  00683554050600031314          000000010000000000003960000000000040000000000000000000000000000000000001200
5418283249000117551  00683554050600043097          000000020000000000011880000000000120000000000000000000000000000000000001200
5418283249000117551  00683554050600053347          000000020000000000005940000000000060000000000000000000000000000000000001200
5418283249000117551  00683554050600066395          000000020000000000031690000000000310000000000000000000000000000000000001200
5418283249000117551  0068355405060007736           000000030000000000139610000000001390000000000000000000000000000000000001200
5418283249000117551  0068355405060008925           000000040000000000000790000000000010000000000000000000000000000000000001200
5418283249000117551  00683554050600091143          000000010000000000001980000000000020000000000000000000000000000000000001200
5488847686000363551  00683654050600011745          000000010000000000042000000000000000000000000000000000000000000000000001200
5488847686000363551  00683654050600023197          000000040000000000520000000000000000000000000000000000000000000000000001200
5488847686000363551  00683654050600036065          000000030000000000126000000000000000000000000000000000000000000000000001200
5400090943759587551  006837540506000172            000000020000000000030000000000000000000000000000000000000000000000000001200
5400003359301315551  00683864040600011086          000000010000000001040000000000000000000000000000000000000000000000000001200
5400003359301315551  00683864040600025045          000000010000000000010000000000000000000000000000000000000000000000000001200
5400022561781534551  0068395405060001582           000000010000000000007000000000000000000000000000000000000000000000000001200
5400022561781534551  0068395405060002448           000000020000000000100000000000000000000000000000000000000000000000000001200
5400022561781534551  00683954050600031875          000000010000000000012000000000000000000000000000000000000000000000000001200
5400022561781534551  0068395405060004322           000000020000000000220000000000000000000000000000000000000000000000000001200
5400022561781534551  00683954050600051143          000000030000000000006000000000000000000000000000000000000000000000000001200
5400022561781534551  00683954050600061430          000000010000000000012000000000000000000000000000000000000000000000000001200
5400022561781534551  00683954050600072318          000000020000000000020000000000000000000000000000000000000000000000000001200
5400022561781534551  00683954050600081669          000000020000000000008000000000000000000000000000000000000000000000000001200
5400022561781534551  00683954050600091334          000000010000000000006000000000000000000000000000000000000000000000000001200
5400022561781534551  0068395405060010641           000000010000000000002000000000000000000000000000000000000000000000000001200
5400022561781534551  0068395405060011686           000000010000000000016000000000000000000000000000000000000000000000000001200
5477310589000159551  00684064110100016652          000000040000000002971680000000000000000002980200000005806030000000000000700
5400004001048493551  00684164040600012099          000000040000000000180000000000000000000000000000000000000000000000000001200
5400000225356597551  00684254050600011292          000000010000000000003000000000000000000000000000000000000000000000000001200
5400000225356597551  00684254050600022792          000000010000000000347000000000000000000000000000000000000000000000000001200
5400000225356597551  00684354050600011355          000000030000000000585000000000000000000000000000000000000000000000000001200
5400000225356597551  00684454050600011190          000000010000000000080000000000000000000000000000000000000000000000000001200
5400097750670572551  0068455405060001695           000000020000000000016000000000000000000000000000000000000000000000000001200
5400097750670572551  0068455405060002840           000000010000000000084000000000000000000000000000000000000000000000000001200
5400097750670572551  00684554050600031059          000000050000000000020000000000000000000000000000000000000000000000000001200
5400097750670572551  0068455405060004837           000000010000000000110000000000000000000000000000000000000000000000000001200
5400065248040400551  0068465405060001868           000000010000000000004000000000000000000000000000000000000000000000000001200
5400065248040400551  0068465405060002215           000000010000000000016000000000000000000000000000000000000000000000000001200
5404740475000256551  00684754050600015568          000000060000000000006000000000000000000000000000000000000000000000000001200
5404740475000256551  00684754050600025592          000000020000000000036000000000000000000000000000000000000000000000000001200
5400022561781534551  0068481202060001582           000000010000000000007000000000000000000000000000000000000000000000000001200
5400022561781534551  00684812020600021875          000000010000000000012000000000000000000000000000000000000000000000000001200
5400022561781534551  0068481202060003322           000000020000000000220000000000000000000000000000000000000000000000000001200
5400022561781534551  00684812020600041143          000000030000000000006000000000000000000000000000000000000000000000000001200
5400022561781534551  00684812020600051430          000000010000000000012000000000000000000000000000000000000000000000000001200
5400022561781534551  00684812020600062318          000000020000000000020000000000000000000000000000000000000000000000000001200
5400022561781534551  00684812020600071669          000000020000000000008000000000000000000000000000000000000000000000000001200
5400022561781534551  00684812020600081334          000000010000000000006000000000000000000000000000000000000000000000000001200
5400022561781534551  0068481202060009641           000000010000000000002000000000000000000000000000000000000000000000000001200
5400022561781534551  0068481202060010686           000000010000000000016000000000000000000000000000000000000000000000000001200
5400022561781534551  0068481202060011448           000000020000000000100000000000000000000000000000000000000000000000000001200
5400022561781534551  0068495405060001686           000000010000000000014710000000001290000000000000000000000000000000000001200
5400022561781534551  00684954050600021143          000000030000000000005520000000000480000000000000000000000000000000000001200
5400022561781534551  0068495405060003322           000000020000000000220710000000019290000000000000000000000000000000000001200
5400022561781534551  00684954050600041875          000000010000000000011040000000000960000000000000000000000000000000000001200
5400022561781534551  0068495405060005582           000000010000000000006440000000000560000000000000000000000000000000000001200
5400022561781534551  0068495405060006641           000000010000000000001840000000000160000000000000000000000000000000000001200
5400022561781534551  00684954050600071334          000000010000000000005520000000000480000000000000000000000000000000000001200
5400022561781534551  00684954050600081669          000000020000000000007360000000000640000000000000000000000000000000000001200
5400022561781534551  00684954050600092318          000000020000000000018390000000001610000000000000000000000000000000000001200
5400022561781534551  00684954050600101431          000000010000000000017470000000001530000000000000000000000000000000000001200
5400000069464537551  00685054050600016379          000000010000000000230000000000000000000000000000000000000000000000000001200
5404740475000337551  00685164040600011073          000000030000000000096000000000000000000000000000000000000000000000000001200
5409575708000226551  00685254050600015499          000000020000000000180000000000000000000000000000000000000000000000000001200
5400002065823585551  00685354050600015816          000000010000000000200000000000017000000000000000000000000000000000000001200
5412786836000142551  00685464040600012325          000000010000000000260000000000000000000000000000000000000000000000000001200
5412786836000142551  00685464040600023851          000000030000000000540000000000000000000000000000000000000000000000000001200
5412786836000142551  0068546404060003623           000000020000000000008000000000000000000000000000000000000000000000000001200
5412786836000142551  00685464040600041234          000000010000000000090000000000000000000000000000000000000000000000000001200
5412786836000142551  0068546404060005769           000000020000000000020000000000000000000000000000000000000000000000000001200
5400003720910407551  00685564040600011080          000000010000000000215000000000000000000000000000000000000000000000000001200
5400003720910407551  0068566404060001963           000000040000000000044000000000000000000000000000000000000000000000000001200
5400020706111400551  00686364040600011682          000000010000000000042000000000000000000000000000000000000000000000000001200
5400020706111400551  00686364040600025066          000000010000000000200000000000000000000000000000000000000000000000000001200
5400020706111400551  00686364040600032997          000000010000000000228000000000000000000000000000000000000000000000000001200
5400004914035421551  00686464040600012389          000000010000000000008910000000001090000000000000000000000000000000000001200
5400004914035421551  00686464040600021123          000000010000000000416770000000051230000000000000000000000000000000000001200
5400004914035421551  0068646404060003154           000000010000000000036510000000004490000000000000000000000000000000000001200
5400004914035421551  00686464040600041537          000000010000000000010690000000001310000000000000000000000000000000000001200
5400004914035421551  0068646404060005140           000000010000000000080150000000009850000000000000000000000000000000000001200
5400004914035421551  00686464040600061128          000000020000000000048090000000005910000000000000000000000000000000000001200
5400004914035421551  00686464040600071129          000000010000000000003120000000000380000000000000000000000000000000000001200
5400004914035421551  00686464040600081130          000000050000000000001110000000000140000000000000000000000000000000000001200
5400004914035421551  00686464040600091028          000000010000000000018700000000002300000000000000000000000000000000000001200
5400004914035421551  00686464040600102136          000000050000000000002500000000000000000000000000000000000000000000000001200
5400004914035421551  00686464040600111002          000000050000000000009450000000000000000000000000000000000000000000000001200
5400099999999999551  0068655929041001467           000000010000000000040000000000000000000000000000000000000000000000000000000
5400099999999999551  0068661202041001467           000000010000000000040000000000000000000000000000000000000000000000000000000
5488847686000363551  006867540506000156            000000010000000000416000000000000000000000000000000000000000000000000001200
5488847686000363551  00686754050600025503          000000060000000000084000000000000000000000000000000000000000000000000001200
5400090943759587551  00686854050600013325          000000020000000000021070000000004930000000000000000000000000000000000001200
5400090943759587551  0068685405060002812           000000010000000000243110000000056890000000000000000000000000000000000001200
5400090943759587551  0068685405060003775           000000010000000000098870000000023130000000000000000000000000000000000001200
5400090943759587551  0068685405060004448           000000010000000000027550000000006450000000000000000000000000000000000001200
5400090943759587551  0068685405060005943           000000020000000000019450000000004550000000000000000000000000000000000001200
5400090943759587551  0068685405060006216           000000010000000000089950000000021050000000000000000000000000000000000001200
5400001539564533551  0068695405060001663           000000010000000000043060000000003940000000000000000000000000000000000001200
5400001539564533551  00686954050600021042          000000030000000000030000000000000000000000000000000000000000000000000001200
5400001539564533551  00686954050600032823          000000010000000000128240000000011760000000000000000000000000000000000001200
5400001539564533551  00686954050600041059          000000030000000000010990000000001010000000000000000000000000000000000001200
5400001539564533551  006869540506000554            000000010000000000082440000000007560000000000000000000000000000000000001200
5400001539564533551  0068695405060006713           000000020000000000000920000000000080000000000000000000000000000000000001200
5400001539564533551  0068695405060007760           000000020000000000001830000000000170000000000000000000000000000000000001200
5400001539564533551  00686954050600081060          000000010000000000002750000000000250000000000000000000000000000000000001200
5400001539564533551  00686954050600091678          000000070000000000009620000000000880000000000000000000000000000000000001200
5400001539564533551  0068695405060010746           000000070000000000006410000000000590000000000000000000000000000000000001200
5400001539564533551  00686954050600111174          000000010000000000013740000000001260000000000000000000000000000000000001200
5400018352634453551  0068705405060001207           000000010000000000051440000000006560000000000000000000000000000000000001200
5400018352634453551  0068705405060002471           000000010000000000048780000000006220000000000000000000000000000000000001200
5400018352634453551  00687054050600032867          000000010000000000080710000000010290000000000000000000000000000000000001200
5400018352634453551  006870540506000465            000000010000000000012420000000001580000000000000000000000000000000000001200
5400018352634453551  0068705405060005840           000000010000000000074500000000009500000000000000000000000000000000000001200
5400018352634453551  0068705405060006538           000000010000000000028380000000003620000000000000000000000000000000000001200
5400018352634453551  0068705405060007837           000000010000000000103770000000013230000000000000000000000000000000000001200
5400051924552515551  00687159290600015503          000000060000000000090000000000000000000000000000000000000000000000000000000
5400051924552515551  00687212020600015503          000000060000000000090000000000000000000000000000000000000000000000000000000
5400063628104572551  00687354050600011430          000000010000000000011930000000000070000000000000000000000000000000000001200
5400063628104572551  00687354050600026170          000000010000000000194820000000001180000000000000000000000000000000000001200
5400063628104572551  00687354050600033224          000000010000000000201770000000001230000000000000000000000000000000000001200
5400063628104572551  00687354050600041143          000000020000000000003980000000000020000000000000000000000000000000000001200
5469954626000133551  00687454050600012110          000000030000000001195910000000097090000000000000000000000000000000000001200
5469954626000133551  0068745405060002495           000000050000000000319090000000025910000000000000000000000000000000000001200
5404785526000266551  0068756404060001486           000000010000000000026000000000000000000000000000000000000000000000000001200
5400004001048493551  00687664040600012099          000000040000000000180000000000000000000000000000000000000000000000000001200
5400004001048493551  00687664040600021042          000000010000000000011000000000000000000000000000000000000000000000000001200
5400004001048493551  0068766404060003464           000000010000000000115000000000000000000000000000000000000000000000000001200
5400047051787420551  0068776404060001215           000000010000000000015560000000002440000000000000000000000000000000000001200
5400047051787420551  0068776404060002837           000000020000000000202310000000031690000000000000000000000000000000000001200
5400047051787420551  0068776404060003840           000000010000000000072620000000011380000000000000000000000000000000000001200
5400047051787420551  0068776404060004322           000000020000000000207510000000032490000000000000000000000000000000000001200
5400051924552515551  00687854050600011125          000000010000000000190000000000000000000000000000000000000000000000000001200
5400005334163883551  00687964040600011102          000000010000000000170000000000000000000000000000000000000000000000000001200
5412786836000142551  00688064040600016568          000000010000000000505000000000000000000000000000000000000000000000000001200
5400007864124534551  00688154050600012136          000000120000000000006000000000000000000000000000000000000000000000000001200
5400007864124534551  00688154050600021002          000000120000000000024000000000000000000000000000000000000000000000000001200
5400007864124534551  00688154050600032099          000000030000000000135000000000000000000000000000000000000000000000000001200
5400065248040400551  00688254050600011271          000000050000000000007500000000000000000000000000000000000000000000000001200
5400065248040400551  0068825405060002867           000000030000000000004500000000000000000000000000000000000000000000000001200
5400065248040400551  0068825405060003538           000000010000000000032000000000000000000000000000000000000000000000000001200
5400065248040400551  00688254050600043145          000000030000000000123000000000000000000000000000000000000000000000000001200
5400065248040400551  0068825405060005480           000000020000000000001200000000000000000000000000000000000000000000000001200
5400065248040400551  0068825405060006837           000000010000000000117000000000000000000000000000000000000000000000000001200
5400065248040400551  00688254050600072445          000000020000000000634000000000000000000000000000000000000000000000000001200
5400065248040400551  0068825405060008589           000000010000000000005000000000000000000000000000000000000000000000000001200
5400065248040400551  0068825405060009840           000000010000000000084000000000000000000000000000000000000000000000000001200
5400065248040400551  0068825405060010215           000000010000000000018000000000000000000000000000000000000000000000000001200
5400079202063400551  00688354050600013001          000000010000000000868270000000179730000000000000000000000000000000000001200
5400079202063400551  00688354050600023848          000000010000000000065450000000013550000000000000000000000000000000000001200
5400079202063400551  0068835405060003190           000000010000000000219550000000045450000000000000000000000000000000000001200
5400079202063400551  00688354050600046065          000000020000000000077880000000016120000000000000000000000000000000000001200
5400079202063400551  00688354050600055537          000000010000000000323120000000066880000000000000000000000000000000000001200
5400079202063400551  00688354050600064905          000000010000000000011600000000002400000000000000000000000000000000000001200
5400079202063400551  00688354050600071753          000000030000000000002490000000000510000000000000000000000000000000000001200
5400079202063400551  00688354050600081416          000000010000000000045570000000009430000000000000000000000000000000000001200
5400079202063400551  0068835405060009141           000000010000000000202980000000042020000000000000000000000000000000000001200
5400079202063400551  00688354050600101564          000000020000000000034800000000007200000000000000000000000000000000000001200
5400079202063400551  00688354050600111061          000000030000000000007460000000001540000000000000000000000000000000000001200
5400079202063400551  00688354050600122620          000000010000000000023200000000004800000000000000000000000000000000000001200
5400079202063400551  00688354050600131432          000000020000000000019880000000004120000000000000000000000000000000000001200
5400079202063400551  00688354050600142042          000000020000000000009940000000002060000000000000000000000000000000000001200
5400079202063400551  00688354050600152454          000000010000000000007460000000001540000000000000000000000000000000000001200
5400079202063400551  0068835405060016736           000000010000000000038940000000008060000000000000000000000000000000000001200
5400079202063400551  00688354050600171356          000000020000000000343000000000071000000000000000000000000000000000000001200
5400079202063400551  00688354050600182730          000000020000000000000830000000000170000000000000000000000000000000000001200
5400079202063400551  00688354050600194120          000000040000000000001660000000000340000000000000000000000000000000000001200
5400079202063400551  00688354050600201042          000000040000000000036450000000007550000000000000000000000000000000000001200
5400079202063400551  00688354050600211556          000000010000000000002490000000000510000000000000000000000000000000000001200
5400079202063400551  00688354050600221565          000000010000000000019880000000004120000000000000000000000000000000000001200
5400079202063400551  00688354050600235688          000000020000000000004970000000001030000000000000000000000000000000000001200
5400079202063400551  0068835405060024660           000000040000000000003310000000000690000000000000000000000000000000000001200
5400079202063400551  00688354050600251558          000000010000000000029000000000006000000000000000000000000000000000000001200
5400079202063400551  00688354050600265949          000000020000000000014910000000003090000000000000000000000000000000000001200
5400079202063400551  00688354050600271980          000000020000000000235290000000048710000000000000000000000000000000000001200
5400079202063400551  00688354050600281430          000000020000000000019880000000004120000000000000000000000000000000000001200
5400079202063400551  0068835405060029215           000000010000000000014910000000003090000000000000000000000000000000000001200
5400079202063400551  0068835405060030498           000000010000000000050540000000010460000000000000000000000000000000000001200
5400079202063400551  00688354050600311251          000000200000000000016570000000003430000000000000000000000000000000000001200
5400079202063400551  00688354050600321143          000000100000000000016570000000003430000000000000000000000000000000000001200
5400079202063400551  0068835405060033695           000000020000000000013260000000002740000000000000000000000000000000000001200
5400079202063400551  0068835405060034795           000000020000000000002490000000000510000000000000000000000000000000000001200
5400079202063400551  00688354050600352820          000000040000000000006630000000001370000000000000000000000000000000000001200
5400079202063400551  00688354050600366377          000000020000000000137530000000028470000000000000000000000000000000000001200
5400079202063400551  00688354050600372015          000000120000000000864950000000179050000000000000000000000000000000000001200
5400079202063400551  00688354050600381200          000000010000000000318970000000066030000000000000000000000000000000000001200
5400079202063400551  00688354050600391199          000000010000000001695110000000350890000000000000000000000000000000000001200
5400079202063400551  0068835405060040745           000000050000000000215410000000044590000000000000000000000000000000000001200
5400079202063400551  00688354050600416200          000000010000000000612260000000126740000000000000000000000000000000000001200
5400079202063400551  00688354050600425749          000000010000000000291630000000060370000000000000000000000000000000000001200
5400079202063400551  00688354050600432178          000000040000000000006630000000001370000000000000000000000000000000000001200
5400079202063400551  00688354050600442179          000000040000000000006630000000001370000000000000000000000000000000000001200
5400079202063400551  00688354050600451415          000000040000000000016570000000003430000000000000000000000000000000000001200
5400079202063400551  00688354050600465601          000000030000000000037280000000007720000000000000000000000000000000000001200
5400079202063400551  00688354050600473630          000000010000000000002490000000000510000000000000000000000000000000000001200
5400079202063400551  00688354050600481220          000000010000000000003310000000000690000000000000000000000000000000000001200
5400031238831400551  00688464040600015353          000000010000000000930000000000000000000000000000000000000000000000000001200
5400066656583504551  00688554050600013800          000000010000000000038000000000000000000000000000000000000000000000000001200
5400066656583504551  00688554050600022145          000000060000000000300000000000000000000000000000000000000000000000000001200
5400066656583504551  00688554050600031753          000000100000000000010000000000000000000000000000000000000000000000000001200
5400066656583504551  00688554050600046027          000000010000000000042000000000000000000000000000000000000000000000000001200
5400066656583504551  00688554050600053644          000000010000000000027000000000000000000000000000000000000000000000000001200
5400066656583504551  006885540506000668            000000030000000000063000000000000000000000000000000000000000000000000001200
5400066656583504551  006885540506000755            000000100000000000520000000000000000000000000000000000000000000000000001200
5400097719838572551  00688654050600011251          000000030000000000003000000000000000000000000000000000000000000000000001200
5400003571344430551  00688754050600011652          000000010000000000073450000000000550000000000000000000000000000000000001200
5400003571344430551  00688754050600023922          000000020000000000047610000000000390000000000000000000000000000000000001200
5400003571344430551  00688754050600034944          000000010000000000000150000000000000000000000000000000000000000000000001200
5400003571344430551  00688754050600041143          000000010000000000001990000000000010000000000000000000000000000000000001200
5400003571344430551  0068875405060005225           000000010000000000059550000000000450000000000000000000000000000000000001200
5400003571344430551  00688754050600066192          000000020000000000019850000000000150000000000000000000000000000000000001200
5400003571344430551  00688754050600072821          000000010000000000001990000000000010000000000000000000000000000000000001200
5400003571344430551  00688754050600082983          000000010000000000003470000000000030000000000000000000000000000000000001200
5400003571344430551  00688754050600093648          000000010000000000005960000000000040000000000000000000000000000000000001200
5400003571344430551  00688754050600101639          000000010000000000239200000000001800000000000000000000000000000000000001200
5400003571344430551  00688754050600111150          000000020000000000001990000000000010000000000000000000000000000000000001200
5400003571344430551  0068875405060012231           000000010000000000085360000000000640000000000000000000000000000000000001200
5400003571344430551  0068875405060013223           000000010000000000050620000000000380000000000000000000000000000000000001200
5400003571344430551  0068875405060014267           000000010000000000038710000000000290000000000000000000000000000000000001200
5400003571344430551  0068875405060015217           000000020000000000077420000000000580000000000000000000000000000000000001200
5400003571344430551  0068875405060016230           000000010000000000042680000000000320000000000000000000000000000000000001200
5400004161198400551  00688854050600013145          000000020000000000082000000000000000000000000000000000000000000000000001200
5400004161198400551  00688854050600021143          000000010000000000002000000000000000000000000000000000000000000000000001200
5400004161198400551  00688854050600036292          000000010000000000035000000000000000000000000000000000000000000000000001200
5400004161198400551  0068885405060004215           000000010000000000018000000000000000000000000000000000000000000000000001200
5400004161198400551  0068885405060005811           000000010000000000011000000000000000000000000000000000000000000000000001200
5400004161198400551  00688854050600062800          000000020000000000028000000000000000000000000000000000000000000000000001200
5400004161198400551  00688854050600073189          000000010000000000014000000000000000000000000000000000000000000000000001200
5400005211191463551  006891692906000182            000000020000000000300000000000000000000000000000000000000000000000000000000
5400005211191463551  00689169290600025352          000000040000000000312000000000000000000000000000000000000000000000000000000
5400005211191463551  00689222020600015352          000000040000000000312000000000000000000000000000000000000000000000000000000
5400005211191463551  006892220206000282            000000020000000000300000000000000000000000000000000000000000000000000000000
5400097061140500551  00689354050600011694          000000020000000000030000000000000000000000000000000000000000000000000001200
5477310589000159551  00689421020100016652          000000040000000002971680000000000000000002980200000005806030000000000000700
5477310589000159551  00689562020100016652          000000040000000002971680000000000000000002980200000000000000000000000000700
5400098995952849551  00689954050600011537          000000030000000000036000000000000000000000000000000000000000000000000001200
5400098995952849551  00689954050600021028          000000040000000000084000000000000000000000000000000000000000000000000001200
5400098995952849551  00689954050600031118          000000060000000000798000000000000000000000000000000000000000000000000001200
5400098995952849551  00689954050600041117          000000020000000000192000000000000000000000000000000000000000000000000001200
5400098995952849551  00689954050600051128          000000030000000000081000000000000000000000000000000000000000000000000001200
5400098995952849551  00689954050600061112          000000060000000000258000000000000000000000000000000000000000000000000001200
5400098995952849551  00689954050600071130          000000060000000000001500000000000000000000000000000000000000000000000001200
5400098995952849551  00689954050600081129          000000030000000000010500000000000000000000000000000000000000000000000001200
5400098995952849551  0068995405060009131           000000010000000000065000000000000000000000000000000000000000000000000001200
5400098995952849551  0068995405060010143           000000010000000000056000000000000000000000000000000000000000000000000001200
5400098995952849551  00689954050600111029          000000010000000000015000000000000000000000000000000000000000000000000001200
5400098995952849551  00689954050600122391          000000030000000000007500000000000000000000000000000000000000000000000001200
5400098995952849551  0068995405060013154           000000010000000000041000000000000000000000000000000000000000000000000001200
5400098995952849551  0068995405060014140           000000030000000000342000000000000000000000000000000000000000000000000001200
5400066335027100551  00690054050600016688          000000010000000001800000000000000000000000000000000000000000000000000001200
5400010072055472551  00690154050600011073          000000010000000000031810000000003190000000000000000000000000000000000001200
5400010072055472551  00690154050600021029          000000010000000000013640000000001360000000000000000000000000000000000001200
5400010072055472551  00690154050600031071          000000010000000000044550000000004450000000000000000000000000000000000001200
5400065248040400551  00690212020600012445          000000020000000000634000000000000000000000000000000000000000000000000001200
5400018352634453551  00690354050600011125          000000010000000000190000000000000000000000000000000000000000000000000001200
5400018352634453551  00690354050600021042          000000020000000000020000000000000000000000000000000000000000000000000001200
5400018352634453551  0069035405060003464           000000020000000000230000000000000000000000000000000000000000000000000001200
5400051924552515551  00690454050600011002          000000080000000000016000000000000000000000000000000000000000000000000001200
5400051924552515551  00690454050600022136          000000080000000000004000000000000000000000000000000000000000000000000001200
5400051924552515551  00690454050600031104          000000020000000000280000000000000000000000000000000000000000000000000001200
5400001853307548551  00690554050600012800          000000120000000000180000000000000000000000000000000000000000000000000001200
5400001853307548551  0069055405060002840           000000010000000000084000000000000000000000000000000000000000000000000001200
5400001853307548551  0069055405060003837           000000010000000000117000000000000000000000000000000000000000000000000001200
5400034737570559551  0069065405060001102           000000010000000000124000000000000000000000000000000000000000000000000001200
5400034737570559551  00690654050600021767          000000010000000000015000000000000000000000000000000000000000000000000001200
5400034737570559551  0069065405060003681           000000010000000000033000000000000000000000000000000000000000000000000001200
5400034737570559551  0069065405060004804           000000010000000000348000000000000000000000000000000000000000000000000001200
5400017325552491551  00690754050600016697          000000010000000114000000000000000000000000000000000000000000000000000001200
5400017325552491551  00690954050600016696          000000010000000098000000000000000000000000000000000000000000000000000001200
5400017325552491551  00691054050600016697          000000010000000114000000000000000000000000000000000000000000000000000001200
5400017325552491551  00691154050600016696          000000010000000098000000000000000000000000000000000000000000000000000001200
5400017325552491551  00691254050600016696          000000010000000098000000000000000000000000000000000000000000000000000001200
5400091108918549551  00691354050600014944          000000020000000000000270000000000030000000000000000000000000000000000001200
5400091108918549551  00691354050600024337          000000020000000000000890000000000110000000000000000000000000000000000001200
5400091108918549551  00691354050600032800          000000020000000000024960000000003040000000000000000000000000000000000001200
5400091108918549551  00691354050600042137          000000020000000000002670000000000330000000000000000000000000000000000001200
5400091108918549551  00691354050600052136          000000110000000000004900000000000600000000000000000000000000000000000001200
5400091108918549551  00691354050600062099          000000030000000000120330000000014670000000000000000000000000000000000001200
5400091108918549551  00691354050600071430          000000010000000000010700000000001300000000000000000000000000000000000001200
5400091108918549551  00691354050600081004          000000040000000000007130000000000870000000000000000000000000000000000001200
5400091108918549551  0069135405060009958           000000010000000000016940000000002060000000000000000000000000000000000001200
5400091108918549551  0069135405060010959           000000010000000000016940000000002060000000000000000000000000000000000001200
5400091108918549551  00691354050600111123          000000010000000000417150000000050850000000000000000000000000000000000001200
5400091108918549551  00691354050600121028          000000010000000000018720000000002280000000000000000000000000000000000001200
5400091108918549551  0069135405060013140           000000020000000000203230000000024770000000000000000000000000000000000001200
5400091108918549551  00691354050600146159          000000030000000000040110000000004890000000000000000000000000000000000001200
5400091108918549551  00691354050600152821          000000020000000000003570000000000430000000000000000000000000000000000001200
5400091108918549551  00691354050600161409          000000020000000000005350000000000650000000000000000000000000000000000001200
5400091108918549551  00691354050600171128          000000010000000000024050000000002950000000000000000000000000000000000001200
5400091108918549551  00691354050600186611          000000040000000000032090000000003910000000000000000000000000000000000001200
5469954626000133551  00691454050600011143          000000020000000000004000000000000000000000000000000000000000000000000001200
5469954626000133551  00691454050600022171          000000010000000000016000000000000000000000000000000000000000000000000001200
5469954626000133551  00691454050600033217          000000010000000000014000000000000000000000000000000000000000000000000001200
5469954626000133551  0069145405060004802           000000010000000000021000000000000000000000000000000000000000000000000001200
5469954626000133551  00691454050600051978          000000010000000000534000000000000000000000000000000000000000000000000001200
5469954626000133551  006914540506000670            000000010000000000319000000000000000000000000000000000000000000000000001200
5469954626000133551  00691554050600012312          000000020000000000030000000000000000000000000000000000000000000000000001200
5469954626000133551  0069155405060002690           000000010000000000001000000000000000000000000000000000000000000000000001200
5469954626000133551  00691554050600031174          000000010000000000015000000000000000000000000000000000000000000000000001200
5469954626000133551  0069155405060004465           000000020000000000306000000000000000000000000000000000000000000000000001200
5400009296050553551  00691654050600011002          000000150000000000030000000000000000000000000000000000000000000000000001200
5400009296050553551  00691654050600022136          000000150000000000007500000000000000000000000000000000000000000000000001200
5400009296050553551  00691654050600031094          000000010000000000033000000000000000000000000000000000000000000000000001200
5400009296050553551  00691654050600041547          000000020000000000042000000000000000000000000000000000000000000000000001200
5400009296050553551  00691654050600051356          000000030000000000585000000000000000000000000000000000000000000000000001200
5400040162460597551  0069175405060001840           000000010000000000077490000000006510000000000000000000000000000000000001200
5400040162460597551  00691754050600023145          000000030000000000113460000000009540000000000000000000000000000000000001200
5400040162460597551  0069175405060003538           000000010000000000029520000000002480000000000000000000000000000000000001200
5400040162460597551  0069175405060004215           000000010000000000016600000000001400000000000000000000000000000000000001200
5400040162460597551  0069175405060005837           000000010000000000107930000000009070000000000000000000000000000000000001200
5400096190507549551  00691854050600011129          000000010000000000003000000000000000000000000000000000000000000000000001200
5400096190507549551  00691854050600021130          000000020000000000000500000000000000000000000000000000000000000000000001200
5400096190507549551  00691854050600031128          000000010000000000026500000000000000000000000000000000000000000000000001200
5400094700702591551  00691954050600016195          000000120000000000072000000000000000000000000000000000000000000000000001200
5400094700702591551  00691954050600023184          000000040000000000072000000000000000000000000000000000000000000000000001200
5400094700702591551  00691954050600034969          000000010000000000986000000000000000000000000000000000000000000000000001200
5400001593417527551  00692054050600015161          000000010000000000110000000000000000000000000000000000000000000000000001200
5400065248040400551  0069215405060001829           000000010000000000003000000000000000000000000000000000000000000000000001200
5400065248040400551  00692154050600021029          000000010000000000015000000000000000000000000000000000000000000000000001200
5400066656583504551  00692264040600011880          000000020000000000368020000000019980000000000000000000000000000000000001200
5400066656583504551  00692264040600021862          000000010000000000167890000000009110000000000000000000000000000000000001200
5400066656583504551  00692264040600031225          000000010000000000003790000000000210000000000000000000000000000000000001200
5400066656583504551  00692264040600045962          000000010000000000104340000000005660000000000000000000000000000000000001200
5400066656583504551  00692264040600056197          000000010000000000010430000000000570000000000000000000000000000000000001200
5400066656583504551  00692264040600061626          000000010000000000045530000000002470000000000000000000000000000000000001200
5400056392362568551  00692354050600012136          000000160000000000008000000000000000000000000000000000000000000000000001200
5400056392362568551  00692354050600021004          000000060000000000012000000000000000000000000000000000000000000000000001200
5400056392362568551  00692354050600032099          000000020000000000098000000000000000000000000000000000000000000000000001200
5400056392362568551  00692354050600041002          000000100000000000020000000000000000000000000000000000000000000000000001200
5413133227000157551  00692454050600011271          000000040000000000006000000000000000000000000000000000000000000000000001200
5413133227000157551  00692454050600021112          000000010000000000043000000000000000000000000000000000000000000000000001200
5413133227000157551  00692454050600031113          000000010000000000823000000000000000000000000000000000000000000000000001200
5413133227000157551  00692454050600041533          000000010000000000024000000000000000000000000000000000000000000000000001200
5400048346640749551  00692564040600011192          000000020000000000026000000000000000000000000000000000000000000000000001200
5400050371983568551  00692654050600012132          000000010000000000020000000000000000000000000000000000000000000000000001200
5400050371983568551  00692654050600023147          000000010000000000046000000000000000000000000000000000000000000000000001200
5400050371983568551  0069265405060003217           000000010000000000039000000000000000000000000000000000000000000000000001200
5400050371983568551  00692654050600042133          000000010000000000020000000000000000000000000000000000000000000000000001200
5488847686000363551  00692754050600016159          000000030000000000042670000000002330000000000000000000000000000000000001200
5488847686000363551  00692754050600021221          000000010000000000058790000000003210000000000000000000000000000000000001200
5488847686000363551  00692754050600031642          000000010000000000000190000000000010000000000000000000000000000000000001200
5488847686000363551  00692754050600042433          000000100000000000002370000000000130000000000000000000000000000000000001200
5488847686000363551  00692754050600056655          000000010000000000000470000000000030000000000000000000000000000000000001200
5488847686000363551  00692754050600066502          000000010000000000021810000000001190000000000000000000000000000000000001200
5488847686000363551  00692754050600071901          000000040000000000208590000000011410000000000000000000000000000000000001200
5488847686000363551  00692754050600081222          000000010000000000079640000000004360000000000000000000000000000000000001200
5488847686000363551  00692754050600091235          000000010000000000034130000000001870000000000000000000000000000000000001200
5488847686000363551  0069275405060010557           000000040000000000034130000000001870000000000000000000000000000000000001200
5488847686000363551  00692754050600116653          000000010000000000000470000000000030000000000000000000000000000000000001200
5488847686000363551  0069275405060012773           000000080000000000007590000000000410000000000000000000000000000000000001200
5488847686000363551  00692754050600131230          000000010000000000070160000000003840000000000000000000000000000000000001200
5488847686000363551  00692754050600146285          000000010000000000258850000000014150000000000000000000000000000000000001200
5488847686000363551  00692754050600151633          000000010000000000012330000000000670000000000000000000000000000000000001200
5488847686000363551  0069275405060016794           000000010000000000000950000000000050000000000000000000000000000000000001200
5488847686000363551  00692754050600176654          000000010000000000000470000000000030000000000000000000000000000000000001200
5488847686000363551  00692754050600181460          000000010000000000010430000000000570000000000000000000000000000000000001200
5488847686000363551  00692754050600193630          000000020000000000005690000000000310000000000000000000000000000000000001200
5488847686000363551  00692754050600201143          000000060000000000011380000000000620000000000000000000000000000000000001200
5488847686000363551  00692754050600215749          000000010000000000333750000000018250000000000000000000000000000000000001200
5488847686000363551  0069275405060022474           000000030000000000002840000000000160000000000000000000000000000000000001200
5488847686000363551  00692754050600231222          000000010000000000079640000000004360000000000000000000000000000000000001200
5488847686000363551  00692754050600241211          000000010000000000587850000000032150000000000000000000000000000000000001200
5488847686000363551  00692754050600251649          000000010000000000051200000000002800000000000000000000000000000000000001200
5488847686000363551  00692754050600262820          000000010000000000001900000000000100000000000000000000000000000000000001200
5488847686000363551  00692754050600272510          000000010000000000000520000000000030000000000000000000000000000000000001200
5488847686000363551  00692754050600281221          000000010000000000058790000000003210000000000000000000000000000000000001200
5488847686000363551  00692754050600296651          000000010000000000004740000000000260000000000000000000000000000000000001200
5488847686000363551  00692754050600306651          000000010000000000004740000000000260000000000000000000000000000000000001200
5488847686000363551  00692754050600311903          000000010000000000026550000000001450000000000000000000000000000000000001200
5488847686000363551  00692754050600325537          000000010000000000383050000000020950000000000000000000000000000000000001200
5488847686000363551  00692754050600331230          000000010000000000070160000000003840000000000000000000000000000000000001200
5488847686000363551  00692754050600346159          000000040000000000056890000000003110000000000000000000000000000000000001200
5488847686000363551  00692754050600351861          000000090000000000486400000000026600000000000000000000000000000000000001200
5488847686000363551  00692754050600361903          000000010000000000026550000000001450000000000000000000000000000000000001200
5488847686000363551  00692754050600371230          000000010000000000070160000000003840000000000000000000000000000000000001200
5488847686000363551  00692754050600381633          000000010000000000012330000000000670000000000000000000000000000000000001200
5488847686000363551  0069275405060039745           000000010000000000049300000000002700000000000000000000000000000000000001200
5488847686000363551  00692754050600406676          000000010000000000456060000000024940000000000000000000000000000000000001200
5488847686000363551  00692754050600414000          000000030000000002645340000000144660000000000000000000000000000000000001200
5488847686000363551  00692754050600421112          000000020000000000081540000000004460000000000000000000000000000000000001200
5488847686000363551  00692754050600433791          000000010000000000073010000000003990000000000000000000000000000000000001200
5488847686000363551  00692754050600446652          000000020000000001867870000000102130000000000000000000000000000000000001200
5488847686000363551  00692754050600455503          000000060000000000079640000000004360000000000000000000000000000000000001200
5488847686000363551  0069275405060046769           000000010000000000010430000000000570000000000000000000000000000000000001200
5488847686000363551  00692754050600476651          000000010000000000004740000000000260000000000000000000000000000000000001200
5488847686000363551  00692754050600481630          000000010000000000000570000000000030000000000000000000000000000000000001200
5488847686000363551  00692754050600491633          000000010000000000012330000000000670000000000000000000000000000000000001200
5400098517260520551  0069285405060001396           000000010000000000157110000000005890000000000000000000000000000000000001200
5400098517260520551  0069285405060002416           000000010000000000000960000000000040000000000000000000000000000000000001200
5400098517260520551  00692854050600031143          000000010000000000001930000000000070000000000000000000000000000000000001200
5400075058367068551  00692954050600013591          000000010000000000286870000000016130000000000000000000000000000000000001200
5400075058367068551  0069295405060002329           000000040000000000200720000000011280000000000000000000000000000000000001200
5400075058367068551  00692954050600032111          000000090000000000017040000000000960000000000000000000000000000000000001200
5400075058367068551  00692954050600041222          000000010000000000079530000000004470000000000000000000000000000000000001200
5400075058367068551  00692954050600051143          000000020000000000003790000000000210000000000000000000000000000000000001200
5400075058367068551  00692954050600063146          000000010000000000262260000000014740000000000000000000000000000000000001200
5400075058367068551  00692954050600071143          000000020000000000003790000000000210000000000000000000000000000000000001200
5400075058367068551  00692954050600082515          000000010000000000006630000000000370000000000000000000000000000000000001200
5400075058367068551  00692954050600096633          000000020000000000333260000000018740000000000000000000000000000000000001200
5400075058367068551  00692954050600106634          000000010000000000100360000000005640000000000000000000000000000000000001200
5400075058367068551  00692954050600111978          000000010000000000505580000000028420000000000000000000000000000000000001200
5400075058367068551  00692954050600122024          000000010000000000189350000000010650000000000000000000000000000000000001200
5400075058367068551  00692954050600133638          000000010000000000121190000000006810000000000000000000000000000000000001200
5400075058367068551  00692954050600142936          000000010000000000172310000000009690000000000000000000000000000000000001200
5400075058367068551  0069295405060015760           000000060000000000005680000000000320000000000000000000000000000000000001200
5400075058367068551  0069295405060016799           000000060000000000028400000000001600000000000000000000000000000000000001200
5400075058367068551  006929540506001770            000000010000000000302020000000016980000000000000000000000000000000000001200
5400075058367068551  00692954050600183147          000000030000000000130650000000007350000000000000000000000000000000000001200
5400075058367068551  00692954050600193636          000000010000000000157160000000008840000000000000000000000000000000000001200
5400075058367068551  0069295405060020101           000000010000000000014200000000000800000000000000000000000000000000000001200
5400075058367068551  00692954050600211226          000000010000000000016100000000000900000000000000000000000000000000000001200
5400075058367068551  00692954050600222547          000000010000000000173260000000009740000000000000000000000000000000000001200
5400075058367068551  00692954050600231209          000000010000000000003790000000000210000000000000000000000000000000000001200
5400075058367068551  00692954050600242610          000000010000000000460130000000025870000000000000000000000000000000000001200
5400075058367068551  00692954050600251365          000000020000000000026510000000001490000000000000000000000000000000000001200
5400075058367068551  00692954050600262260          000000010000000000006630000000000370000000000000000000000000000000000001200
5400075058367068551  00692954050600271203          000000010000000000008520000000000480000000000000000000000000000000000001200
5400075058367068551  00692954050600285029          000000010000000000066270000000003730000000000000000000000000000000000001200
5400075058367068551  00692954050600295008          000000020000000000009470000000000530000000000000000000000000000000000001200
5400075058367068551  00692954050600301940          000000010000000000099410000000005590000000000000000000000000000000000001200
5400075058367068551  0069295405060031237           000000010000000000007570000000000430000000000000000000000000000000000001200
5400075058367068551  0069295405060032867           000000010000000000001420000000000080000000000000000000000000000000000001200
5400075058367068551  0069295405060033259           000000010000000000005680000000000320000000000000000000000000000000000001200
5400075058367068551  00692954050600341941          000000010000000000063430000000003570000000000000000000000000000000000001200
5400075058367068551  0069295405060035322           000000020000000000227230000000012770000000000000000000000000000000000001200
5400075058367068551  0069295405060036713           000000020000000000000950000000000050000000000000000000000000000000000001200
5400075058367068551  0069295405060037668           000000060000000000002840000000000160000000000000000000000000000000000001200
5400020706111400551  00693064040600011682          000000010000000000045000000000000000000000000000000000000000000000000001200
5400031238831400551  0069316404060001472           000000020000000000001290000000000010000000000000000000000000000000000001200
5400031238831400551  0069316404060002852           000000020000000000023780000000000220000000000000000000000000000000000001200
5400031238831400551  0069316404060003375           000000010000000000108970000000001030000000000000000000000000000000000001200
5400031238831400551  00693164040600041441          000000010000000000861860000000008140000000000000000000000000000000000001200
5400031238831400551  00693164040600051312          000000020000000001684100000000015900000000000000000000000000000000000001200
5400001593417527551  00693254050600011029          000000010000000000014340000000000660000000000000000000000000000000000001200
5400001593417527551  0069325405060002143           000000010000000000053530000000002470000000000000000000000000000000000001200
5400001593417527551  0069325405060003131           000000010000000000062130000000002870000000000000000000000000000000000001200
5400003043233492551  00693354050600014724          000000010000000000024220000000001780000000000000000000000000000000000001200
5400003043233492551  00693354050600023788          000000010000000000098740000000007260000000000000000000000000000000000001200
5400003043233492551  00693354050600031975          000000020000000000054030000000003970000000000000000000000000000000000001200
5400003043233492551  00693354050600041059          000000010000000000003730000000000270000000000000000000000000000000000001200
5400003043233492551  00693354050600051058          000000020000000000024220000000001780000000000000000000000000000000000001200
5400003043233492551  00693354050600061059          000000020000000000007450000000000550000000000000000000000000000000000001200
5400003043233492551  00693354050600073714          000000010000000000136010000000009990000000000000000000000000000000000001200
5400003043233492551  00693354050600081878          000000010000000000041920000000003080000000000000000000000000000000000001200
5400003043233492551  00693354050600091033          000000010000000000009290000000000710000000000000000000000000000000000001200
5400003043233492551  00693354050600101024          000000010000000000025150000000001850000000000000000000000000000000000001200
5400003043233492551  00693354050600111240          000000010000000000172340000000012660000000000000000000000000000000000001200
5400003043233492551  0069335405060012538           000000010000000000029810000000002190000000000000000000000000000000000001200
5400003043233492551  0069335405060013837           000000010000000000122030000000008970000000000000000000000000000000000001200
5400003043233492551  0069335405060014840           000000010000000000078250000000005750000000000000000000000000000000000001200
5400003043233492551  00693354050600156175          000000010000000000015840000000001160000000000000000000000000000000000001200
5400003043233492551  00693354050600162800          000000070000000000091290000000006710000000000000000000000000000000000001200
5400003043233492551  0069335405060017180           000000020000000000536570000000039430000000000000000000000000000000000001200
5400003043233492551  0069335405060018183           000000010000000000077320000000005680000000000000000000000000000000000001200
5400003043233492551  0069335405060019966           000000010000000000075460000000005540000000000000000000000000000000000001200
5400003043233492551  0069335405060020967           000000030000000000061480000000004520000000000000000000000000000000000001200
5400003043233492551  00693354050600211143          000000020000000000003730000000000270000000000000000000000000000000000001200
5400003043233492551  00693354050600221606          000000010000000000015840000000001160000000000000000000000000000000000001200
5400003043233492551  00693354050600232042          000000040000000000022360000000001640000000000000000000000000000000000001200
5400003043233492551  00693354050600241779          000000020000000000061480000000004520000000000000000000000000000000000001200
5400003043233492551  0069335405060025844           000000010000000000045650000000003350000000000000000000000000000000000001200
5400003043233492551  00693354050600261424          000000020000000000009320000000000680000000000000000000000000000000000001200
5400003043233492551  00693354050600271429          000000020000000000012110000000000890000000000000000000000000000000000001200
5400003043233492551  0069335405060028758           000000040000000000007450000000000550000000000000000000000000000000000001200
5400003043233492551  00693354050600293534          000000040000000000003730000000000270000000000000000000000000000000000001200
5400003043233492551  00693354050600301143          000000010000000000001860000000000140000000000000000000000000000000000001200
5400003043233492551  00693354050600316593          000000010000000000032600000000002400000000000000000000000000000000000001200
5400003043233492551  00693354050600321879          000000010000000000636250000000046750000000000000000000000000000000000001200
5400003043233492551  00693354050600331143          000000020000000000003730000000000270000000000000000000000000000000000001200
5400003043233492551  00693354050600345813          000000010000000000137870000000010130000000000000000000000000000000000001200
5400003043233492551  00693354050600352771          000000010000000000010250000000000750000000000000000000000000000000000001200
5400003043233492551  00693354050600362562          000000020000000000000930000000000070000000000000000000000000000000000001200
5400003043233492551  00693354050600371269          000000010000000000026080000000001920000000000000000000000000000000000001200
5400003043233492551  0069335405060038589           000000010000000000004660000000000340000000000000000000000000000000000001200
5400003043233492551  0069335405060039744           000000010000000000000470000000000030000000000000000000000000000000000001200
5400003043233492551  00693354050600402884          000000010000000000002790000000000210000000000000000000000000000000000001200
5400003043233492551  00693354050600414588          000000040000000000003730000000000270000000000000000000000000000000000001200
5400003043233492551  00693354050600421018          000000080000000000001860000000000140000000000000000000000000000000000001200
5400003043233492551  0069335405060043890           000000060000000000027950000000002050000000000000000000000000000000000001200
5400003043233492551  00693354050600444223          000000010000000000040060000000002940000000000000000000000000000000000001200
5400003043233492551  00693354050600452983          000000010000000000003260000000000240000000000000000000000000000000000001200
5400003043233492551  00693354050600462821          000000010000000000001860000000000140000000000000000000000000000000000001200
5400003043233492551  00693354050600474944          000000010000000000000140000000000010000000000000000000000000000000000001200
5400003043233492551  00693354050600484667          000000010000000000000280000000000020000000000000000000000000000000000001200
5400003043233492551  0069335405060049598           000000010000000000002790000000000210000000000000000000000000000000000001200
5400003043233492551  00693354050600501251          000000120000000000011180000000000820000000000000000000000000000000000001200
5400003043233492551  00693354050600511603          000000010000000000086630000000006370000000000000000000000000000000000001200
5400003043233492551  00693354050600524725          000000010000000000016770000000001230000000000000000000000000000000000001200
5400003043233492551  00693354050600533517          000000010000000000079180000000005820000000000000000000000000000000000001200
5400037752030520551  00693454050600012610          000000010000000000486000000000000000000000000000000000000000000000000001200
5400037752030520551  00693454050600021143          000000020000000000004000000000000000000000000000000000000000000000000001200
5400037752030520551  00693454050600033236          000000010000000000401000000000000000000000000000000000000000000000000001200
5400037752030520551  006934540506000470            000000010000000000319000000000000000000000000000000000000000000000000001200
5400037752030520551  00693454050600056195          000000120000000000072000000000000000000000000000000000000000000000000001200
5400059260742587551  0069365405060001657           000000010000000000155830000000014170000000000000000000000000000000000001200
5400059260742587551  00693654050600024912          000000200000000000055000000000005000000000000000000000000000000000000001200
5400059260742587551  00693654050600036352          000000220000000000181500000000016500000000000000000000000000000000000001200
5400059260742587551  00693654050600041125          000000010000000000190000000000000000000000000000000000000000000000000001200
5400059260742587551  00693654050600051206          000000020000000000047670000000004330000000000000000000000000000000000001200
5400099999999999551  00693959290410011915          000000010000000000130000000000000000000000000000000000000000000000000000000
5400099999999999551  00694012020410011915          000000010000000000130000000000000000000000000000000000000000000000000000000
5409575708000226551  00694154050600015821          000000010000000000130000000000000000000000000000000000000000000000000001200
5409575708000226551  0069415405060002134           000000010000000000055000000000000000000000000000000000000000000000000001200
5409575708000226551  00694154050600035166          000000010000000000060000000000000000000000000000000000000000000000000001200
5469954626000133551  0069425405060001217           000000020000000000078000000000000000000000000000000000000000000000000001200
5469954626000133551  0069425405060002361           000000010000000000055000000000000000000000000000000000000000000000000001200
5469954626000133551  0069425405060003223           000000040000000000200000000000000000000000000000000000000000000000000001200
