1011053630000140083818822     BAHIA TRATORES DE JUAZEIRO LTDA - MJuazeiro                      BA74361178782017030120170331331
11AVENIDA JOÃO DURVAL CARNEIRO      00007                      JOÃO XXIII     48900300LUIZ ANTONIO DE BRITO       007488090056
5026222534000156135510924     20170316BA551  0000171102T000000001800000000000000000000000000000000000000000000000000000000000N
5026222534000156135510924     20170316BA551  0000181102T000000001800000000000000000000000000000000000000000000000000000000000N
501391188100014412893124      20170303BA011  0001741102T000000003000000000000000000000000000000000000000000000000000000000000N
501391188100014412893124      20170324BA011  0001821102T000000001550000000000000000000000000000000000000000000000000000000000N
50000707643285494248430       20170303BA551  0003655949P000000004400000000000000000000000000000000000000000000000000000000000N
50000344736705971312749024    20170306BA551  0003675949P000000006000000000000000000000000000000000000000000000000000000000000N
50000750583670683062010636    20170306BA551  0003685949P000000007250000000000000000000000000000000000000000000000000000000000N
5013232996000102ISENTO        20170307BA551  0003695949P000000043926000000000000000000000000000000000000000000000000000000000N
5013232996000102ISENTO        20170307BA551  0003705949P000000072632000000000000000000000000000000000000000000000000000000000N
501049876400053641815653      20170308PE551  0003726949P000000008792000000000000000000000000000000000000000000000000000000000N
50000563923625684108946       20170310BA551  0003745949P000000005000000000000000000000000000000000000000000000000000000000000N
50000621364535720405152655    20170311BA551  0003755949P000000005100000000000000000000000000000000000000000000000000000000000N
50217461980001270024983800034 20170315PE551  0010872102T000000002970000000000297000000000002079000000000000000000000000000700N
5007919969000100033668205     20170331PE551  0011362102T000000003000000000000000000000000000000000000000000000000000000000000N
50000636273965535609518       20170301BA551  0053155102P000000000790000000000079000000000001422000000000000000000000000001800N
506995462600013344149198      20170301BA551  0053165102P000000005500000000000000000000000000000000000000000000000000000000000N
50000183526344530             20170301BA551  0053185102P000000007600000000000027000000000000486000000000000000000000000001800N
50000688905165340715261100    20170301BA551  0053195102P000000004600000000000000000000000000000000000000000000000000000000000N
500957570800022681278536      20170301BA551  0053205102P000000005000000000000340730000000006133000000000000000000000000001800N
500005192455251504799627      20170301BA551  0053211202P000000002200000000000072470000000001304000000000000000000000000001800N
50000483466407498592152       20170302PE551  0053226102P000000001000000000000084000000000001008000000000000000000000000001200N
50000880167905000882966448    20170302BA551  0053235102P000000012300000000000000000000000000000000000000000000000000000000000N
50000121396610874010590588    20170302BA551  0053245102P000000002600000000000000000000000000000000000000000000000000000000000N
5000005211191463627151SSP     20170302PE551  0053256102P000000003450000000000000000000000000000000000000000000000000000000000N
50000032269334931734617       20170302BA551  0053265102P000000002650000000000000000000000000000000000000000000000000000000000N
50000707643285494248430       20170302BA551  0053275102P000000003600000000000000000000000000000000000000000000000000000000000N
509683207600015237906122      20170303BA551  0053285102P000000002700000000000000000000000000000000000000000000000000000000000N
50000358127705063741833SSP    20170303BA551  0053295102P000000000320000000000000000000000000000000000000000000000000000000000N
50000468343895044062522       20170303BA551  0053305102P000000006650000000000219050000000003943000000000000000000000000001800N
50000255640724720             20170303PE551  0053316102P000000002300000000000000000000000000000000000000000000000000000000000N
50000078641245340184111890    20170303BA551  0053325102P000000017800000000000461160000000008301000000000000000000000000001800N
500000102758484511779384SSPSP 20170303SP551  0053336102P000000000300000000000000000000000000000000000000000000000000000000000N
50000081046118871490128026    20170303BA551  0053345102P000000002500000000000000000000000000000000000000000000000000000000000N
50000053341638830             20170303PE551  0053356102P000000001000000000000000000000000000000000000000000000000000000000000N
5000000857353535685834603     20170304BA551  0053365102P000000005360000000000000000000000000000000000000000000000000000000000N
50000638818885000             20170306BA551  0053375102P000000000600000000000000000000000000000000000000000000000000000000000N
5000000215999550886641713     20170306BA551  0053385102P000000008560000000000173920000000003131000000000000000000000000001800N
50000909437595870936182636    20170306BA551  0053395102P000000000070000000000007000000000000126000000000000000000000000001800N
5000001679463586936575603SSP  20170306BA551  0053405102P000000002800000000000000000000000000000000000000000000000000000000000N
50000909437595870936182636    20170306BA551  0053415102P000000000900000000000013000000000000234000000000000000000000000001800N
50000909437595870936182636    20170306BA551  0053425102P000000000350000000000025000000000000450000000000000000000000000001800N
50000344736705971312749024    20170306BA551  0053435102P000000002500000000000000000000000000000000000000000000000000000000000N
50000388645504102784264       20170306BA551  0053445102P000000000800000000000000000000000000000000000000000000000000000000000N
50000037209104075662483SSP    20170306PE551  0053456102P000000000680000000000000000000000000000000000000000000000000000000000N
50000037209104075662483SSP    20170306PE551  0053466102P000000000200000000000000000000000000000000000000000000000000000000000N
50000750583670683062010636    20170306BA551  0053475102P000000011800000000000013360000000000240000000000000000000000000001800N
50000750583670683062010636    20170306BA551  0053485102P000000016000000000000000000000000000000000000000000000000000000000000N
500917510300016775619790      20170307BA551  0053495102P000000003300000000000330000000000005940000000000000000000000000001800N
5013232996000102ISENTO        20170307BA551  0053505102P000000011080000000000000000000000000000000000000000000000000000000000N
5000985210000186021932808     20170307PE551  0053516102P000000000900000000000000000000000000000000000000000000000000000000000N
50000201337314720             20170307BA551  0053525102P000000057000000000001877580000000033796000000000000000000000000001800N
50000350173765340203969456SSP 20170307BA551  0053535102P000000001800000000000000000000000000000000000000000000000000000000000N
50000750583670683062010636    20170307BA551  0053545102P000000210000000000006917400000000124513000000000000000000000000001800N
509683207600015237906122      20170307BA551  0053565102P000000000330000000000000000000000000000000000000000000000000000000000N
5005003936000190ISENTO        20170307BA551  0053575102P000000000850000000000000000000000000000000000000000000000000000000000N
5000000265598540986118010SSP  20170308BA551  0053585102P000000002300000000000000000000000000000000000000000000000000000000000N
508884768600036336808843      20170308BA551  0053595102P000000005500000000000001000000000000018000000000000000000000000001800N
50000183526344530             20170308BA551  0053605102P000000008920000000000000000000000000000000000000000000000000000000000N
501049876400053641815653      20170308PE551  0053616102P000000007700000000000088710000000001065000000000000000000000000001200N
50000015395645331256463485SSP 20170309BA551  0053625102P000000001600000000000000000000000000000000000000000000000000000000000N
50000883772104870             20170309PE551  0053636102P000000057000000000001877580000000022531000000000000000000000000001200N
5000042888760444438345312SSP  20170309BA551  0053645102P000000009000000000000230290000000004145000000000000000000000000001800N
5000042888760444438345312SSP  20170309BA551  0053655102P000000007300000000000000000000000000000000000000000000000000000000000N
5000042888760444438345312SSP  20170309BA551  0053665102P000000013100000000000000000000000000000000000000000000000000000000000N
5000042888760444438345312SSP  20170309BA551  0053675102P000000012200000000000000000000000000000000000000000000000000000000000N
50000062585064538459788SSP    20170309BA551  0053685102P000000000300000000000030000000000000540000000000000000000000000001800N
50000749082604780             20170309BA551  0053695102P000000012200000000000000000000000000000000000000000000000000000000000N
506995462600013344149198      20170309BA551  0053705102P000000000690000000000000000000000000000000000000000000000000000000000N
50000344736705971312749024    20170309BA551  0053715102P000000002600000000000000000000000000000000000000000000000000000000000N
5000091978190506836967844     20170309BA551  0053725102P000000003000000000000000000000000000000000000000000000000000000000000N
500917510300016775619790      20170309BA551  0053735102P000000006000000000000000000000000000000000000000000000000000000000000N
50000027923328080             20170309BA551  0053745102P000000005400000000000000000000000000000000000000000000000000000000000N
5000091212170504829822364     20170310BA551  0053755102P000000002820000000000231000000000004158000000000000000000000000001800N
5000091212170504829822364     20170310BA551  0053765102P000000000400000000000000000000000000000000000000000000000000000000000N
50000563923625684108946       20170310BA551  0053775102P000000020900000000000000000000000000000000000000000000000000000000000N
5000058833188434888719833     20170310BA551  0053785102P000000004730000000000000000000000000000000000000000000000000000000000N
5000066557674587B             20170310BA551  0053795102P000000001100000000000000000000000000000000000000000000000000000000000N
509683207600015237906122      20170311BA551  0053805102P000000007800000000000256930000000004625000000000000000000000000001800N
50000621364535720405152655    20170311BA551  0053815102P000000001900000000000000000000000000000000000000000000000000000000000N
508884768600036336808843      20170317BA551  0054115102P000000002000000000000000000000000000000000000000000000000000000000000N
500917510300016775619790      20170321BA551  0054235102P000000001400000000000140000000000002520000000000000000000000000001800N
50000636273965535609518       20170321BA551  0054245102P000000003890000000000003000000000000054000000000000000000000000001800N
50000269957944000             20170321BA551  0054275102P000000002400000000000012000000000000216000000000000000000000000001800N
5000055000550544411576992     20170321BA551  0054315102P000000005200000000000000000000000000000000000000000000000000000000000N
50000270069484871677008       20170322BA551  0054425102P000000000090000000000000000000000000000000000000000000000000000000000N
5000087831740520783853262     20170327BA551  0054555102P000000001550000000000015000000000000270000000000000000000000000001800N
50000608449904003388691       20170327BA551  0054585102P000000000480000000000000000000000000000000000000000000000000000000000N
5000042888760444438345312SSP  20170327BA551  0054595102P000000004600000000000151520000000002727000000000000000000000000001800N
50000035713444306112020       20170328BA551  0054665102P000000004000000000000074110000000001334000000000000000000000000001800N
500917510300016775619790      20170330BA551  0054795102P000000000550000000000055000000000000990000000000000000000000000001800N
50000007282018790             20170330PE551  0054846102P000000009400000000000000000000000000000000000000000000000000000000000N
50000749082604780             20170331BA551  0054905102P000000006580000000000069210000000001246000000000000000000000000001800N
50000964237650490             20170331PE551  0054926102P000000001610000000000006000000000000072000000000000000000000000001200N
50000418621474342744343       20170331BA551  0054955102P000000004000000000000010740000000000194000000000000000000000000001800N
5000985210000186021932808     20170317PE551  0105542403T000000001096000000000000000000000000000000000000000000000000000000000N
5047055959000198441005915116  20170306SP551  0133712102T000000028444600000002613440000000018293000000000000000000000000000700N
5009269474000108149949361114  20170322SP551  0170462403T000000007912400000000578440000000002313000000000000000000000000000400N
5003747886000120714041545111  20170301SP553  0222642403T000000030163500000002353170000000016277000000000000000000000000000700N
5003747886000120714041545111  20170317SP553  0227872403T000000021953800000001716910000000012018000000000000000000000000000700N
5003747886000120714041545111  20170330SP553  0231212403T000000035286800000002798170000000019245000000000000000000000000000700N
5003944609000107027298906     20170330PE551  0252002403T000000000777200000000000000000000000000000000000000000000000000000000N
5043204213000148162000715118  20170316SP551  0273972403T000000029051400000002166050000000015157000000000000000000000000000700N
5043204213000148162000715118  20170331SP551  0275842403T000000028330500000002110050000000014763000000000000000000000000000700N
50060924280001989061807230    20170303PR551  0322522403T000000019625500000001533720000000010736000000000000000000000000000700N
50060924280001989061807230    20170322PR551  0325782102T000000033244100000002582880000000018079000000000000000000000000000700N
5002641996000140374042837117  20170324PE551  0339712102T000000003723700000000372370000000002606000000000000000000000000000700N
500564007200011759618209      20170325BA551  0371821652T000000005110000000000000000000000000000000000000000000000000000000000N
5002904693000172441040385112  20170321SP551  0379792102T000000013360000000000944260000000006610000000000000000000000000000700N
500452346200014455610463      20170324BA552  0386381403T000000012295000000000491160000000008841000000000000000000000000001800N
50256614630001255186013070070 20170314PE551  0388772403T000000020246100000001516900000000010618000000000000000000000000000700N
509683207600015237906122      20170301BA551  0398231403T000000006968500000000057820000000001041000000000000000000000000001800N
509683207600015237906122      20170309BA551  0399861403T000000005207500000000000000000000000000000000000000000000000000000000N
509683207600015237906122      20170310BA551  0399881403T000000001440000000000000000000000000000000000000000000000000000000000N
509683207600015237906122      20170314BA551  0400461403T000000005800000000000000000000000000000000000000000000000000000000000N
509683207600015237906122      20170315BA551  0400731403T000000001070800000000000000000000000000000000000000000000000000000000N
509683207600015237906122      20170328BA551  0403401403T000000009890000000000117130000000002109000000000000000000000000001800N
500299140900014250333187      20170320BA551  0566601403T000000001171800000000000000000000000000000000000000000000000000000000N
50010977830006405032693520114 20170315MG551  0615652403T000000016105300000000412600000000002888000000000000000000000000000700N
500274517900013149534519      20170315BA553  0671031403T000000010353000000000000000000000000000000000000000000000000000000000N
500274517900013149534519      20170316BA553  0671231403T000000002941000000000000000000000000000000000000000000000000000000000N
500274517900013149534519      20170317BA553  0671901403T000000009597000000000000000000000000000000000000000000000000000000000N
5003972433001330796171730112  20170329SP551  0957722652T000000018099400000000000000000000000000000000000000000000000000000000N
5077310589000159144410696117  20170310SP552  0969342403T000000039313300000003231230000000021916000000000000000000000000000700N
5007923487000123034232478     20170301PE551  1059902403T000000000750000000000000000000000000000000000000000000000000000000000N
5055064562001324548066423112  20170316SP551  1275572102T000000059337600000005933700000000041530000000000000000000000000000700N
5003281625000167244650331113  20170324SP551  1417702403T000000014033700000001095260000000007667000000000000000000000000000700N
5086375425000109250266776     20170309SC551  2143302102T000000015234300000000849930000000005950000000000000000000000000000700N
5086375425000109250266776     20170331SC551  2156662102T000000231858200000012935000000000090540000000000000000000000000000700N
5052311347000906441016953110  20170315SP551  2575612102T000000002730000000000152310000000001066000000000000000000000000000700N
5052311347000906441016953110  20170315SP551  2575622102T000000053684000000003345670000000023421000000000000000000000000000700N
5052311347000906441016953110  20170327SP551  2586352102T000000003663500000000327100000000002290000000000000000000000000000700N
5052311289000163441000151114  20170309SP550  3135162102T000000132300000000007379800000000051650000000000000000000000000000700N
501407688900028604585710      20170308BA551  3633201652T000000030658500000000000000000000000000000000000000000000000000000000N
501407688900028604585710      20170308BA551  3633211652T000000005598900000000000000000000000000000000000000000000000000000000N
501407688900028604585710      20170315BA551  3646591652T000000020387800000000000000000000000000000000000000000000000000000000N
501407688900028604585710      20170322BA551  3662351652T000000022365800000000000000000000000000000000000000000000000000000000N
501407688900028604585710      20170322BA551  3662361102T000000002150400000000215040000000003870000000000000000000000000001800N
501407688900028604585710      20170324BA551  3671081652T000000007651200000000000000000000000000000000000000000000000000000000N
501407688900028604585710      20170329BA551  3680031652T000000056860200000000000000000000000000000000000000000000000000000000N
5079658134000154251404811     20170314SC554  4978562403T000000008841400000000650640000000002603000000000000000000000000000400N
5426222534000156551  00001711020600016050          000000010000000000180000000000000000000000000000000000000000000000000000000
5426222534000156551  00001811020600016050          000000010000000000180000000000000000000000000000000000000000000000000000000
5413911881000144011  00017411020600014896          000000010000000000300000000000000000000000000000000000000000000000000000000
5413911881000144011  00018211020600013517          000000010000000000050000000000000000000000000000000000000000000000000000000
5413911881000144011  00018211020600024440          000000010000000000035000000000000000000000000000000000000000000000000000000
5413911881000144011  00018211020600034880          000000010000000000035000000000000000000000000000000000000000000000000000000
5413911881000144011  00018211020600041513          000000010000000000010000000000000000000000000000000000000000000000000000000
5413911881000144011  00018211020600052928          000000020000000000010000000000000000000000000000000000000000000000000000000
5413911881000144011  00018211020600064747          000000010000000000005000000000000000000000000000000000000000000000000000000
5413911881000144011  00018211020600075667          000000010000000000010000000000000000000000000000000000000000000000000000000
5400070764328549551  0003655949090001990           000001300000000000182000000000000000000000000000000000000000000000000000000
5400070764328549551  0003655949090002972           000000010000000000258000000000000000000000000000000000000000000000000000000
5400034473670597551  0003675949090001988           000000010000000000600000000000000000000000000000000000000000000000000000000
5400075058367068551  0003685949090001981           000000010000000000499720000000000280000000000000000000000000000000000000000
5400075058367068551  0003685949090002990           000001610000000000225280000000000120000000000000000000000000000000000000000
5413232996000102551  00036959490900011180          000000010000000004392600000000000000000000000000000000000000000000000000000
5413232996000102551  00037059490900011726          000000010000000007263200000000000000000000000000000000000000000000000000000
5410498764000536551  0003726949090001975           000000010000000000400000000000000000000000000000000000000000000000000000000
5410498764000536551  00037269490900021180          000000010000000000300000000000000000000000000000000000000000000000000000000
5410498764000536551  0003726949090003990           000001280000000000179200000000000000000000000000000000000000000000000000000
5400056392362568551  0003745949090001979           000000010000000000500000000000000000000000000000000000000000000000000000000
5400062136453572551  0003755949090001990           000001080000000000139900000000011300000000000000000000000000000000000000000
5400062136453572551  0003755949090002975           000000010000000000370100000000029900000000000000000000000000000000000000000
5421746198000127551  00108721020000016064          000000090000000000297000000000000000000000297000000000000000000000000000700
5407919969000100551  00113621020000011143          000003000000000000300000000000000000000000000000000000000000000000000000000
5400063627396553551  00531551020000012065          000000010000000000079000000000000000000000079000000000000000000000000001800
5469954626000133551  00531654030600014159          000000010000000000363000000000020000000000000000000000000000000000000000000
5469954626000133551  00531654030600021329          000000010000000000187000000000006000000000000000000000000000000000000000000
5400018352634453551  00531851020000015436          000000010000000000027000000000000000000000027000000000000000000000000001800
5400018352634453551  005318540306000265            000000030000000000042000000000000000000000000000000000000000000000000000000
5400018352634453551  0053185403060003207           000000010000000000058000000000004000000000000000000000000000000000000000000
5400018352634453551  0053185403060004471           000000010000000000050000000000004000000000000000000000000000000000000000000
5400018352634453551  0053185403060005553           000000010000000000065000000000006000000000000000000000000000000000000000000
5400018352634453551  0053185403060006558           000000010000000000071000000000000000000000000000000000000000000000000000000
5400018352634453551  0053185403060007837           000000010000000000133000000000008000000000000000000000000000000000000000000
5400018352634453551  0053185403060008840           000000010000000000095000000000012000000000000000000000000000000000000000000
5400018352634453551  00531854030600091403          000000010000000000080000000000005000000000000000000000000000000000000000000
5400018352634453551  00531854030600101745          000000010000000000045000000000005000000000000000000000000000000000000000000
5400018352634453551  00531854030600112720          000000020000000000066000000000000000000000000000000000000000000000000000000
5400018352634453551  00531854030600125325          000000010000000000028000000000000000000000000000000000000000000000000000000
5400068890516534551  00531954030600016031          000000010000000000225000000000051000000000000000000000000000000000000000000
5400068890516534551  00531954030600026030          000000010000000000235000000000055000000000000000000000000000000000000000000
5409575708000226551  00532051020200015630          000000020000000000237500000000034500000000078230000000000000000000000001800
5409575708000226551  0053205102000002629           000000070000000000262500000000031500000000262500000000000000000000000001800
5400051924552515551  00532112020200011080          000000010000000000220000000000010000000000072470000000000000000000000001800
5400048346640749551  0053226102000001753           000000080000000000026000000000002000000000026000000000000000000000000001200
5400048346640749551  0053226102000002801           000000040000000000038000000000002000000000038000000000000000000000000001200
5400048346640749551  00532261020000031679          000000160000000000020000000000004000000000020000000000000000000000000001200
5400048346640749551  00532264030410041809          000000080000000000016000000000000000000000000000000000000000000000000000000
5400088016790500551  0053235403060001101           000000010000000000013000000000002000000000000000000000000000000000000000000
5400088016790500551  0053235403060002161           000000010000000000095000000000013000000000000000000000000000000000000000000
5400088016790500551  0053235403060003428           000000010000000000380000000000046000000000000000000000000000000000000000000
5400088016790500551  0053235403060004792           000000010000000000013000000000002000000000000000000000000000000000000000000
5400088016790500551  0053235403060005802           000000010000000000015000000000002000000000000000000000000000000000000000000
5400088016790500551  00532354030600062610          000000010000000000434000000000061000000000000000000000000000000000000000000
5400088016790500551  00532354030600074744          000000010000000000020000000000001000000000000000000000000000000000000000000
5400088016790500551  005323540306000870            000000010000000000260000000000043000000000000000000000000000000000000000000
5400012139661087551  00532454030600012997          000000010000000000235000000000014000000000000000000000000000000000000000000
5400012139661087551  0053245403060002538           000000010000000000025000000000005000000000000000000000000000000000000000000
5400005211191463551  00532564030600014750          000000010000000000049000000000001000000000000000000000000000000000000000000
5400005211191463551  00532561020600025751          000000120000000000240000000000000000000000000000000000000000000000000000000
5400005211191463551  00532564030600031645          000000010000000000039000000000005000000000000000000000000000000000000000000
5400005211191463551  005325640306000468            000000010000000000017000000000001000000000000000000000000000000000000000000
5400003226933493551  00532651020000013761          000000010000000000090000000000022000000000000000000000000000000000000000000
5400003226933493551  0053265403060002400           000000010000000000030000000000003000000000000000000000000000000000000000000
5400003226933493551  0053265102000003475           000000030000000000001500000000000000000000000000000000000000000000000000000
5400003226933493551  0053265403060004738           000000010000000000026000000000005000000000000000000000000000000000000000000
5400003226933493551  0053265403060005739           000000010000000000090000000000029000000000000000000000000000000000000000000
5400003226933493551  0053265102000006849           000000010000000000006000000000001000000000000000000000000000000000000000000
5400003226933493551  0053265102000007852           000000020000000000018000000000002000000000000000000000000000000000000000000
5400003226933493551  0053265102000008938           000000010000000000001000000000000000000000000000000000000000000000000000000
5400003226933493551  00532654030600091292          000000010000000000002500000000000500000000000000000000000000000000000000000
5400070764328549551  00532751020000011143          000000010000000000001800000000000200000000000000000000000000000000000000000
5400070764328549551  00532754030600023636          000000010000000000084820000000009180000000000000000000000000000000000000000
5400070764328549551  005327540306000370            000000010000000000273380000000029620000000000000000000000000000000000000000
5496832076000152551  00532854030600014376          000000010000000000059200000000014800000000000000000000000000000000000000000
5496832076000152551  0053285403060002862           000000010000000000161800000000040200000000000000000000000000000000000000000
5496832076000152551  0053285403060003575           000000010000000000046500000000011500000000000000000000000000000000000000000
5496832076000152551  00532854030600041292          000000010000000000002500000000000500000000000000000000000000000000000000000
5400035812770506551  00532954030600012132          000000010000000000013000000000002000000000000000000000000000000000000000000
5400035812770506551  00532954030600022133          000000010000000000019000000000002000000000000000000000000000000000000000000
5400046834389504551  00533051020200011190          000000010000000000080000000000002000000000026350000000000000000000000001800
5400046834389504551  00533051020200021185          000000030000000000585000000000039000000000192700000000000000000000000001800
5400025564072472551  0053316403060001813           000000020000000000086870000000001130000000000000000000000000000000000000000
5400025564072472551  0053316403060002665           000000010000000000005920000000000080000000000000000000000000000000000000000
5400025564072472551  00533161020600031977          000000010000000000133260000000001740000000000000000000000000000000000000000
5400025564072472551  00533161020600041143          000000020000000000003950000000000050000000000000000000000000000000000000000
5400007864124534551  00533254030600013146          000000010000000000270000000000000000000000000000000000000000000000000000000
5400007864124534551  0053325102020002185           000000070000000001400000000000021000000000461160000000000000000000000001800
5400007864124534551  00533254030600035161          000000010000000000110000000000000000000000000000000000000000000000000000000
5400001027584845551  0053336403060001538           000000010000000000030000000000000000000000000000000000000000000000000000000
5400008104611887551  00533454030600013146          000000010000000000250000000000020000000000000000000000000000000000000000000
5400005334163883551  00533564030600014842          000000020000000000100000000000006000000000000000000000000000000000000000000
5400000857353535551  0053365403060001471           000000010000000000054000000000000000000000000000000000000000000000000000000
5400000857353535551  0053365403060002538           000000010000000000030000000000000000000000000000000000000000000000000000000
5400000857353535551  00533654030600033145          000000030000000000120000000000000000000000000000000000000000000000000000000
5400000857353535551  00533654030600043146          000000010000000000270000000000000000000000000000000000000000000000000000000
5400000857353535551  0053365403060005207           000000010000000000062000000000000000000000000000000000000000000000000000000
5400063881888500551  00533754030600012525          000000010000000000025000000000001000000000000000000000000000000000000000000
5400063881888500551  00533754030600023775          000000010000000000035000000000001000000000000000000000000000000000000000000
5400000215999550551  0053385403060001215           000000010000000000020000000000000000000000000000000000000000000000000000000
5400000215999550551  0053385403060002207           000000010000000000062000000000000000000000000000000000000000000000000000000
5400000215999550551  0053385102020003173           000000020000000000528000000000000000000000173920000000000000000000000001800
5400000215999550551  0053385403060004966           000000020000000000162000000000000000000000000000000000000000000000000000000
5400000215999550551  0053385403060005538           000000010000000000030000000000000000000000000000000000000000000000000000000
5400000215999550551  0053385403060006471           000000010000000000054000000000000000000000000000000000000000000000000000000
5400090943759587551  00533951020000011345          000000010000000000007000000000000000000000007000000000000000000000000001800
5400001679463586551  00534054030600015617          000000010000000000263000000000004000000000000000000000000000000000000000000
5400001679463586551  0053405403060002500           000000010000000000017000000000000000000000000000000000000000000000000000000
5400090943759587551  00534151020000011029          000000010000000000013000000000001000000000013000000000000000000000000001800
5400090943759587551  00534154030600021073          000000010000000000032000000000003000000000000000000000000000000000000000000
5400090943759587551  00534154030600031071          000000010000000000045000000000004000000000000000000000000000000000000000000
5400090943759587551  0053425102000001478           000000010000000000001500000000000000000000001500000000000000000000000001800
5400090943759587551  0053425403060002871           000000010000000000010000000000000000000000000000000000000000000000000000000
5400090943759587551  0053425102000003750           000000010000000000023500000000002500000000023500000000000000000000000001800
5400034473670597551  0053435403060001690           000000010000000000000920000000000080000000000000000000000000000000000000000
5400034473670597551  0053435102000002660           000000120000000000003310000000000290000000000000000000000000000000000000000
5400034473670597551  0053435403060003493           000000010000000000008270000000000730000000000000000000000000000000000000000
5400034473670597551  00534354030600044548          000000010000000000001380000000000120000000000000000000000000000000000000000
5400034473670597551  00534354030600054555          000000010000000000017450000000001550000000000000000000000000000000000000000
5400034473670597551  00534354030600065381          000000020000000000023880000000002120000000000000000000000000000000000000000
5400034473670597551  00534354030600075708          000000020000000000040410000000003590000000000000000000000000000000000000000
5400034473670597551  00534354030600085967          000000010000000000034890000000003110000000000000000000000000000000000000000
5400034473670597551  00534354030600092693          000000010000000000014690000000001310000000000000000000000000000000000000000
5400034473670597551  00534354030600102642          000000020000000000033060000000002940000000000000000000000000000000000000000
5400034473670597551  00534354030600111791          000000040000000000003670000000000330000000000000000000000000000000000000000
5400034473670597551  00534354030600121432          000000010000000000010100000000000900000000000000000000000000000000000000000
5400034473670597551  00534354030600131430          000000010000000000011020000000000980000000000000000000000000000000000000000
5400034473670597551  00534354030600141421          000000020000000000008270000000000730000000000000000000000000000000000000000
5400034473670597551  00534351020000151143          000000070000000000012860000000001140000000000000000000000000000000000000000
5400034473670597551  00534354030600161059          000000020000000000007350000000000650000000000000000000000000000000000000000
5400034473670597551  0053435102000017718           000000120000000000003310000000000290000000000000000000000000000000000000000
5400034473670597551  00534354030600182651          000000010000000000002760000000000240000000000000000000000000000000000000000
5400034473670597551  00534354030600194547          000000010000000000003670000000000330000000000000000000000000000000000000000
5400034473670597551  00534354030600204041          000000060000000000008270000000000730000000000000000000000000000000000000000
5400034473670597551  00534354030600213679          000000010000000000000460000000000040000000000000000000000000000000000000000
5400038864550410551  00534454030600011470          000000010000000000080000000000000000000000000000000000000000000000000000000
5400003720910407551  0053456403060001493           000000020000000000018000000000000000000000000000000000000000000000000000000
5400003720910407551  00534564030600023774          000000020000000000026000000000000000000000000000000000000000000000000000000
5400003720910407551  0053456403060003783           000000020000000000006000000000000000000000000000000000000000000000000000000
5400003720910407551  0053456403060004769           000000010000000000018000000000000000000000000000000000000000000000000000000
5400003720910407551  0053466403060001625           000000040000000000020000000000000000000000000000000000000000000000000000000
5400075058367068551  0053475102000001201           000000020000000000013360000000000640000000013360000000000000000000000001800
5400075058367068551  0053475403060002207           000000010000000000057260000000002740000000000000000000000000000000000000000
5400075058367068551  0053475403060003320           000000010000000000164140000000007860000000000000000000000000000000000000000
5400075058367068551  0053475403060004471           000000010000000000050580000000002420000000000000000000000000000000000000000
5400075058367068551  0053475403060005538           000000010000000000029580000000001420000000000000000000000000000000000000000
5400075058367068551  0053475102000006742           000000010000000000001430000000000070000000000000000000000000000000000000000
5400075058367068551  0053475403060007770           000000010000000000016230000000000770000000000000000000000000000000000000000
5400075058367068551  0053475102000008771           000000010000000000001910000000000090000000000000000000000000000000000000000
5400075058367068551  0053475102000009831           000000010000000000005720000000000280000000000000000000000000000000000000000
5400075058367068551  00534754030600101033          000000010000000000007630000000000370000000000000000000000000000000000000000
5400075058367068551  00534751020000111143          000000020000000000003820000000000180000000000000000000000000000000000000000
5400075058367068551  00534754030600121747          000000010000000000028630000000001370000000000000000000000000000000000000000
5400075058367068551  00534754030600132800          000000110000000000157460000000007540000000000000000000000000000000000000000
5400075058367068551  00534754030600143130          000000020000000000051530000000002470000000000000000000000000000000000000000
5400075058367068551  00534754030600153146          000000020000000000488600000000023400000000000000000000000000000000000000000
5400075058367068551  00534754030600163775          000000020000000000064900000000003100000000000000000000000000000000000000000
5400075058367068551  00534754030600173774          000000030000000000037220000000001780000000000000000000000000000000000000000
5400075058367068551  0053485403060001471           000000010000000000049100000000003900000000000000000000000000000000000000000
5400075058367068551  0053485403060002207           000000010000000000055590000000004410000000000000000000000000000000000000000
5400075058367068551  0053485403060003320           000000010000000000159350000000012650000000000000000000000000000000000000000
5400075058367068551  0053485403060004538           000000010000000000028710000000002290000000000000000000000000000000000000000
5400075058367068551  0053485403060005592           000000010000000000004630000000000370000000000000000000000000000000000000000
5400075058367068551  0053485403060006930           000000010000000000056520000000004480000000000000000000000000000000000000000
5400075058367068551  00534851020000071143          000000010000000000001850000000000150000000000000000000000000000000000000000
5400075058367068551  00534851020200081779          000000010000000000045390000000003610000000000000000000000000000000000000000
5400075058367068551  00534854030600091874          000000010000000000000920000000000080000000000000000000000000000000000000000
5400075058367068551  00534854030600102792          000000010000000000337230000000026770000000000000000000000000000000000000000
5400075058367068551  00534854030600112800          000000140000000000168610000000013390000000000000000000000000000000000000000
5400075058367068551  00534854030600123145          000000030000000000102830000000008170000000000000000000000000000000000000000
5400075058367068551  00534854030600133146          000000020000000000489180000000038820000000000000000000000000000000000000000
5400075058367068551  00534854030600143147          000000020000000000077830000000006170000000000000000000000000000000000000000
5400075058367068551  00534854030600153774          000000020000000000022260000000001740000000000000000000000000000000000000000
5409175103000167551  00534951020000012704          000000010000000000330000000000048000000000330000000000000000000000000001800
5413232996000102551  005350540306000165            000000010000000000024870000000000130000000000000000000000000000000000000000
5413232996000102551  0053505403060002168           000000010000000000045750000000000250000000000000000000000000000000000000000
5413232996000102551  00535054030600031577          000000010000000000243680000000001320000000000000000000000000000000000000000
5413232996000102551  00535054030600041578          000000010000000000218820000000001180000000000000000000000000000000000000000
5413232996000102551  00535054030600053700          000000010000000000479400000000002600000000000000000000000000000000000000000
5413232996000102551  00535054030600064925          000000010000000000095480000000000520000000000000000000000000000000000000000
5400985210000186551  0053516403060001681           000000020000000000050000000000008000000000000000000000000000000000000000000
5400985210000186551  00535164030600025726          000000010000000000040000000000005000000000000000000000000000000000000000000
5400020133731472551  00535251020200014676          000000010000000005700000000000034000000001877580000000000000000000000001800
5400035017376534551  00535354030600011326          000000020000000000120000000000008000000000000000000000000000000000000000000
5400035017376534551  0053535403060002466           000000010000000000060000000000016000000000000000000000000000000000000000000
5400075058367068551  00535451020200016038          000000010000000021000000000000000000000006917400000000000000000000000001800
5496832076000152551  0053565403060001217           000000010000000000033000000000004000000000000000000000000000000000000000000
5405003936000190551  00535754030600012576          000000010000000000085000000000013000000000000000000000000000000000000000000
5400000265598540551  0053585403060001471           000000020000000000108000000000000000000000000000000000000000000000000000000
5400000265598540551  0053585403060002207           000000020000000000122000000000002000000000000000000000000000000000000000000
5488847686000363551  0053595403060001736           000000010000000000036000000000002000000000000000000000000000000000000000000
5488847686000363551  00535951020000021143          000000020000000000004000000000000000000000000000000000000000000000000000000
5488847686000363551  0053595102000003474           000000010000000000001000000000000000000000001000000000000000000000000001800
5488847686000363551  00535954030600042350          000000030000000000144000000000000000000000000000000000000000000000000000000
5488847686000363551  00535954030600054159          000000010000000000350000000000033000000000000000000000000000000000000000000
5488847686000363551  00535954030600061430          000000010000000000012000000000000000000000000000000000000000000000000000000
5488847686000363551  0053595403060007690           000000030000000000003000000000000000000000000000000000000000000000000000000
5400018352634453551  00536054030600011682          000000010000000000059120000000000880000000000000000000000000000000000000000
5400018352634453551  00536054030600025154          000000010000000000002930000000000070000000000000000000000000000000000000000
5400018352634453551  00536054030600034980          000000010000000000203960000000003040000000000000000000000000000000000000000
5400018352634453551  00536054030600043774          000000020000000000025620000000000380000000000000000000000000000000000000000
5400018352634453551  00536054030600053682          000000010000000000004930000000000070000000000000000000000000000000000000000
5400018352634453551  00536054030600063678          000000010000000000000300000000000000000000000000000000000000000000000000000
5400018352634453551  00536051020000073006          000000010000000000022660000000000340000000000000000000000000000000000000000
5400018352634453551  00536054030600082428          000000010000000000187210000000002790000000000000000000000000000000000000000
5400018352634453551  00536054030600092245          000000010000000000007880000000000120000000000000000000000000000000000000000
5400018352634453551  00536054030600102239          000000010000000000004930000000000070000000000000000000000000000000000000000
5400018352634453551  00536054030600111466          000000010000000000030550000000000450000000000000000000000000000000000000000
5400018352634453551  00536051020000121143          000000020000000000003940000000000060000000000000000000000000000000000000000
5400018352634453551  0053605403060013783           000000020000000000005910000000000090000000000000000000000000000000000000000
5400018352634453551  0053605403060014769           000000010000000000017740000000000260000000000000000000000000000000000000000
5400018352634453551  0053605403060015532           000000010000000000142870000000002130000000000000000000000000000000000000000
5400018352634453551  0053605403060016515           000000010000000000134000000000002000000000000000000000000000000000000000000
5400018352634453551  0053605403060017493           000000020000000000017740000000000260000000000000000000000000000000000000000
5400018352634453551  0053605403060018282           000000010000000000019710000000000290000000000000000000000000000000000000000
5410498764000536551  00536164030600014746          000000020000000000058530000000005470000000000000000000000000000000000000000
5410498764000536551  0053616403060002448           000000020000000000071330000000006670000000000000000000000000000000000000000
5410498764000536551  0053616102000003216           000000010000000000088710000000008290000000088710000000000000000000000001200
5410498764000536551  0053616403060004443           000000020000000000329210000000030790000000000000000000000000000000000000000
5410498764000536551  0053616403060005667           000000020000000000003650000000000350000000000000000000000000000000000000000
5410498764000536551  0053616102000006740           000000010000000000156380000000014620000000000000000000000000000000000000000
5410498764000536551  00536161020000071143          000000040000000000007320000000000680000000000000000000000000000000000000000
5410498764000536551  00536164030600081430          000000020000000000021950000000002050000000000000000000000000000000000000000
5410498764000536551  00536164030600094771          000000020000000000032920000000003080000000000000000000000000000000000000000
5400001539564533551  00536254030600011065          000000010000000000140000000000006000000000000000000000000000000000000000000
5400001539564533551  00536254030600023539          000000010000000000016000000000000000000000000000000000000000000000000000000
5400001539564533551  00536254030600031059          000000010000000000004000000000000000000000000000000000000000000000000000000
5400088377210487551  00536361020200013578          000000010000000005700000000000434000000001877580000000000000000000000001200
5400042888760444551  00536454030600011561          000000010000000000063000000000000000000000000000000000000000000000000000000
5400042888760444551  0053645102000002746           000000030000000000003000000000000000000000003000000000000000000000000001800
5400042888760444551  00536451020000033274          000000010000000000069500000000004500000000000000000000000000000000000000000
5400042888760444551  00536454030600044749          000000010000000000070000000000000000000000000000000000000000000000000000000
5400042888760444551  0053645102020005173           000000030000000000690000000000102000000000227290000000000000000000000001800
5400042888760444551  00536451020000061678          000000030000000000004500000000000000000000000000000000000000000000000000000
5400042888760444551  00536551020000011092          000000010000000000052730000000005270000000000000000000000000000000000000000
5400042888760444551  005365540306000212            000000010000000000066360000000006640000000000000000000000000000000000000000
5400042888760444551  005365540306000311            000000020000000000061820000000006180000000000000000000000000000000000000000
5400042888760444551  00536554030600045692          000000060000000000016360000000001640000000000000000000000000000000000000000
5400042888760444551  00536551020200055503          000000060000000000060000000000006000000000000000000000000000000000000000000
5400042888760444551  00536554030600064911          000000060000000000032730000000003270000000000000000000000000000000000000000
5400042888760444551  00536554030600074908          000000060000000000032730000000003270000000000000000000000000000000000000000
5400042888760444551  00536554030600084376          000000010000000000066360000000006640000000000000000000000000000000000000000
5400042888760444551  00536554030600092800          000000020000000000023630000000002370000000000000000000000000000000000000000
5400042888760444551  00536554030600101871          000000020000000000074550000000007450000000000000000000000000000000000000000
5400042888760444551  00536551020000111143          000000020000000000003640000000000360000000000000000000000000000000000000000
5400042888760444551  0053655403060012657           000000010000000000239090000000023910000000000000000000000000000000000000000
5400042888760444551  00536654030600011083          000000010000000000635310000000074690000000000000000000000000000000000000000
5400042888760444551  0053665403060002802           000000010000000000015210000000001790000000000000000000000000000000000000000
5400042888760444551  0053665403060003456           000000010000000000355240000000041760000000000000000000000000000000000000000
5400042888760444551  00536654030600043007          000000010000000000300660000000035340000000000000000000000000000000000000000
5400042888760444551  00536651020000051143          000000020000000000003580000000000420000000000000000000000000000000000000000
5400042888760444551  00536754030600011240          000000010000000000177920000000018080000000000000000000000000000000000000000
5400042888760444551  00536754030600023147          000000020000000000078070000000007930000000000000000000000000000000000000000
5400042888760444551  00536751020000031143          000000030000000000005440000000000560000000000000000000000000000000000000000
5400042888760444551  0053675403060004966           000000020000000000147060000000014940000000000000000000000000000000000000000
5400042888760444551  0053675403060005538           000000010000000000028140000000002860000000000000000000000000000000000000000
5400042888760444551  00536754030600061589          000000010000000000076250000000007750000000000000000000000000000000000000000
5400042888760444551  00536754030600071747          000000010000000000025420000000002580000000000000000000000000000000000000000
5400042888760444551  00536754030600082800          000000120000000000141600000000014400000000000000000000000000000000000000000
5400042888760444551  00536754030600093146          000000020000000000482920000000049080000000000000000000000000000000000000000
5400042888760444551  00536754030600101590          000000010000000000057180000000005820000000000000000000000000000000000000000
5400006258506453551  0053685102000001713           000000050000000000002000000000000500000000002000000000000000000000000001800
5400006258506453551  0053685102000002827           000000050000000000022500000000002500000000022500000000000000000000000001800
5400006258506453551  0053685102000003760           000000050000000000005500000000000000000000005500000000000000000000000001800
5400074908260478551  0053695403060001589           000000010000000000005000000000000000000000000000000000000000000000000000000
5400074908260478551  0053695403060002131           000000010000000000053000000000005000000000000000000000000000000000000000000
5400074908260478551  0053695403060003143           000000010000000000055000000000007000000000000000000000000000000000000000000
5400074908260478551  0053695403060004154           000000010000000000033000000000002000000000000000000000000000000000000000000
5400074908260478551  0053695403060005302           000000010000000000035000000000003000000000000000000000000000000000000000000
5400074908260478551  0053695102000006475           000000060000000000003000000000000000000000000000000000000000000000000000000
5400074908260478551  0053695102000007479           000000030000000000003000000000000000000000000000000000000000000000000000000
5400074908260478551  0053695102000008742           000000010000000000001500000000000000000000000000000000000000000000000000000
5400074908260478551  0053695403060009755           000000010000000000009000000000000000000000000000000000000000000000000000000
5400074908260478551  0053695102000010771           000000010000000000002000000000000000000000000000000000000000000000000000000
5400074908260478551  0053695102000011825           000000010000000000008000000000000000000000000000000000000000000000000000000
5400074908260478551  00536954030600121002          000000150000000000030000000000000000000000000000000000000000000000000000000
5400074908260478551  00536951020000131029          000000010000000000014000000000000000000000000000000000000000000000000000000
5400074908260478551  00536954030600141059          000000060000000000024000000000000000000000000000000000000000000000000000000
5400074908260478551  00536954030600151065          000000010000000000140000000000006000000000000000000000000000000000000000000
5400074908260478551  00536954030600161071          000000010000000000049000000000000000000000000000000000000000000000000000000
5400074908260478551  00536951020000171132          000000010000000000012000000000000000000000000000000000000000000000000000000
5400074908260478551  00536951020200181185          000000030000000000570000000000054000000000000000000000000000000000000000000
5400074908260478551  00536951020200191190          000000010000000000080500000000001500000000000000000000000000000000000000000
5400074908260478551  00536954030600202948          000000010000000000033000000000000000000000000000000000000000000000000000000
5400074908260478551  00536954030600212949          000000010000000000019000000000000000000000000000000000000000000000000000000
5400074908260478551  00536954030600223363          000000010000000000041000000000000000000000000000000000000000000000000000000
5469954626000133551  005370540306000161            000000030000000000069000000000027000000000000000000000000000000000000000000
5400034473670597551  00537154030600011563          000000010000000000045000000000005000000000000000000000000000000000000000000
5400034473670597551  0053715403060002496           000000010000000000054000000000005000000000000000000000000000000000000000000
5400034473670597551  00537154030600035724          000000010000000000054000000000003000000000000000000000000000000000000000000
5400034473670597551  00537154030600045530          000000010000000000053000000000005000000000000000000000000000000000000000000
5400034473670597551  00537154030600051564          000000030000000000054000000000006000000000000000000000000000000000000000000
5400091978190506551  00537254030600011052          000000010000000000035000000000000000000000000000000000000000000000000000000
5400091978190506551  00537254030600024223          000000010000000000059000000000002000000000000000000000000000000000000000000
5400091978190506551  00537254030600034118          000000010000000000090000000000005000000000000000000000000000000000000000000
5400091978190506551  00537254030600043147          000000010000000000043000000000000000000000000000000000000000000000000000000
5400091978190506551  00537251020000052562          000000020000000000001000000000000000000000000000000000000000000000000000000
5400091978190506551  00537254030600061558          000000020000000000070000000000000000000000000000000000000000000000000000000
5400091978190506551  00537254030600071251          000000020000000000002000000000000000000000000000000000000000000000000000000
5409175103000167551  00537354030600011330          000000020000000000300000000000102000000000000000000000000000000000000000000
5409175103000167551  00537354030600021331          000000020000000000300000000000102000000000000000000000000000000000000000000
5400002792332808551  00537454030600011500          000000010000000000540000000000040000000000000000000000000000000000000000000
5400091212170504551  00537554030600013130          000000020000000000051000000000003000000000000000000000000000000000000000000
5400091212170504551  005375510200000287            000000060000000000231000000000027000000000231000000000000000000000000001800
5400091212170504551  00537654030600012945          000000010000000000040000000000005000000000000000000000000000000000000000000
5400056392362568551  0053775403060001647           000000040000000000003810000000000190000000000000000000000000000000000000000
5400056392362568551  0053775403060002703           000000010000000000009510000000000490000000000000000000000000000000000000000
5400056392362568551  0053775102000003758           000000010000000000000950000000000050000000000000000000000000000000000000000
5400056392362568551  0053775403060004809           000000040000000000182690000000009310000000000000000000000000000000000000000
5400056392362568551  0053775403060005920           000000020000000000034250000000001750000000000000000000000000000000000000000
5400056392362568551  00537751020000061143          000000030000000000005710000000000290000000000000000000000000000000000000000
5400056392362568551  00537751020000071146          000000010000000000009510000000000490000000000000000000000000000000000000000
5400056392362568551  00537751020000081147          000000010000000000002850000000000150000000000000000000000000000000000000000
5400056392362568551  00537754030600091382          000000020000000000036160000000001840000000000000000000000000000000000000000
5400056392362568551  00537754030600102179          000000020000000000003810000000000190000000000000000000000000000000000000000
5400056392362568551  00537751020000112695          000000010000000000027590000000001410000000000000000000000000000000000000000
5400056392362568551  00537751020000122717          000000010000000000103720000000005280000000000000000000000000000000000000000
5400056392362568551  00537754030600132716          000000010000000000113230000000005770000000000000000000000000000000000000000
5400056392362568551  00537751020000143720          000000020000000000007620000000000380000000000000000000000000000000000000000
5400056392362568551  00537751020000153719          000000010000000000003810000000000190000000000000000000000000000000000000000
5400056392362568551  00537754030600163608          000000080000000000281640000000014360000000000000000000000000000000000000000
5400056392362568551  00537751020000173601          000000010000000000005710000000000290000000000000000000000000000000000000000
5400056392362568551  00537754030600183363          000000010000000000039010000000001990000000000000000000000000000000000000000
5400056392362568551  00537754030600193280          000000010000000000235020000000011980000000000000000000000000000000000000000
5400056392362568551  00537754030600202800          000000070000000000086590000000004410000000000000000000000000000000000000000
5400056392362568551  00537754030600212732          000000020000000000133220000000006780000000000000000000000000000000000000000
5400056392362568551  005377540306002268            000000010000000000017130000000000870000000000000000000000000000000000000000
5400056392362568551  0053775403060023100           000000010000000000016180000000000820000000000000000000000000000000000000000
5400056392362568551  0053775403060024268           000000020000000000057090000000002910000000000000000000000000000000000000000
5400056392362568551  0053775403060025275           000000010000000000021880000000001120000000000000000000000000000000000000000
5400056392362568551  0053775403060026304           000000010000000000165570000000008430000000000000000000000000000000000000000
5400056392362568551  0053775403060027306           000000010000000000037100000000001900000000000000000000000000000000000000000
5400056392362568551  0053775403060028312           000000010000000000415810000000021190000000000000000000000000000000000000000
5400056392362568551  0053775102000029477           000000010000000000000950000000000050000000000000000000000000000000000000000
5400056392362568551  0053775102000030478           000000010000000000001430000000000070000000000000000000000000000000000000000
5400056392362568551  0053775102000031583           000000040000000000030450000000001550000000000000000000000000000000000000000
5400058833188434551  0053785403060001207           000000010000000000064000000000000000000000000000000000000000000000000000000
5400058833188434551  00537854030600021087          000000010000000000141000000000000000000000000000000000000000000000000000000
5400058833188434551  00537854030600033145          000000030000000000120000000000000000000000000000000000000000000000000000000
5400058833188434551  00537854030600043147          000000010000000000043000000000000000000000000000000000000000000000000000000
5400058833188434551  0053785403060005215           000000010000000000020000000000000000000000000000000000000000000000000000000
5400058833188434551  0053785403060006471           000000010000000000055000000000000000000000000000000000000000000000000000000
5400058833188434551  0053785403060007538           000000010000000000030000000000000000000000000000000000000000000000000000000
5400066557674587551  00537954030600015161          000000010000000000110000000000000000000000000000000000000000000000000000000
5496832076000152551  00538051020200011113          000000010000000000780000000000089000000000256930000000000000000000000001800
5400062136453572551  0053815102000001740           000000010000000000151820000000019180000000000000000000000000000000000000000
5400062136453572551  00538151020000021143          000000020000000000003550000000000450000000000000000000000000000000000000000
5400062136453572551  0053815403060003448           000000010000000000034630000000004370000000000000000000000000000000000000000
5488847686000363551  00541154030600013150          000000010000000000044000000000005000000000000000000000000000000000000000000
5488847686000363551  0054115403060002496           000000010000000000051000000000008000000000000000000000000000000000000000000
5488847686000363551  00541154030600032075          000000010000000000065000000000007000000000000000000000000000000000000000000
5488847686000363551  00541154030600046044          000000010000000000040000000000005000000000000000000000000000000000000000000
5409175103000167551  00542351020000015432          000000040000000000140000000000044000000000140000000000000000000000000001800
5400063627396553551  0054245102000001564           000000030000000000003000000000000000000000003000000000000000000000000001800
5400063627396553551  00542454030100021206          000000030000000000072000000000000000000000000000000000100800000000000000000
5400063627396553551  00542454030600034908          000000260000000000156000000000000000000000000000000000000000000000000000000
5400063627396553551  00542454030600044912          000000010000000000002000000000000000000000000000000000000000000000000000000
5400063627396553551  00542454030600054911          000000260000000000156000000000000000000000000000000000000000000000000000000
5400026995794400551  00542751020000011143          000000030000000000006000000000000000000000006000000000000000000000000001800
5400026995794400551  00542754030600022958          000000010000000000228000000000000000000000000000000000000000000000000000000
5400026995794400551  0054275102000003746           000000060000000000006000000000000000000000006000000000000000000000000001800
5400055000550544551  0054315403060001837           000000010000000000130000000000014000000000000000000000000000000000000000000
5400055000550544551  0054315403060002538           000000010000000000030000000000003000000000000000000000000000000000000000000
5400055000550544551  0054315403060003215           000000010000000000018000000000002000000000000000000000000000000000000000000
5400055000550544551  00543154030600042997          000000010000000000242000000000007000000000000000000000000000000000000000000
5400055000550544551  0054315403060005840           000000010000000000100000000000002000000000000000000000000000000000000000000
5400027006948487551  00544254030600011251          000000020000000000002000000000000000000000000000000000000000000000000000000
5400027006948487551  00544254030600021552          000000020000000000001000000000000000000000000000000000000000000000000000000
5400027006948487551  00544254030600031250          000000050000000000005000000000000000000000000000000000000000000000000000000
5400027006948487551  00544254030600041252          000000010000000000001000000000000000000000000000000000000000000000000000000
5400087831740520551  0054555102000001752           000000040000000000008000000000000000000000008000000000000000000000000001800
5400087831740520551  00545554030600025039          000000010000000000140000000000017000000000000000000000000000000000000000000
5400087831740520551  00545551020000031096          000000010000000000007000000000000000000000007000000000000000000000000001800
5400060844990400551  00545854030100011206          000000020000000000048000000000000000000000000000000000067200000000000000000
5400042888760444551  00545951020200012099          000000100000000000460000000000030000000000151520000000000000000000000001800
5400003571344430551  0054665403060001538           000000010000000000031000000000000000000000000000000000000000000000000000000
5400003571344430551  0054665403060002215           000000010000000000018000000000002000000000000000000000000000000000000000000
5400003571344430551  00546654030600033189          000000020000000000020000000000008000000000000000000000000000000000000000000
5400003571344430551  00546654030600043145          000000020000000000076000000000004000000000000000000000000000000000000000000
5400003571344430551  00546651020200052099          000000050000000000225000000000020000000000074110000000000000000000000001800
5400003571344430551  00546654030600061002          000000150000000000030000000000000000000000000000000000000000000000000000000
5409175103000167551  0054795102000001780           000000100000000000055000000000005000000000055000000000000000000000000001800
5400000728201879551  00548464030600013366          000000020000000000034250000000003750000000000000000000000000000000000000000
5400000728201879551  0054846403060002507           000000010000000000005400000000000600000000000000000000000000000000000000000
5400000728201879551  0054846403060003527           000000010000000000026140000000002860000000000000000000000000000000000000000
5400000728201879551  0054846403060004533           000000010000000000011710000000001290000000000000000000000000000000000000000
5400000728201879551  0054846403060005549           000000010000000000034250000000003750000000000000000000000000000000000000000
5400000728201879551  0054846403060006966           000000010000000000073000000000008000000000000000000000000000000000000000000
5400000728201879551  0054846403060007967           000000030000000000059480000000006520000000000000000000000000000000000000000
5400000728201879551  00548464030600081746          000000010000000000035150000000003850000000000000000000000000000000000000000
5400000728201879551  00548464030600091811          000000010000000000052270000000005730000000000000000000000000000000000000000
5400000728201879551  00548464030600102800          000000070000000000082020000000008980000000000000000000000000000000000000000
5400000728201879551  00548464030600112944          000000010000000000039650000000004350000000000000000000000000000000000000000
5400000728201879551  00548464030600123146          000000020000000000486680000000053320000000000000000000000000000000000000000
5400074908260478551  00549051020000011544          000000010000000000008500000000000000000000008500000000000000000000000001800
5400074908260478551  00549054030600021747          000000010000000000027100000000000900000000000000000000000000000000000000000
5400074908260478551  00549051020200031887          000000030000000000048000000000000000000000015810000000000000000000000001800
5400074908260478551  00549054030600043218          000000020000000000016000000000000000000000000000000000000000000000000000000
5400074908260478551  00549051020000053423          000000020000000000001400000000000000000000001400000000000000000000000001800
5400074908260478551  0054905403060006137           000000010000000000076000000000000000000000000000000000000000000000000000000
5400074908260478551  0054905403060007143           000000010000000000062000000000000000000000000000000000000000000000000000000
5400074908260478551  0054905403060008168           000000010000000000043000000000000000000000000000000000000000000000000000000
5400074908260478551  0054905102020009170           000000010000000000126000000000000000000000041500000000000000000000000001800
5400074908260478551  0054905403060010207           000000010000000000064000000000000000000000000000000000000000000000000000000
5400074908260478551  0054905403060011367           000000010000000000129000000000000000000000000000000000000000000000000000000
5400074908260478551  0054905403060012471           000000010000000000055000000000000000000000000000000000000000000000000000000
5400074908260478551  0054905102000013479           000000020000000000002000000000000000000000002000000000000000000000000001800
5400096423765049551  0054926403060001816           000000020000000000022000000000000000000000000000000000000000000000000000000
5400096423765049551  00549261020000021143          000000030000000000006000000000000000000000006000000000000000000000000001200
5400096423765049551  0054926403060003690           000000010000000000001000000000000000000000000000000000000000000000000000000
5400096423765049551  0054926403060004813           000000030000000000132000000000000000000000000000000000000000000000000000000
5400041862147434551  0054955403060001864           000000010000000000034000000000000000000000000000000000000000000000000000000
5400041862147434551  0054955403060002840           000000010000000000095000000000007000000000000000000000000000000000000000000
5400041862147434551  0054955403060003755           000000010000000000009000000000000000000000000000000000000000000000000000000
5400041862147434551  0054955403060004722           000000010000000000029000000000000000000000000000000000000000000000000000000
5400041862147434551  0054955102000005559           000000010000000000000200000000000000000000000200000000000000000000000001800
5400041862147434551  005495540306000637            000000010000000000050000000000000000000000000000000000000000000000000000000
5400041862147434551  005495540306000730            000000010000000000009000000000000000000000000000000000000000000000000000000
5400041862147434551  005495540306000833            000000010000000000012000000000000000000000000000000000000000000000000000000
5400041862147434551  00549551020200091887          000000020000000000032000000000000000000000010540000000000000000000000001800
5400041862147434551  00549554030600101586          000000010000000000129800000000010200000000000000000000000000000000000000000
5400985210000186551  01055424030600015212          000000010000000000109600000000012180000000000000000000000000000000000000000
5447055959000198551  0133712403010001115           000000030000000000060990000000000000000000060990000000124760000000003050700
5447055959000198551  0133712403010002129           000000040000000000265040000000000000000000265040000000542180000000013200700
5447055959000198551  01337124030100031865          000000100000000000010200000000000000000000010200000000020870000000000510700
5447055959000198551  01337121020000043894          000000010000000000755510000000000000000000755510000000000000000000037700700
5447055959000198551  01337121020000053893          000000010000000001521770000000000000000001521700000000000000000000076000700
5409269474000108551  01704624030100011278          000000010000000000089020000000000000000000089020000000193350000000007120400
5409269474000108551  0170462403010002362           000000020000000000106720000000000000000000106720000000214620000000000000400
5409269474000108551  01704624030100036081          000000010000000000102870000000000000000000102870000000223430000000008230400
5409269474000108551  01704624030100043245          000000040000000000082600000000000000000000082600000000174420000000004130400
5409269474000108551  01704624030100051709          000000030000000000160080000000000000000000160080000000321940000000000000400
5409269474000108551  0170462403010006375           000000010000000000037150000000000000000000037150000000074710000000000000400
5403747886000120553  0222642403010001456           000000020000000000360720000000000000000000360720000000702750000000000000700
5403747886000120553  02226424030100021056          000000030000000000065190000000000000000000065190000000131110000000000000400
5403747886000120553  02226424030100031083          000000020000000000702320000000000000000000702320000001368200000000000000700
5403747886000120553  02226424030100042867          000000010000000000027520000000000000000000027520000000053610000000000000700
5403747886000120553  02226424030100052945          000000060000000000119880000000000000000000119880000000233550000000000000700
5403747886000120553  02226424030100063636          000000050000000000231150000000000000000000231150000000450330000000000000700
5403747886000120553  0222642403010007558           000000050000000000167450000000000000000000167450000000326220000000000000700
5403747886000120553  0222642403010008553           000000050000000000166300000000000000000000166300000000323990000000000000700
5403747886000120553  0222642403010009471           000000080000000000195120000000000000000000195120000000380130000000000000700
5403747886000120553  0222642403010010207           000000080000000000225600000000000000000000225600000000439520000000000000700
5403747886000120553  022264240301001161            000000060000000000091920000000000000000000091920000000179080000000000000700
5403747886000120553  0227872403010001802           000000200000000000162600000000000000000000162600000000316780000000000000700
5403747886000120553  0227872403010002923           000000060000000000201480000000000000000000201480000000392520000000000000700
5403747886000120553  02278724030100031282          000000040000000000017440000000000000000000017440000000033980000000000000700
5403747886000120553  02278724030100041292          000000050000000000006750000000000000000000006750000000013150000000000000700
5403747886000120553  02278724030100052572          000000020000000000227960000000000000000000227960000000444120000000000000700
5403747886000120553  02278724030100062573          000000010000000000089100000000000000000000089100000000173590000000000000700
5403747886000120553  02278724030100073055          000000020000000000155940000000000000000000155940000000303800000000000000700
5403747886000120553  02278724030100083494          000000030000000000253620000000000000000000253620000000494100000000000000700
5403747886000120553  02278724030100094549          000000100000000000005100000000000000000000005100000000009930000000000000700
5403747886000120553  02278724030100105781          000000040000000000016800000000000000000000016800000000032720000000000000700
5403747886000120553  02278724030100116069          000000020000000000035680000000000000000000035680000000069510000000000000700
5403747886000120553  02278724030100126070          000000020000000000059900000000000000000000059900000000116700000000000000700
5403747886000120553  0227872403010013487           000000020000000000026260000000000000000000026260000000051160000000000000700
5403747886000120553  0227872102000014649           000000060000000000012180000000000000000000012180000000000000000000000000700
5403747886000120553  0227872403010015215           000000120000000000103080000000000000000000103080000000200820000000000000700
5403747886000120553  0227872403010016538           000000240000000000318720000000000000000000318720000000620930000000000000700
5403747886000120553  0227872403010017699           000000030000000000024300000000000000000000024300000000047340000000000000700
5403747886000120553  0231212102000001664           000000100000000000010200000000000000000000010200000000000000000000000000700
5403747886000120553  0231212403010002320           000000100000000000841400000000000000000000841400000001639200000000000000700
5403747886000120553  0231212403010003207           000000120000000000338400000000000000000000338400000000659270000000000000700
5403747886000120553  02312124030100045672          000000010000000000001900000000000000000000001900000000003700000000000000700
5403747886000120553  02312124030100055675          000000010000000000101630000000000000000000101630000000197990000000000000700
5403747886000120553  02312121020000065685          000000090000000000031050000000000000000000031050000000000000000000000000700
5403747886000120553  02312121020000075866          000000300000000000018000000000000000000000018000000000000000000000000000700
5403747886000120553  02312124030100086098          000000030000000000023670000000000000000000023670000000046110000000000000700
5403747886000120553  0231212403010009471           000000120000000000292680000000000000000000292680000000570200000000000000700
5403747886000120553  02312121020000103743          000000300000000000031500000000000000000000031500000000000000000000000000700
5403747886000120553  02312121020000114115          000000010000000000044620000000000000000000044620000000000000000000000000700
5403747886000120553  02312124030100124190          000001500000000000060000000000000000000000060000000000116890000000000000700
5403747886000120553  02312121020000135046          000000100000000000035100000000000000000000035100000000000000000000000000700
5403747886000120553  02312124030100143359          000000030000000000021450000000000000000000021450000000041790000000000000700
5403747886000120553  02312124030100153260          000000020000000000114000000000000000000000114000000000256780000000013600400
5403747886000120553  02312124030100163244          000000040000000000008200000000000000000000008200000000015980000000000000700
5403747886000120553  02312121020000172452          000000200000000000030000000000000000000000030000000000000000000000000000700
5403747886000120553  02312124030100182312          000000100000000000056300000000000000000000056300000000109690000000000000700
5403747886000120553  02312124030100191166          000000040000000000018800000000000000000000018800000000036620000000000000700
5403747886000120553  0231212102000020944           000000200000000000006200000000000000000000006200000000000000000000000000700
5403747886000120553  0231212403010021911           000000010000000000198530000000000000000000198530000000386780000000000000700
5403747886000120553  0231212403010022816           000000150000000000180300000000000000000000180300000000351260000000000000700
5403747886000120553  0231212403010023813           000000200000000000236800000000000000000000236800000000461330000000000000700
5403747886000120553  0231212102000024752           000001000000000000072000000000000000000000072000000000000000000000000000700
5403747886000120553  0231212403010025678           000000060000000000025440000000000000000000025440000000049560000000000000700
5403944609000107551  02520024030600016084          000000010000000000010420000000000000000000000000000000000000000000000000000
5403944609000107551  02520024030600026086          000000010000000000010930000000000000000000000000000000000000000000000000000
5403944609000107551  02520024030600036085          000000010000000000017840000000000000000000000000000000000000000000000000000
5403944609000107551  02520024030600046083          000000010000000000038530000000000000000000000000000000000000000000000000000
5443204213000148551  0273972403010001730           000000040000000000115480000000000000000000116060000000237400000000005800700
5443204213000148551  02739724030100022789          000000030000000000240300000000000000000000241520000000489340000000009660700
5443204213000148551  02739724030100032737          000000010000000000125130000000000000000000125760000000254800000000005030700
5443204213000148551  02739724030100042732          000000020000000000057740000000000000000000058030000000118700000000002900700
5443204213000148551  02739724030100051331          000000020000000000165120000000000000000000165960000000336230000000006630700
5443204213000148551  02739724030100061330          000000020000000000165120000000000000000000165960000000336230000000006630700
5443204213000148551  02739724030100071065          000000060000000000354720000000000000000000356590000000729420000000017800700
5443204213000148551  02739724030100082792          000000020000000000289940000000000000000000291410000000596110000000014500700
5443204213000148551  02739724030100093619          000000020000000000225760000000000000000000226910000000464150000000011300700
5443204213000148551  02739724030100105419          000000010000000000125130000000000000000000125760000000254800000000005030700
5443204213000148551  02739724030100112790          000000030000000000290610000000000000000000292090000000591800000000011600700
5443204213000148551  02758424030100014455          000000020000000000097540000000000000000000098050000000200560000000004900700
5443204213000148551  02758424030100021065          000000060000000000354720000000000000000000356570000000729380000000017800700
5443204213000148551  02758424030100032789          000000030000000000240300000000000000000000241550000000489400000000009660700
5443204213000148551  02758424030100042790          000000030000000000290610000000000000000000292130000000591880000000011600700
5443204213000148551  02758424030100052792          000000030000000000434910000000000000000000437230000000894390000000021800700
5443204213000148551  02758424030100063619          000000010000000000112890000000000000000000113480000000232120000000005670700
5443204213000148551  02758424030100073773          000000020000000000095980000000000000000000096480000000197350000000004820700
5443204213000148551  02758424030100084456          000000010000000000027080000000000000000000027220000000055670000000001360700
5443204213000148551  02758424030100094790          000000020000000000114780000000000000000000115380000000236000000000005760700
5443204213000148551  02758424030100101331          000000030000000000247680000000000000000000248970000000504420000000009950700
5443204213000148551  02758424030100111330          000000010000000000082560000000000000000000082990000000168120000000003310700
5406092428000198551  03225221020000016056          000000020000000000156360000000000000000000161240000000000000000000008060700
5406092428000198551  03225224030100021206          000000100000000000115600000000000000000000119660000000241830000000005980700
5406092428000198551  03225221020000032146          000000500000000000042500000000000000000000043720000000000000000000000000700
5406092428000198551  03225224030100045630          000000020000000000136980000000000000000000140490000000251240000000000000700
5406092428000198551  03225224030100055694          000000050000000000082000000000000000000000085250000000177220000000006820700
5406092428000198551  03225224030100066052          000000200000000000043600000000000000000000048480000000097970000000002420700
5406092428000198551  03225224030100076053          000000500000000000050500000000000000000000051310000000103710000000002570700
5406092428000198551  03225224030100086054          000000960000000000388800000000000000000000392700000000793670000000019600700
5406092428000198551  03225224030100096055          000000960000000000388800000000000000000000392700000000793670000000019600700
5406092428000198551  03225224030100106057          000000240000000000097200000000000000000000098170000000198410000000004910700
5406092428000198551  03257821020000015472          000000040000000000156760000000000000000000199180000000000000000000000000700
5406092428000198551  03257824030100025691          000000240000000000219360000000000000000000222190000000449060000000011100700
5406092428000198551  03257824030100035470          000000480000000000438720000000000000000000444380000000898110000000022200700
5406092428000198551  03257824030100044913          000000500000000000073500000000000000000000075860000000153310000000003790700
5406092428000198551  03257824030100054912          000005950000000000554000000000000000000000568140000001148200000000028400700
5406092428000198551  03257821020000062146          000001000000000000085000000000000000000000092070000000000000000000000000700
5406092428000198551  03257824030100071206          000000500000000000578000000000000000000000636910000001287200000000031800700
5406092428000198551  03257824030100086115          000000500000000000109000000000000000000000121960000000246490000000006100700
5406092428000198551  03257824030100095471          000000240000000000219360000000000000000000222190000000449060000000011100700
5402641996000140551  03397121020000016091          000000010000000000197300000000000000000000197300000000000000000000000000700
5402641996000140551  03397121020000026092          000000010000000000085160000000000000000000085160000000000000000000000000700
5402641996000140551  03397121020000036093          000000010000000000089910000000000000000000089910000000000000000000000000700
5405640072000117551  03718216520600012799          000000020000000000396000000000000000000000000000000000000000000000000000000
5405640072000117551  03718216520600024814          000000010000000000115000000000000000000000000000000000000000000000000000000
5402904693000172551  03797921020200013273          000000020000000000184000000000000000000000113730000000000000000000000000700
5402904693000172551  03797921020200026082          000000010000000000095000000000000000000000058710000000000000000000000000700
5402904693000172551  03797921020200036056          000000030000000000204000000000000000000000126090000000000000000000000000700
5402904693000172551  03797921020000044928          000000020000000000370000000000000000000000390460000000000000000000000000700
5402904693000172551  03797921020200054750          000000030000000000135000000000000000000000083440000000000000000000000000700
5402904693000172551  03797921020200064749          000000030000000000168000000000000000000000103840000000000000000000000000700
5402904693000172551  03797921020200071225          000000500000000000110000000000000000000000067990000000000000000000000000700
5404523462000144552  0386381403060001111           000000020000000000172000000000000000000000000000000000000000000000000000000
5404523462000144552  038638110202000286            000000020000000000080000000000000000000000047060000000000000000000000001800
5404523462000144552  03863811020200033846          000000020000000000048000000000000000000000028230000000000000000000000001800
5404523462000144552  03863811020200042877          000000040000000000066000000000000000000000038820000000000000000000000001800
5404523462000144552  03863811020200052873          000000040000000000102000000000000000000000060000000000000000000000000001800
5404523462000144552  03863811020200062625          000000050000000000095000000000000000000000055880000000000000000000000001800
5404523462000144552  03863814030600072121          000000020000000000110000000000000000000000000000000000000000000000000000000
5404523462000144552  03863811020200081464          000000080000000000280000000000000000000000164700000000000000000000000001800
5404523462000144552  03863814030600091461          000000050000000000112500000000000000000000000000000000000000000000000000000
5404523462000144552  0386381102020010681           000000040000000000080000000000000000000000047060000000000000000000000001800
5404523462000144552  0386381102020011124           000000040000000000084000000000000000000000049410000000000000000000000001800
5425661463000125551  0388772403010001466           000000020000000000071500000000000000000000071500000000144870000000002860700
5425661463000125551  03887724030100021325          000000020000000000055100000000000000000000055100000000111640000000002200700
5425661463000125551  03887724030100035535          000000040000000000135400000000000000000000135400000000274340000000005420700
5425661463000125551  03887724030100045726          000000150000000000288750000000000000000000288750000000585040000000011500700
5425661463000125551  03887724030100056066          000000020000000000193200000000000000000000193200000000391450000000007730700
5425661463000125551  03887724030100066067          000000040000000000138800000000000000000000138800000000281230000000005550700
5425661463000125551  03887724030100076068          000000020000000000193200000000000000000000193200000000391450000000007730700
5425661463000125551  03887724030100081656          000000070000000000152950000000000000000000152950000000309900000000006120700
5425661463000125551  03887724030100095529          000000060000000000288000000000000000000000288000000000583520000000011500700
5496832076000152551  03982314030600016031          000000010000000000179000000000000000000000000000000000000000000000000000000
5496832076000152551  03982314030600021002          000000150000000000027000000000000000000000000000000000000000000000000000000
5496832076000152551  03982314030600031682          000000030000000000117000000000000000000000000000000000000000000000000000000
5496832076000152551  03982314030600046030          000000010000000000188000000000000000000000000000000000000000000000000000000
5496832076000152551  03982311020200051699          000000050000000000185850000000000000000000057820000000000000000000000001800
5496832076000152551  03998614030600016042          000000010000000000005000000000000000000000000000000000000000000000000000000
5496832076000152551  03998614030600026043          000000010000000000001000000000000000000000000000000000000000000000000000000
5496832076000152551  03998614030600035613          000000010000000000000250000000000000000000000000000000000000000000000000000
5496832076000152551  03998614030600044658          000000010000000000079000000000000000000000000000000000000000000000000000000
5496832076000152551  03998614030600052569          000000010000000000004000000000000000000000000000000000000000000000000000000
5496832076000152551  03998614030600062412          000000010000000000074500000000000000000000000000000000000000000000000000000
5496832076000152551  03998614030600072203          000000020000000000200000000000000000000000000000000000000000000000000000000
5496832076000152551  03998614030600081492          000000010000000000113000000000000000000000000000000000000000000000000000000
5496832076000152551  03998614030600091285          000000010000000000044000000000000000000000000000000000000000000000000000000
5496832076000152551  03998814030600012205          000000010000000000144000000000000000000000000000000000000000000000000000000
5496832076000152551  0400461403060001168           000000100000000000270000000000000000000000000000000000000000000000000000000
5496832076000152551  04004614030600021745          000000100000000000310000000000000000000000000000000000000000000000000000000
5496832076000152551  04007314030600012075          000000010000000000046800000000000000000000000000000000000000000000000000000
5496832076000152551  04007314030600026044          000000010000000000028880000000000000000000000000000000000000000000000000000
5496832076000152551  04007314030600033150          000000010000000000031400000000000000000000000000000000000000000000000000000
5496832076000152551  04034011020000013871          000000040000000000057850000000000470000000058320000000000000000000000001800
5496832076000152551  04034014030600023912          000000010000000000128950000000001050000000000000000000000000000000000000000
5496832076000152551  0403401102000003346           000000010000000000058340000000000470000000058810000000000000000000000001800
5496832076000152551  04034014030600046076          000000010000000000039560000000000330000000000000000000000000000000000000000
5496832076000152551  04034014030600053876          000000010000000000159400000000001300000000000000000000000000000000000000000
5496832076000152551  04034014030600066075          000000010000000000019280000000000160000000000000000000000000000000000000000
5496832076000152551  04034014030600076043          000000010000000000000990000000000010000000000000000000000000000000000000000
5496832076000152551  04034014030600085918          000000050000000000066960000000000540000000000000000000000000000000000000000
5496832076000152551  04034014030600094768          000000010000000000062670000000000510000000000000000000000000000000000000000
5496832076000152551  04034014030600104136          000000010000000000139080000000001130000000000000000000000000000000000000000
5496832076000152551  0403401403060011631           000000010000000000012850000000000100000000000000000000000000000000000000000
5496832076000152551  04034014030600121654          000000010000000000095230000000000770000000000000000000000000000000000000000
5496832076000152551  04034014030600132412          000000020000000000147840000000001200000000000000000000000000000000000000000
5402991409000142551  05666014030600016074          000000010000000000117180000000000000000000000000000000000000000000000000000
5401097783000640551  06156524030600016065          000000100000000000188500000000000000000000188500000000000000000000000000700
5401097783000640551  0615652403060002538           000000100000000000140200000000000000000000140200000000000000000000000000700
5401097783000640551  0615652403060003215           000000100000000000083900000000000000000000083900000000000000000000000000700
5401097783000640551  06156524030600045352          000000160000000000844960000000000000000000000000000000000000000000000000000
5402745179000131553  06710314030600011578          000000020000000000280500000000049500000000000000000000000000000000000000000
5402745179000131553  06710314030600021577          000000040000000000754800000000133200000000000000000000000000000000000000000
5402745179000131553  06712314030600016051          000000010000000000294100000000051900000000000000000000000000000000000000000
5402745179000131553  06719014030600016058          000000010000000000953150000000166850000000000000000000000000000000000000000
5402745179000131553  0671901403060002878           000000140000000000006550000000001150000000000000000000000000000000000000000
5403972433001330551  09577226520300012654          000000100000000001311500000000000000000000000000000002768800000000000000000
5477310589000159552  09693424030100013864          000000020000000000036840000000000000000000036980000000072040000000000000700
5477310589000159552  09693424030100026062          000000020000000000233520000000000000000000234440000000471480000000000000400
5477310589000159552  09693421020000036060          000000050000000000041700000000000000000000041860000000000000000000000000700
5477310589000159552  09693421020000046059          000000050000000000013350000000000000000000013400000000000000000000000000700
5477310589000159552  09693424030100056005          000000020000000000082500000000000000000000082820000000161350000000000000700
5477310589000159552  09693424030100065899          000000070000000000072100000000000000000000072380000000141010000000000000700
5477310589000159552  09693421020000074861          000000030000000000170760000000000000000000171420000000000000000000000000700
5477310589000159552  09693421020000084013          000000050000000000023150000000000000000000023240000000000000000000000000700
5477310589000159552  09693424030100093628          000000020000000000265520000000000000000000266550000000519290000000000000700
5477310589000159552  09693424030100103582          000000020000000000063540000000000000000000063790000000124280000000000000700
5477310589000159552  09693421020000113139          000000020000000000037200000000000000000000037340000000000000000000000000700
5477310589000159552  09693424030100123137          000000020000000000236960000000000000000000237880000000463440000000000000700
5477310589000159552  09693421020000133006          000000020000000000030980000000000000000000031100000000000000000000000000700
5477310589000159552  09693421020000142704          000000010000000000243270000000000000000000244210000000000000000000000000700
5477310589000159552  09693424030100152428          000000030000000000339840000000000000000000341160000000664650000000000000700
5477310589000159552  09693421020000162232          000000020000000000140680000000000000000000141230000000000000000000000000700
5477310589000159552  09693424030100171218          000000020000000000103840000000000000000000104240000000203080000000000000700
5477310589000159552  09693424030100181214          000000060000000000678000000000000000000000680630000001326000000000000000700
5477310589000159552  0969342403010019515           000000040000000000295000000000000000000000296150000000576960000000000000700
5477310589000159552  0969342403010020493           000000100000000000042700000000000000000000042870000000083520000000000000700
5477310589000159552  0969342102000021332           000000040000000000062680000000000000000000062920000000000000000000000000700
5477310589000159552  0969342102000022130           000000040000000000004600000000000000000000004620000000000000000000000000700
5407923487000123551  10599024030600016002          000000010000000000075000000000000000000000000000000000000000000000000000000
5455064562001324551  12755721020000015357          000000030000000005933760000000000000000005933700000000000000000000000000700
5403281625000167551  14177024030100011329          000000020000000000145800000000000000000000145800000000298250000000007290700
5403281625000167551  1417706101000002216           000000050000000000210400000000000000000000210400000000000000000000000000700
5403281625000167551  14177024030100036087          000000040000000000327640000000000000000000327640000000670220000000016300700
5403281625000167551  1417702403010004442           000000020000000000145580000000000000000000145580000000297800000000007280700
5403281625000167551  14177024030100052814          000000010000000000265840000000000000000000265840000000543800000000013200700
5486375425000109551  21433021020200012099          000000500000000001450500000000000000000000849930000000000000000000072500700
5486375425000109551  21566621020200016114          000000500000000022081500000000000000000012935000000000000000000001104000700
5452311347000906551  25756121020200012017          000000050000000000260000000000000000000000152310000000000000000000013000700
5452311347000906551  25756221020200011106          000000010000000000073110000000000000000000042830000000000000000000003660700
5452311347000906551  25756221020200021133          000000040000000000056720000000000000000000033230000000000000000000002840700
5452311347000906551  25756221020000031117          000000060000000000360360000000000000000000360360000000000000000000000000700
5452311347000906551  25756221020200041123          000000030000000000867240000000000000000000508030000000000000000000043300700
5452311347000906551  25756221020000051126          000000050000000000017600000000000000000000017600000000000000000000001760700
