1011053630000140083818822     BAHIA TRATORES DE JUAZEIRO LTDA - MJuazeiro                      BA74361178782017010120170131331
11AVENIDA JOÃO DURVAL CARNEIRO      00007                      JOÃO XXIII     48900300LUIZ ANTONIO DE BRITO       007488090056
501391188100014412893124      20170117BA011  0001591102T000000002710000000000000000000000000000000000000000000000000000000000N
501391188100014412893124      20170124BA011  0001601102T000000001140000000000000000000000000000000000000000000000000000000000N
50000014124165901311360034    20170103BA551  0003015949P000000001000000000000000000000000000000000000000000000000000000000000N
5000097719838572904356728SSP  20170104BA551  0003025949P000000005240000000000000000000000000000000000000000000000000000000000N
50000025420755301365774821    20170105BA551  0003045949P000000006700000000000000000000000000000000000000000000000000000000000N
5008694543000400128034066     20170105BA551  0003055949P000000004124000000000000000000000000000000000000000000000000000000000N
5008694543000400128034066     20170105BA551  0003065949P000000001800000000000000000000000000000000000000000000000000000000000N
5012786836000142016472373     20170106PE551  0003076949P000000022800000000000000000000000000000000000000000000000000000000000N
50000472144735343238377       20170109BA551  0003095949P000000004120000000000000000000000000000000000000000000000000000000000N
501049876400053641815653      20170113PE551  0003106949P000000004080000000000000000000000000000000000000000000000000000000000N
5004875268000128126280010     20170113BA551  0003125949P000000005262000000000000000000000000000000000000000000000000000000000N
50000491382784722965239       20170114PE551  0003146949P000000004500000000000000000000000000000000000000000000000000000000000N
50000053341638830             20170116PE551  0003156949P000000001000000000000000000000000000000000000000000000000000000000000N
50000377520305202532207       20170117BA551  0003165949P000000012800000000000000000000000000000000000000000000000000000000000N
50000007989534460453222870    20170120BA551  0003185949P000000001200000000000000000000000000000000000000000000000000000000000N
5001273669000462037761072     20170123PE551  0003206949P000000002600000000000000000000000000000000000000000000000000000000000N
50000310487224492514365       20170123PE551  0003226949P000000003380000000000000000000000000000000000000000000000000000000000N
50000025420755301365774821    20170124BA551  0003235949P000000002500000000000000000000000000000000000000000000000000000000000N
500001800584555330664324      20170124BA551  0003265949P000000001905000000000000000000000000000000000000000000000000000000000N
500001087642159100            20170125BA551  0003275949P000000003500000000000000000000000000000000000000000000000000000000000N
501049876400053641815653      20170127PE551  0003286949P000000002308000000000000000000000000000000000000000000000000000000000N
5004785526000266030951348     20170127PE551  0003296949P000000007400000000000000000000000000000000000000000000000000000000000N
500002275711201556265473      20170127PE551  0003306949P000000004100000000000000000000000000000000000000000000000000000000000N
50000641442164200             20170127PE551  0003316949P000000008870000000000000000000000000000000000000000000000000000000000N
500005368741847232106295SSP   20170127PE551  0003326949P000000004180000000000000000000000000000000000000000000000000000000000N
50000377520305202532207       20170131BA551  0003345949P000000006000000000000000000000000000000000000000000000000000000000000N
50000015934175271337321346    20170131BA551  0003355949P000000001800000000000000000000000000000000000000000000000000000000000N
5004875268000128126280010     20170131BA551  0003365949P000000008800000000000000000000000000000000000000000000000000000000000N
5007919969000100033668205     20170111PE551  0010882102T000000003000000000000000000000000000000000000000000000000000000000000N
50000999999999990             20170102BA2D1  0036355102P000000000020000000000002000000000000036000000000000000000000000001800N
50000999999999990             20170102BA2D1  0036355403P000000000180000000000000000000000000000000000000000000000000000000000N
50000999999999990             20170102BA2D1  0036365102P000000000032500000000003250000000000058000000000000000000000000001800N
50000999999999990             20170102BA2D1  0036365403P000000000117500000000000000000000000000000000000000000000000000000000N
50000999999999990             20170102BA2D1  0036375403P000000000550000000000000000000000000000000000000000000000000000000000N
50000999999999990             20170103BA2D1  0036385403P000000000240000000000000000000000000000000000000000000000000000000000N
50000999999999990             20170103BA2D1  0036395403P000000000900000000000000000000000000000000000000000000000000000000000N
50000999999999990             20170104BA2D1  0036435102P000000000330000000000033000000000000594000000000000000000000000001800N
50000999999999990             20170104BA2D1  0036445403P000000000100000000000000000000000000000000000000000000000000000000000N
50000999999999990             20170104BA2D1  0036455102P000000000380000000000038000000000000684000000000000000000000000001800N
50000999999999990             20170104BA2D1  0036465403P000000000250000000000000000000000000000000000000000000000000000000000N
500003600648357201480687588SSP20170104BA2D1  0036475102P000000000280000000000028000000000000504000000000000000000000000001800N
50000999999999990             20170104BA2D1  0036485403P000000001200000000000000000000000000000000000000000000000000000000000N
50000999999999990             20170104BA2D1  0036495403P000000000450000000000000000000000000000000000000000000000000000000000N
50000999999999990             20170104BA2D1  0036505403P000000000940000000000000000000000000000000000000000000000000000000000N
50000999999999990             20170104BA2D1  0036515403P000000000480000000000000000000000000000000000000000000000000000000000N
50000999999999990             20170105BA2D1  0036525102P000000001950000000000195000000000003510000000000000000000000000001800N
50000999999999990             20170105BA2D1  0036535403P000000000550000000000000000000000000000000000000000000000000000000000N
500000973845066714766426      20170105BA2D1  0036545102P000000002270000000000227000000000001271000000000000000000000000000560N
500000973845066714766426      20170105BA2D1  0036545403P000000004380000000000000000000000000000000000000000000000000000000000N
50000999999999990             20170105BA2D1  0036555403P000000000220000000000000000000000000000000000000000000000000000000000N
50000356079474912505002       20170105PE2D1  0036566403P000000000150000000000000000000000000000000000000000000000000000000000N
50000999999999990             20170106BA2D1  0036575403P000000000150000000000000000000000000000000000000000000000000000000000N
50000999999999990             20170106BA2D1  0036585403P000000001850000000000000000000000000000000000000000000000000000000000N
50000999999999990             20170106BA2D1  0036595102P000000002000000000000200000000000003600000000000000000000000000001800N
50000999999999990             20170106BA2D1  0036605102P000000001400000000000140000000000002520000000000000000000000000001800N
50000999999999990             20170106BA2D1  0036615403P000000001700000000000000000000000000000000000000000000000000000000000N
50000999999999990             20170107BA2D1  0036635102P000000000020000000000002000000000000036000000000000000000000000001800N
50000999999999990             20170107BA2D1  0036635403P000000003340000000000000000000000000000000000000000000000000000000000N
50000999999999990             20170107BA2D1  0036645102P000000000750000000000075000000000000420000000000000000000000000000560N
50000999999999990             20170107BA2D1  0036655403P000000000400000000000000000000000000000000000000000000000000000000000N
50000999999999990             20170107BA2D1  0036665102P000000000800000000000080000000000001440000000000000000000000000001800N
50000472144735343238377       20170109BA2D1  0036675102P000000000080000000000008000000000000144000000000000000000000000001800N
50000472144735343238377       20170109BA2D1  0036675403P000000023500000000000000000000000000000000000000000000000000000000000N
50000999999999990             20170109BA2D1  0036685102P000000000215000000000021500000000000387000000000000000000000000001800N
50000999999999990             20170109BA2D1  0036685403P000000002685000000000000000000000000000000000000000000000000000000000N
500000973845066714766426      20170109BA2D1  0036695403P000000002000000000000000000000000000000000000000000000000000000000000N
50000053341638830             20170110PE2D1  0036706102P000000000100000000000010000000000000120000000000000000000000000001200N
50000999999999990             20170110BA2D1  0036715102P000000000020000000000002000000000000036000000000000000000000000001800N
50000999999999990             20170110BA2D1  0036715403P000000001550000000000000000000000000000000000000000000000000000000000N
50000999999999990             20170110BA2D1  0036725403P000000000300000000000000000000000000000000000000000000000000000000000N
50000999999999990             20170110BA2D1  0036735102P000000000650000000000065000000000001170000000000000000000000000001800N
50000999999999990             20170110BA2D1  0036745403P000000000750000000000000000000000000000000000000000000000000000000000N
50000027923328080             20170111BA2D1  0036755102P000000000180000000000018000000000000324000000000000000000000000001800N
50000027923328080             20170111BA2D1  0036755403P000000000770000000000000000000000000000000000000000000000000000000000N
50000999999999990             20170111BA2D1  0036765403P000000000200000000000000000000000000000000000000000000000000000000000N
50000999999999990             20170112BA2D1  0036775102P000000000095000000000009500000000000171000000000000000000000000001800N
50000999999999990             20170112BA2D1  0036775403P000000000155000000000000000000000000000000000000000000000000000000000N
50000999999999990             20170112BA2D1  0036785403P000000000170000000000000000000000000000000000000000000000000000000000N
50000999999999990             20170112BA2D1  0036795403P000000000950000000000000000000000000000000000000000000000000000000000N
50000999999999990             20170112BA2D1  0036805403P000000001750000000000000000000000000000000000000000000000000000000000N
50000999999999990             20170112BA2D1  0036815102P000000000280000000000028000000000000504000000000000000000000000001800N
50000999999999990             20170113BA2D1  0036825102P000000000200000000000020000000000000360000000000000000000000000001800N
50000999999999990             20170113BA2D1  0036825102P000000001850000000000185000000000001036000000000000000000000000000560N
50000999999999990             20170113BA2D1  0036835403P000000000200000000000000000000000000000000000000000000000000000000000N
50000999999999990             20170113BA2D1  0036845102P000000000280000000000028000000000000504000000000000000000000000001800N
50000999999999990             20170113BA2D1  0036855403P000000003700000000000000000000000000000000000000000000000000000000000N
50000999999999990             20170113BA2D1  0036875403P000000000450000000000000000000000000000000000000000000000000000000000N
50000999999999990             20170113BA2D1  0036885102P000000000255000000000025500000000000459000000000000000000000000001800N
50000999999999990             20170113BA2D1  0036885403P000000000090000000000000000000000000000000000000000000000000000000000N
50000999999999990             20170113BA2D1  0036895403P000000000500000000000000000000000000000000000000000000000000000000000N
50000418621474342744343       20170113BA2D1  0036915102P000000000581000000000058100000000001045000000000000000000000000001800N
50000418621474342744343       20170113BA2D1  0036915102P000000001378500000000137850000000000772000000000000000000000000000560N
50000418621474342744343       20170113BA2D1  0036915403P000000029040500000000000000000000000000000000000000000000000000000000N
50000999999999990             20170113BA2D1  0036925102P000000000030000000000003000000000000054000000000000000000000000001800N
50000999999999990             20170116BA2D1  0036935102P000000000900000000000090000000000001620000000000000000000000000001800N
50000999999999990             20170116BA2D1  0036945403P000000000200000000000000000000000000000000000000000000000000000000000N
5000005211191463627151SSP     20170116PE2D1  0036956102P000000000500000000000050000000000000600000000000000000000000000001200N
5000005211191463627151SSP     20170116PE2D1  0036956102P000000001780000000000178000000000000997000000000000000000000000000560N
5000005211191463627151SSP     20170116PE2D1  0036956403P000000007080000000000000000000000000000000000000000000000000000000000N
50000999999999990             20170116BA2D1  0036965403P000000000950000000000000000000000000000000000000000000000000000000000N
50000999999999990             20170117BA2D1  0036975102P000000000175000000000017500000000000315000000000000000000000000001800N
50000999999999990             20170117BA2D1  0036975403P000000006175000000000000000000000000000000000000000000000000000000000N
50000999999999990             20170118BA2D1  0036985102P000000000300000000000030000000000000540000000000000000000000000001800N
50000999999999990             20170118BA2D1  0036995403P000000000150000000000000000000000000000000000000000000000000000000000N
50000638818885000             20170118BA2D1  0037005102P000000000030000000000003000000000000054000000000000000000000000001800N
50000638818885000             20170118BA2D1  0037005403P000000001070000000000000000000000000000000000000000000000000000000000N
50000772260894914289663       20170118BA2D1  0037015102P000000000120000000000012000000000000216000000000000000000000000001800N
50000772260894914289663       20170118BA2D1  0037015403P000000000360000000000000000000000000000000000000000000000000000000000N
50000999999999990             20170118BA2D1  0037025102P000000000150000000000015000000000000270000000000000000000000000001800N
50000999999999990             20170118BA2D1  0037035102P000000000020000000000002000000000000036000000000000000000000000001800N
50000999999999990             20170118BA2D1  0037035403P000000000180000000000000000000000000000000000000000000000000000000000N
500007498690233496029084169   20170118BA2D1  0037045102P000000000500000000000050000000000000900000000000000000000000000001800N
500007498690233496029084169   20170118BA2D1  0037045102P000000001500000000000150000000000000840000000000000000000000000000560N
50000999999999990             20170118BA2D1  0037055102P000000000145000000000014500000000000261000000000000000000000000001800N
50000999999999990             20170118BA2D1  0037055403P000000000160000000000000000000000000000000000000000000000000000000000N
50000999999999990             20170119BA2D1  0037075102P000000002850000000000285000000000005130000000000000000000000000001800N
50000999999999990             20170119BA2D1  0037075403P000000001500000000000000000000000000000000000000000000000000000000000N
50000999999999990             20170119BA2D1  0037085403P000000001480000000000000000000000000000000000000000000000000000000000N
50000999999999990             20170119BA2D1  0037095403P000000002650000000000000000000000000000000000000000000000000000000000N
50000636273965535609518       20170120BA2D1  0037105403P000000005500000000000000000000000000000000000000000000000000000000000N
50000999999999990             20170121BA2D1  0037115403P000000000400000000000000000000000000000000000000000000000000000000000N
50000999999999990             20170121BA2D1  0037125403P000000000500000000000000000000000000000000000000000000000000000000000N
50000503719835680             20170123BA2D1  0037135102P000000000200000000000020000000000000360000000000000000000000000001800N
50000503719835680             20170123BA2D1  0037135102P000000001600000000000160000000000000896000000000000000000000000000560N
50000999999999990             20170123BA2D1  0037145102P000000000010000000000001000000000000018000000000000000000000000001800N
50000999999999990             20170123BA2D1  0037145403P000000000670000000000000000000000000000000000000000000000000000000000N
50000999999999990             20170123BA2D1  0037155102P000000000075000000000007500000000000135000000000000000000000000001800N
5000050543750663155196297     20170123BA2D1  0037165403P000000000150000000000000000000000000000000000000000000000000000000000N
500002804931498713496556      20170123BA2D1  0037175403P000000000900000000000000000000000000000000000000000000000000000000000N
50000999999999990             20170123BA2D1  0037185102P000000000400000000000040000000000000720000000000000000000000000001800N
50000999999999990             20170124BA2D1  0037195102P000000000025000000000002500000000000045000000000000000000000000001800N
50000999999999990             20170124BA2D1  0037195102P000000000190000000000019000000000000106000000000000000000000000000560N
50000999999999990             20170124BA2D1  0037195403P000000000085000000000000000000000000000000000000000000000000000000000N
50000025420755301365774821    20170124BA2D1  0037205102P000000000060000000000006000000000000108000000000000000000000000001800N
50000025420755301365774821    20170124BA2D1  0037205403P000000007240000000000000000000000000000000000000000000000000000000000N
50000025420755301365774821    20170124BA2D1  0037215102P000000000200000000000020000000000000360000000000000000000000000001800N
50000025420755301365774821    20170124BA2D1  0037215403P000000001130000000000000000000000000000000000000000000000000000000000N
50000999999999990             20170124BA2D1  0037225403P000000000200000000000000000000000000000000000000000000000000000000000N
50000999999999990             20170124BA2D1  0037235403P000000000500000000000000000000000000000000000000000000000000000000000N
50000999999999990             20170125BA2D1  0037245102P000000000500000000000050000000000000900000000000000000000000000001800N
50000999999999990             20170125BA2D1  0037255403P000000000120000000000000000000000000000000000000000000000000000000000N
50000999999999990             20170125BA2D1  0037265403P000000000650000000000000000000000000000000000000000000000000000000000N
50000999999999990             20170125BA2D1  0037275403P000000003300000000000000000000000000000000000000000000000000000000000N
50000999999999990             20170126BA2D1  0037285403P000000000100200000000000000000000000000000000000000000000000000000000N
50000999999999990             20170126BA2D1  0037295403P000000000450000000000000000000000000000000000000000000000000000000000N
50000999999999990             20170126BA2D1  0037305403P000000000200000000000000000000000000000000000000000000000000000000000N
50000999999999990             20170126BA2D1  0037315102P000000000020000000000002000000000000036000000000000000000000000001800N
50000999999999990             20170126BA2D1  0037315403P000000002080000000000000000000000000000000000000000000000000000000000N
50000999999999990             20170127BA2D1  0037325403P000000000250000000000000000000000000000000000000000000000000000000000N
50000999999999990             20170127BA2D1  0037335102P000000000600000000000060000000000000336000000000000000000000000000560N
50000999999999990             20170127BA2D1  0037335403P000000000950000000000000000000000000000000000000000000000000000000000N
50000999999999990             20170127BA2D1  0037345102P000000000060000000000006000000000000108000000000000000000000000001800N
50000999999999990             20170127BA2D1  0037345403P000000000640000000000000000000000000000000000000000000000000000000000N
50000999999999990             20170127BA2D1  0037355403P000000000070000000000000000000000000000000000000000000000000000000000N
50000999999999990             20170127BA2D1  0037365102P000000000200000000000020000000000000360000000000000000000000000001800N
50000999999999990             20170127BA2D1  0037375403P000000001770000000000000000000000000000000000000000000000000000000000N
50000001314975021156931819    20170127BA2D1  0037385403P000000000880000000000000000000000000000000000000000000000000000000000N
5000005211191463627151SSP     20170127PE2D1  0037396403P000000004160000000000000000000000000000000000000000000000000000000000N
50000999999999990             20170130BA2D1  0037405403P000000000700000000000000000000000000000000000000000000000000000000000N
50000999999999990             20170131BA2D1  0037415102P000000000162500000000016250000000000293000000000000000000000000001800N
50000999999999990             20170131BA2D1  0037415403P000000000537500000000000000000000000000000000000000000000000000000000N
50000999999999990             20170131BA2D1  0037425102P000000000070000000000007000000000000126000000000000000000000000001800N
50000999999999990             20170131BA2D1  0037435403P000000000400000000000000000000000000000000000000000000000000000000000N
5000055000550544411576992     20170131BA2D1  0037445102P000000058000000000005800000000000032480000000000000000000000000000560N
50000999999999990             20170131BA2D1  0037455403P000000000650000000000000000000000000000000000000000000000000000000000N
50000999999999990             20170131BA2D1  0037465102P000000000100000000000010000000000000180000000000000000000000000001800N
50000999999999990             20170131BA2D1  0037465403P000000001550000000000000000000000000000000000000000000000000000000000N
50000483466407498592152       20170131PE2D1  0037476102P000000000130000000000013000000000000156000000000000000000000000001200N
50000483466407498592152       20170131PE2D1  0037476403P000000000320000000000000000000000000000000000000000000000000000000000N
50000999999999990             20170131BA2D1  0037485102P000000001900000000000190000000000001064000000000000000000000000000560N
501364269900013510106570      20170102BA551  0050065102P000000002100000000000210000000000003780000000000000000000000000001800N
501278683600057684954631      20170102BA551  0050075403P000000001550000000000000000000000000000000000000000000000000000000000N
5000001667297520063560526     20170102BA551  0050085403P000000002500000000000000000000000000000000000000000000000000000000000N
50000356079474912505002       20170102PE551  0050106403P000000000500000000000000000000000000000000000000000000000000000000000N
50000014124165901311360034    20170103BA551  0050115102P000000000020000000000002000000000000036000000000000000000000000001800N
50000014124165901311360034    20170103BA551  0050115403P000000001980000000000000000000000000000000000000000000000000000000000N
50000652480404003622347       20170103BA551  0050125403P000000001100000000000000000000000000000000000000000000000000000000000N
5000020706111400613582SSP     20170103PE551  0050136102P000000000660000000000021740000000000261000000000000000000000000001200N
5000020706111400613582SSP     20170103PE551  0050136403P000000000190000000000000000000000000000000000000000000000000000000000N
5000097719838572904356728SSP  20170104BA551  0050145102P000000000149800000000014980000000000269000000000000000000000000001800N
5000097719838572904356728SSP  20170104BA551  0050145403P000000004850200000000000000000000000000000000000000000000000000000000N
50000008551094756316947ssppe  20170104BA551  0050155403P000000005200000000000000000000000000000000000000000000000000000000000N
50000183526344530             20170104BA551  0050161202P000000000533800000000000000000000000000000000000000000000000000000000N
5000091212170504829822364     20170104BA551  0050175102P000000000188800000000018880000000000339000000000000000000000000001800N
5000091212170504829822364     20170104BA551  0050175403P000000005711200000000000000000000000000000000000000000000000000000000N
50000549540535873540098       20170104BA551  0050185102P000000000140000000000014000000000000252000000000000000000000000001800N
50000549540535873540098       20170104BA551  0050185403P000000002200000000000000000000000000000000000000000000000000000000000N
5000066557674587B             20170104BA551  0050195403P000000004000000000000000000000000000000000000000000000000000000000000N
5000055000550544411576992     20170104BA551  0050205102P000000093000000000003063420000000055142000000000000000000000000001800N
50000043856864831197058184    20170105PE551  0050216403P000000007500000000000000000000000000000000000000000000000000000000000N
50000025420755301365774821    20170105BA551  0050225102P000000001092900000000109290000000001968000000000000000000000000001800N
50000025420755301365774821    20170105BA551  0050225403P000000030557100000000000000000000000000000000000000000000000000000000N
5008694543000400128034066     20170105BA551  0050235102P000000000040000000000004000000000000072000000000000000000000000001800N
5008694543000400128034066     20170105BA551  0050235403P000000003950000000000000000000000000000000000000000000000000000000000N
5008694543000400128034066     20170105BA551  0050245102P000000009520000000000952000000000017136000000000000000000000000001800N
5008694543000400128034066     20170105BA551  0050245102P000000000830000000000027340000000000492000000000000000000000000001800N
5008694543000400128034066     20170105BA551  0050245403P000000001360000000000000000000000000000000000000000000000000000000000N
501514179900436247013861      20170106BA551  0050255102P000000008000000000000263520000000004743000000000000000000000000001800N
501514179900436247013861      20170106BA551  0050255403P000000018200000000000000000000000000000000000000000000000000000000000N
5012786836000142016472373     20170106PE551  0050266102P000000012623000000001262300000000015147000000000000000000000000001200N
5012786836000142016472373     20170106PE551  0050266403P000000145582000000000000000000000000000000000000000000000000000000000N
50000377520305202532207       20170106BA551  0050275102P000000126000000000004150440000000074708000000000000000000000000001800N
5000059260742587551944943     20170106BA551  0050285102P000000000546000000000054600000000000983000000000000000000000000001800N
5000059260742587551944943     20170106BA551  0050285403P000000000154000000000000000000000000000000000000000000000000000000000N
50000277056685725925079SSP    20170106BA551  0050295102P000000005700000000000187750000000003380000000000000000000000000001800N
50000277056685725925079SSP    20170106BA551  0050295403P000000000100000000000000000000000000000000000000000000000000000000000N
50000035713444306112020       20170106BA551  0050305102P000000002776500000000277650000000004997000000000000000000000000001800N
50000035713444306112020       20170106BA551  0050305102P000000002524100000000083140000000001497000000000000000000000000001800N
50000035713444306112020       20170106BA551  0050305403P000000013699400000000000000000000000000000000000000000000000000000000N
50000020333904540             20170107PE551  0050316102P000000001140000000000114000000000001368000000000000000000000000001200N
50000020333904540             20170107PE551  0050316403P000000006010000000000000000000000000000000000000000000000000000000000N
50000270069484871677008       20170107BA551  0050325403P000000000430000000000000000000000000000000000000000000000000000000000N
50000883873724041117103404    20170107BA551  0050335102P000000000680000000000068000000000001224000000000000000000000000001800N
50000883873724041117103404    20170107BA551  0050335102P000000001690000000000055670000000001002000000000000000000000000001800N
50000883873724041117103404    20170107BA551  0050335403P000000007130000000000000000000000000000000000000000000000000000000000N
5000001338708554866111254SSP  20170107BA551  0050345403P000000005400000000000000000000000000000000000000000000000000000000000N
5000066557674587B             20170109BA551  0050351202P000000001190000000000000000000000000000000000000000000000000000000000N
5000066557674587B             20170109BA551  0050365102P000000000610000000000061000000000001098000000000000000000000000001800N
5000066557674587B             20170109BA551  0050365403P000000000390000000000000000000000000000000000000000000000000000000000N
50000176681888940501459596    20170109BA551  0050375102P000000000160000000000016000000000000288000000000000000000000000001800N
50000176681888940501459596    20170109BA551  0050375403P000000002490000000000000000000000000000000000000000000000000000000000N
50000053341638830             20170110PE551  0050382202P000000000280000000000000000000000000000000000000000000000000000000000N
50000053341638830             20170110PE551  0050396403P000000000280000000000000000000000000000000000000000000000000000000000N
5052582376000155215001000114  20170110SP551  0050406915P000000008090000000000000000000000000000000000000000000000000000000000N
501514179900436247013861      20170110BA551  0050415403P000000009900000000000000000000000000000000000000000000000000000000000N
50000435714335724305910       20170110BA551  0050425403P000000001300000000000000000000000000000000000000000000000000000000000N
5007199546000162ISENTO        20170110PE551  0050436403P000000009800000000000000000000000000000000000000000000000000000000000N
500002804931498713496556      20170110BA551  0050445102P000000000590000000000059000000000001062000000000000000000000000001800N
500002804931498713496556      20170110BA551  0050445403P000000000410000000000000000000000000000000000000000000000000000000000N
5012786836000142016472373     20170111PE551  0050456102P000000000405000000000040500000000000486000000000000000000000000001200N
5012786836000142016472373     20170111PE551  0050456403P000000008810000000000000000000000000000000000000000000000000000000000N
50000371959645150             20170111BA551  0050465102P000000001500000000000049410000000000889000000000000000000000000001800N
50000371959645150             20170111BA551  0050465403P000000000300000000000000000000000000000000000000000000000000000000000N
50000909839555490             20170111BA551  0050475403P000000001550000000000000000000000000000000000000000000000000000000000N
50000954545195530870756109    20170111BA551  0050485102P000000003000000000000098820000000001779000000000000000000000000001800N
50000954545195530870756109    20170111BA551  0050485403P000000001960000000000000000000000000000000000000000000000000000000000N
50000772260894914289663       20170111BA551  0050495102P000000009070000000000298770000000005378000000000000000000000000001800N
50000772260894914289663       20170111BA551  0050495403P000000003860000000000000000000000000000000000000000000000000000000000N
50000027923328080             20170112BA551  0050505102P000000000512500000000051250000000000923000000000000000000000000001800N
50000027923328080             20170112BA551  0050505403P000000000087500000000000000000000000000000000000000000000000000000000N
50000688905165340715261100    20170112BA551  0050515102P000000000720000000000072000000000001296000000000000000000000000001800N
50000688905165340715261100    20170112BA551  0050515102P000000001280000000000042160000000000759000000000000000000000000001800N
50000428552504632971880       20170112BA551  0050525403P000000000200000000000000000000000000000000000000000000000000000000000N
500003881718745324458288      20170112BA551  0050535102P000000008622500000000284020000000005112000000000000000000000000001800N
500003881718745324458288      20170112BA551  0050535403P000000000877500000000000000000000000000000000000000000000000000000000N
5004827322000160056922402     20170112BA551  0050545403P000000001000000000000000000000000000000000000000000000000000000000000N
50000909437595870936182636    20170112BA551  0050555403P000000000550000000000000000000000000000000000000000000000000000000000N
50000020173225470000000       20170113BA551  0050565102P000000000052000000000005200000000000094000000000000000000000000001800N
50000020173225470000000       20170113BA551  0050565403P000000001448000000000000000000000000000000000000000000000000000000000N
501049876400053641815653      20170113PE551  0050576102P000000000060000000000006000000000000072000000000000000000000000001200N
501049876400053641815653      20170113PE551  0050576403P000000000520000000000000000000000000000000000000000000000000000000000N
50000100720554721456559       20170113BA551  0050585102P000000001954300000000195430000000003518000000000000000000000000001800N
50000100720554721456559       20170113BA551  0050585102P000000000310800000000010240000000000184000000000000000000000000001800N
50000100720554721456559       20170113BA551  0050585403P000000018234900000000000000000000000000000000000000000000000000000000N
50000310487224492514365       20170113PE551  0050596102P000000000650000000000065000000000000780000000000000000000000000001200N
5004875268000128126280010     20170113BA551  0050605102P000000000150000000000015000000000000270000000000000000000000000001800N
5004875268000128126280010     20170113BA551  0050605102P000000038000000000001251720000000022531000000000000000000000000001800N
5004875268000128126280010     20170113BA551  0050605403P000000000930000000000000000000000000000000000000000000000000000000000N
50000036293715071476820023    20170113BA551  0050625102P000000027500200000000905860000000016305000000000000000000000000001800N
50000491382784722965239       20170114PE551  0050636403P000000010500000000000000000000000000000000000000000000000000000000000N
50000491382784722965239       20170114PE551  0050646102P000000000086200000000008620000000000103000000000000000000000000001200N
50000491382784722965239       20170114PE551  0050646403P000000004413800000000000000000000000000000000000000000000000000000000N
50000491382784722965239       20170114PE551  0050656102P000000000019400000000001940000000000023000000000000000000000000001200N
50000491382784722965239       20170114PE551  0050656403P000000005480600000000000000000000000000000000000000000000000000000000N
50000013613434351264053878SSP 20170114PE551  0050666403P000000003800000000000000000000000000000000000000000000000000000000000N
5017770897000135ISENTO        20170114BA551  0050675102P000000002700000000000270000000000004860000000000000000000000000001800N
50000878360688203388310       20170116BA551  0050685403P000000001150000000000000000000000000000000000000000000000000000000000N
5000097750670572549695494     20170116BA551  0050695403P000000004520000000000000000000000000000000000000000000000000000000000N
50000053341638830             20170116PE551  0050706102P000000000020000000000002000000000000024000000000000000000000000001200N
50000053341638830             20170116PE551  0050706403P000000005590000000000000000000000000000000000000000000000000000000000N
501514179900436247013861      20170116BA551  0050715403P000000003100000000000000000000000000000000000000000000000000000000000N
50000053341638830             20170116PE551  0050726403P000000001800000000000000000000000000000000000000000000000000000000000N
50000020173225470000000       20170117BA551  0050735403P000000000200000000000000000000000000000000000000000000000000000000000N
5000097750670572549695494     20170117BA551  0050745403P000000002280000000000000000000000000000000000000000000000000000000000N
50000377520305202532207       20170117BA551  0050755102P000000065470400000006547040000000117847000000000000000000000000001800N
50000377520305202532207       20170117BA551  0050755403P000000001309600000000000000000000000000000000000000000000000000000000N
50000792020634001268991       20170117BA551  0050765102P000000002080000000000208000000000003744000000000000000000000000001800N
50000792020634001268991       20170117BA551  0050765102P000000004250000000000140000000000002520000000000000000000000000001800N
50000792020634001268991       20170117BA551  0050765403P000000007670000000000000000000000000000000000000000000000000000000000N
500009802912654982439164      20170117BA551  0050775102P000000031496800000001037500000000018675000000000000000000000000001800N
500009802912654982439164      20170117BA551  0050775403P000000001503200000000000000000000000000000000000000000000000000000000N
50000911089185491495121712    20170117BA551  0050785102P000000002717400000000271740000000004895000000000000000000000000001800N
50000911089185491495121712    20170117BA551  0050785102P000000001617600000000053270000000000958000000000000000000000000001800N
50000911089185491495121712    20170117BA551  0050785403P000000025665000000000000000000000000000000000000000000000000000000000N
50000011398595951136890718    20170117BA551  0050805403P000000000300000000000000000000000000000000000000000000000000000000000N
5000985210000186021932808     20170117PE551  0050816403P000000002860000000000000000000000000000000000000000000000000000000000N
50000211169035040213518996SSP 20170117BA551  0050825102P000000001330000000000133000000000002394000000000000000000000000001800N
5000004822722520462962        20170118BA551  0050835403P000000009500000000000000000000000000000000000000000000000000000000000N
50000396111085910             20170118BA551  0050845403P000000002900000000000000000000000000000000000000000000000000000000000N
50823730770001711018146530    20170118PR551  0050856909P000000003235700000000000000000000000000000000000000000000000000000000N
50000015934175271337321346    20170118BA551  0050865403P000000002200000000000000000000000000000000000000000000000000000000000N
50000183526344530             20170118BA551  0050875102P000000001483700000000148370000000002672000000000000000000000000001800N
50000183526344530             20170118BA551  0050875102P000000000045300000000001490000000000027000000000000000000000000001800N
50000183526344530             20170118BA551  0050875403P000000028471000000000000000000000000000000000000000000000000000000000N
509683207600015237906122      20170118BA551  0050885403P000000005180000000000000000000000000000000000000000000000000000000000N
50000008551094756316947ssppe  20170119BA551  0050895102P000000000040000000000004000000000000072000000000000000000000000001800N
50000008551094756316947ssppe  20170119BA551  0050895102P000000000280000000000009220000000000166000000000000000000000000001800N
50000008551094756316947ssppe  20170119BA551  0050895403P000000001950000000000000000000000000000000000000000000000000000000000N
5000091978190506836967844     20170119BA551  0050905403P000000001600000000000000000000000000000000000000000000000000000000000N
509683207600015237906122      20170119BA551  0050915403P000000003100000000000000000000000000000000000000000000000000000000000N
5000004822722520462962        20170120BA551  0050921202P000000009500000000000000000000000000000000000000000000000000000000000N
50000007989534460453222870    20170120BA551  0050935102P000000001693200000000169320000000003048000000000000000000000000001800N
50000007989534460453222870    20170120BA551  0050935102P000000000461000000000015190000000000273000000000000000000000000001800N
50000007989534460453222870    20170120BA551  0050935403P000000006845800000000000000000000000000000000000000000000000000000000N
50000608449904003388691       20170120BA551  0050945403P000000003600000000000000000000000000000000000000000000000000000000000N
50000772949634874263901SSP    20170120PE551  0050956403P000000002880000000000000000000000000000000000000000000000000000000000N
5017770897000135ISENTO        20170120BA551  0050965102P000000001200000000000120000000000002160000000000000000000000000001800N
5017770897000135ISENTO        20170120BA551  0050965102P000000011500000000000378810000000006819000000000000000000000000001800N
5000004822722520462962        20170120BA551  0050975403P000000002410000000000000000000000000000000000000000000000000000000000N
5000088570274572491840837SSP  20170120BA551  0050985403P000000001400000000000000000000000000000000000000000000000000000000000N
50000843494175911165033437    20170121BA551  0050995403P000000002600000000000000000000000000000000000000000000000000000000000N
5001273669000462037761072     20170123PE551  0051006102P000000000019700000000001970000000000024000000000000000000000000001200N
5001273669000462037761072     20170123PE551  0051006403P000000002780300000000000000000000000000000000000000000000000000000000N
508884768600036336808843      20170123BA551  0051015102P000000002700000000000270000000000004860000000000000000000000000001800N
50000038419704350             20170123PE551  0051026102P000000004800000000000158110000000001897000000000000000000000000001200N
50000310487224492514365       20170123PE551  0051036102P000000000020000000000002000000000000024000000000000000000000000001200N
50000310487224492514365       20170123PE551  0051036403P000000001330000000000000000000000000000000000000000000000000000000000N
5012786836000304072242655     20170123BA551  0051045102P000000022800000000002280000000000041040000000000000000000000000001800N
50000693528794491428211ssp    20170124SP551  0051056403P000000001200000000000000000000000000000000000000000000000000000000000N
50000749082604780             20170124BA551  0051065102P000000000805800000000080580000000001451000000000000000000000000001800N
50000749082604780             20170124BA551  0051065102P000000002478700000000081650000000001470000000000000000000000000001800N
50000749082604780             20170124BA551  0051065403P000000020715500000000000000000000000000000000000000000000000000000000N
5000087831740520783853262     20170124BA551  0051075102P000000000038300000000003830000000000069000000000000000000000000001800N
5000087831740520783853262     20170124BA551  0051075403P000000004661700000000000000000000000000000000000000000000000000000000N
500001800584555330664324      20170124BA551  0051085102P000000000019900000000001990000000000036000000000000000000000000001800N
500001800584555330664324      20170124BA551  0051085403P000000001575100000000000000000000000000000000000000000000000000000000N
50000972128494720             20170124PE551  0051096403P000000001400000000000000000000000000000000000000000000000000000000000N
50000926450975530             20170124BA551  0051105102P000000001720000000000056660000000001020000000000000000000000000001800N
50000926450975530             20170124BA551  0051105403P000000005480000000000000000000000000000000000000000000000000000000000N
509683207600015237906122      20170125BA551  0051115403P000000005760000000000000000000000000000000000000000000000000000000000N
50000520365705004870174       20170125BA551  0051125403P000000002050000000000000000000000000000000000000000000000000000000000N
5000000215999550886641713     20170125BA551  0051135102P000000000330000000000033000000000000594000000000000000000000000001800N
5000000215999550886641713     20170125BA551  0051135403P000000001150000000000000000000000000000000000000000000000000000000000N
5000985210000186021932808     20170125PE551  0051146403P000000002100000000000000000000000000000000000000000000000000000000000N
500001087642159100            20170125BA551  0051155102P000000000060000000000006000000000000108000000000000000000000000001800N
500001087642159100            20170125BA551  0051155403P000000002820000000000000000000000000000000000000000000000000000000000N
5012786836000142016472373     20170125PE551  0051166403P000000008500000000000000000000000000000000000000000000000000000000000N
5001014748000106024344230     20170126PE551  0051176102P000000002537500000000253750000000003045000000000000000000000000001200N
5001014748000106024344230     20170126PE551  0051176403P000000009535000000000000000000000000000000000000000000000000000000000N
50000183526344530             20170126BA551  0051185403P000000002400000000000000000000000000000000000000000000000000000000000N
50000019639245411321328931    20170126BA551  0051195403P000000001800000000000000000000000000000000000000000000000000000000000N
5001014748000106024344230     20170127PE551  0051206403P000000010400000000000000000000000000000000000000000000000000000000000N
501049876400053641815653      20170127PE551  0051216403P000000002360000000000000000000000000000000000000000000000000000000000N
5004785526000266030951348     20170127PE551  0051226102P000000003346200000000334620000000004016000000000000000000000000001200N
5004785526000266030951348     20170127PE551  0051226403P000000015153800000000000000000000000000000000000000000000000000000000N
500002275711201556265473      20170127PE551  0051236102P000000000058600000000005860000000000070000000000000000000000000001200N
500002275711201556265473      20170127PE551  0051236403P000000011341400000000000000000000000000000000000000000000000000000000N
50000641442164200             20170127PE551  0051246102P000000000039800000000003980000000000048000000000000000000000000001200N
50000641442164200             20170127PE551  0051246102P000000000467900000000015410000000000185000000000000000000000000001200N
50000641442164200             20170127PE551  0051246403P000000015392300000000000000000000000000000000000000000000000000000000N
500005368741847232106295SSP   20170127PE551  0051256102P000000000277800000000027780000000000334000000000000000000000000001200N
500005368741847232106295SSP   20170127PE551  0051256102P000000004833400000000159210000000001911000000000000000000000000001200N
500005368741847232106295SSP   20170127PE551  0051256403P000000004888800000000000000000000000000000000000000000000000000000000N
50000388645504102784264       20170127BA551  0051265102P000000000110000000000011000000000000198000000000000000000000000001800N
50000388645504102784264       20170127BA551  0051265403P000000001580000000000000000000000000000000000000000000000000000000000N
50000213789218952148381       20170127BA551  0051275102P000000004480000000000448000000000008064000000000000000000000000001800N
50000213789218952148381       20170127BA551  0051275403P000000002020000000000000000000000000000000000000000000000000000000000N
50000014611935590             20170130BA551  0051285102P000000000400000000000040000000000000720000000000000000000000000001800N
50000027923328080             20170130BA551  0051295403P000000001750000000000000000000000000000000000000000000000000000000000N
500001797516655302394210203SSP20170130BA551  0051305102P000000000740000000000074000000000001332000000000000000000000000001800N
500001797516655302394210203SSP20170130BA551  0051305403P000000000910000000000000000000000000000000000000000000000000000000000N
50000058057735031304655423    20170130BA551  0051315403P000000008750000000000000000000000000000000000000000000000000000000000N
509683207600015237906122      20170130BA551  0051325102P000000000240000000000024000000000000432000000000000000000000000001800N
509683207600015237906122      20170130BA551  0051325403P000000000235000000000000000000000000000000000000000000000000000000000N
5000094700702591854781480     20170130BA551  0051335403P000000001870000000000000000000000000000000000000000000000000000000000N
500009899595284911566164      20170130BA551  0051345102P000000000250000000000025000000000000450000000000000000000000000001800N
500009899595284911566164      20170130BA551  0051345403P000000002420000000000000000000000000000000000000000000000000000000000N
500917510300016775619790      20170130BA551  0051355403P000000002675000000000000000000000000000000000000000000000000000000000N
50000028587934095621851       20170130PE551  0051366403P000000004650000000000000000000000000000000000000000000000000000000000N
5001177663000149ISENTO        20170131BA551  0051375102P000000000480000000000015810000000000285000000000000000000000000001800N
50000371959645150             20170131BA551  0051385102P000000004050000000000133410000000002402000000000000000000000000001800N
50000371959645150             20170131BA551  0051385403P000000000300000000000000000000000000000000000000000000000000000000000N
508884768600036336808843      20170131BA551  0051395102P000000000551400000000055140000000000993000000000000000000000000001800N
508884768600036336808843      20170131BA551  0051395403P000000008948600000000000000000000000000000000000000000000000000000000N
508884768600036336808843      20170131BA551  0051405403P000000023500000000000000000000000000000000000000000000000000000000000N
5000055000550544411576992     20170131BA551  0051415929P000000058000000000001910520000000034389000000000000000000000000001800N
50000377520305202532207       20170131BA551  0051425102P000000002335500000000233550000000004204000000000000000000000000001800N
50000377520305202532207       20170131BA551  0051425102P000000003510800000000115640000000002081000000000000000000000000001800N
50000377520305202532207       20170131BA551  0051425403P000000001953700000000000000000000000000000000000000000000000000000000N
5004875268000128126280010     20170131BA551  0051435102P000000000972300000000097230000000001751000000000000000000000000001800N
5004875268000128126280010     20170131BA551  0051435403P000000024017700000000000000000000000000000000000000000000000000000000N
50000347375705593652807SSP    20170131BA551  0051445403P000000003700000000000000000000000000000000000000000000000000000000000N
50000015934175271337321346    20170131BA551  0051455102P000000000150100000000015010000000000270000000000000000000000000001800N
50000015934175271337321346    20170131BA551  0051455403P000000003049900000000000000000000000000000000000000000000000000000000N
5070080627000185019941072     20170104PE551  0052822403T000000000660000000000000000000000000000000000000000000000000000000000N
5070080627000185019941072     20170124PE551  0053172403T000000002140000000000000000000000000000000000000000000000000000000000N
501431769700013317030883      20170127BA551  0064221403T000000002200000000000000000000000000000000000000000000000000000000000N
5096562152000157304037719111  20170125SP551  0082202403T000000010178100000000000000000000000000000000000000000000000000000000N
5000985210000186021932808     20170112PE551  0102552403T000000005255000000000000000000000000000000000000000000000000000000000N
5012869186000107013828100     20170118PE551  0106822102T000000006140000000000614000000000007368000000000000000000000000001200N
5012786836000142016472373     20170131PE551  0114202411P000000000405000000000040500000000000486000000000000000000000000001200N
5012786836000142016472373     20170131PE551  0114202411P000000008810000000000000000000000000000000000000000000000000000000000N
5004831230000153467069734118  20170112SP551  0183452102T000000001676000000000167600000000001174000000000000000000000000000700N
5004831230000153467069734118  20170112SP551  0183452102T000000011498400000000844330000000005910000000000000000000000000000700N
5003747886000120714041545111  20170124SP553  0212132403T000000023505100000002350510000000016454000000000000000000000000000700N
5003747886000120714041545111  20170131SP553  0214442102T000000001189500000000118950000000000833000000000000000000000000000700N
5003747886000120714041545111  20170131SP553  0214442403T000000002492000000000000000000000000000000000000000000000000000000000N
5003747886000120714041545111  20170131SP553  0214442403T000000010749100000001074910000000007524000000000000000000000000000700N
5046127635000236639097367118  20170126SP555  0280162102T000000003333000000000333400000000002333000000000000000000000000000700N
5046127635000236639097367118  20170126SP555  0280162403T000000011588100000000850930000000005957000000000000000000000000000700N
5046127635000236639097367118  20170130SP555  0281392102T000000006144600000000614480000000004301000000000000000000000000000700N
500452346200014455610463      20170104BA552  0377951102T000000003600000000000211750000000003812000000000000000000000000001800N
500452346200014455610463      20170104BA552  0377951403T000000000480000000000000000000000000000000000000000000000000000000000N
509683207600015237906122      20170112BA551  0389981102T000000000144800000000014480000000000261000000000000000000000000001800N
509683207600015237906122      20170112BA551  0389981403T000000004328500000000000000000000000000000000000000000000000000000000N
509683207600015237906122      20170113BA551  0390181403T000000007736000000000000000000000000000000000000000000000000000000000N
509683207600015237906122      20170119BA551  0390831102T000000000767300000000076730000000001381000000000000000000000000001800N
509683207600015237906122      20170119BA551  0390831403T000000002870800000000000000000000000000000000000000000000000000000000N
509683207600015237906122      20170126BA551  0392091102T000000001525400000000153090000000002756000000000000000000000000001800N
509683207600015237906122      20170126BA551  0392091403T000000003132600000000000000000000000000000000000000000000000000000000N
509683207600015237906122      20170127BA551  0392321403T000000004182000000000000000000000000000000000000000000000000000000000N
5011031766000150104521716     20170111GO551  0464772102T000000000410000000000041950000000000168000000000000000000000000000400N
5011031766000150104521716     20170111GO551  0464772102T000000000612000000000061820000000000742000000000000000000000000001200N
5011031766000150104521716     20170111GO551  0464772403T000000001484000000000149730000000000599000000000000000000000000000400N
5011031766000150104521716     20170111GO551  0464772403T000000001962000000000199760000000002397000000000000000000000000001200N
500299140900014250333187      20170123BA551  0548161102T000000000209900000000021000000000000378000000000000000000000000001800N
500299140900014250333187      20170123BA551  0548161403T000000000686500000000000000000000000000000000000000000000000000000000N
500299140900014250333187      20170124BA551  0548911403T000000003649900000000000000000000000000000000000000000000000000000000N
500299140900014250333187      20170125BA551  0549161403T000000001709900000000000000000000000000000000000000000000000000000000N
500274517900013149534519      20170104BA553  0657631403T000000009080000000000000000000000000000000000000000000000000000000000N
500274517900013149534519      20170110BA553  0658611403T000000002198800000000000000000000000000000000000000000000000000000000N
500274517900013149534519      20170113BA553  0659771403T000000004800000000000000000000000000000000000000000000000000000000000N
500274517900013149534519      20170130BA553  0662431403T000000015112000000000000000000000000000000000000000000000000000000000N
5077310589000159144410696117  20170111SP552  0857702102T000000000502400000000050350000000000201000000000000000000000000000400N
5077310589000159144410696117  20170111SP552  0857702102T000000015929600000001596450000000011175000000000000000000000000000700N
5077310589000159144410696117  20170111SP552  0857702403T000000023731700000002378370000000009512000000000000000000000000000400N
5077310589000159144410696117  20170111SP552  0857702403T000000030685800000003075220000000021527000000000000000000000000000700N
5077310589000159144410696117  20170126SP552  0886672403T000000007107200000000716320000000005015000000000000000000000000000700N
50935655050001840290229294    20170116RS551  0957582403T000000016756300000001815650000000012711000000000000000000000000000700N
50935655050001840290229294    20170131RS551  0961812403T000000002739200000000274090000000001917000000000000000000000000000700N
5008274505000156441110383111  20170131SP551  0981412102T000000000426800000000042680000000000299000000000000000000000000000700N
5008274505000156441110383111  20170131SP551  0981412403T000000000160300000000016040000000000113000000000000000000000000000700N
5008274505000156441110383111  20170131SP551  0981412102T000000008568800000000501880000000003512000000000000000000000000000700N
5008274505000156441110383111  20170131SP551  0981412403T000000006600000000000386570000000002706000000000000000000000000000700N
5007923487000123034232478     20170119PE551  1038912403T000000003500000000000000000000000000000000000000000000000000000000000N
5052311347000906441016953110  20170125SP551  2531122102T000000009037000000000529390000000003706000000000000000000000000000700N
5052311289000163441000151114  20170103SP550  3061312102T000000126000000000007573600000000053010000000000000000000000000000700N
5052311289000163441000151114  20170131SP550  3087932102T000000037486000000002195470000000015368000000000000000000000000000700N
501407688900028604585710      20170106BA551  3497031652T000000023455300000000000000000000000000000000000000000000000000000000N
501407688900028604585710      20170111BA551  3509211652T000000015850600000000000000000000000000000000000000000000000000000000N
501407688900028604585710      20170125BA551  3539151652T000000043449800000000000000000000000000000000000000000000000000000000N
5413911881000144011  000159110260 0011688          000000020000000000010000000000000000000000000000000000000000000000000000000
5413911881000144011  000159110260 0024896          000000010000000000100000000000000000000000000000000000000000000000000000000
5413911881000144011  000159110260 0033810          000000010000000000120000000000000000000000000000000000000000000000000000000
5413911881000144011  000159110260 0042379          000000100000000000008000000000000000000000000000000000000000000000000000000
5413911881000144011  000159110260 0054488          000000400000000000012000000000000000000000000000000000000000000000000000000
5413911881000144011  000159110260 0064487          000000400000000000016000000000000000000000000000000000000000000000000000000
5413911881000144011  000159110260 0074747          000000010000000000005000000000000000000000000000000000000000000000000000000
5413911881000144011  000160110260 0015930          000000010000000000080000000000000000000000000000000000000000000000000000000
5413911881000144011  000160110260 0025932          000000040000000000016000000000000000000000000000000000000000000000000000000
5413911881000144011  000160110260 0035931          000000010000000000018000000000000000000000000000000000000000000000000000000
5400001412416590551  000301594990 0011726          000000010000000000100000000000000000000000000000000000000000000000000000000
5400097719838572551  000302594990 001990           000001600000000000224000000000000000000000000000000000000000000000000000000
5400097719838572551  000302594990 002992           000000010000000000300000000000000000000000000000000000000000000000000000000
5400002542075530551  000304594990 001988           000000010000000000600000000000000000000000000000000000000000000000000000000
5400002542075530551  000304594990 002990           000000500000000000070000000000000000000000000000000000000000000000000000000
5408694543000400551  000305594990 0011726          000000010000000000250000000000000000000000000000000000000000000000000000000
5408694543000400551  000305594990 002990           000001160000000000162400000000000000000000000000000000000000000000000000000
5408694543000400551  000306594990 0011726          000000010000000000180000000000000000000000000000000000000000000000000000000
5412786836000142551  000307694990 0011726          000000010000000001800000000000000000000000000000000000000000000000000000000
5412786836000142551  000307694990 0022222          000000010000000000480000000000000000000000000000000000000000000000000000000
5400047214473534551  000309594990 0011726          000000010000000000300000000000000000000000000000000000000000000000000000000
5400047214473534551  000309594990 002990           000000800000000000112000000000000000000000000000000000000000000000000000000
5410498764000536551  000310694990 001990           000000700000000000098000000000000000000000000000000000000000000000000000000
5410498764000536551  000310694990 002980           000000010000000000150000000000000000000000000000000000000000000000000000000
5410498764000536551  000310694990 0031180          000000010000000000160000000000000000000000000000000000000000000000000000000
5404875268000128551  000312594990 001990           000002330000000000326200000000000000000000000000000000000000000000000000000
5404875268000128551  000312594990 0021750          000000010000000000200000000000000000000000000000000000000000000000000000000
5400049138278472551  000314694990 001992           000000010000000000335200000000000000000000000000000000000000000000000000000
5400049138278472551  000314694990 002990           000000820000000000114800000000000000000000000000000000000000000000000000000
5400005334163883551  000315694990 0011751          000000010000000000100000000000000000000000000000000000000000000000000000000
5400037752030520551  000316594990 0011726          000000010000000000800000000000000000000000000000000000000000000000000000000
5400037752030520551  000316594990 0022222          000000010000000000480000000000000000000000000000000000000000000000000000000
5400000798953446551  000318594990 001980           000000010000000000120000000000000000000000000000000000000000000000000000000
5401273669000462551  000320694990 001990           000000460000000000063330000000001070000000000000000000000000000000000000000
5401273669000462551  000320694990 0021726          000000010000000000196670000000003330000000000000000000000000000000000000000
5400031048722449551  000322694990 0011726          000000010000000000100000000000000000000000000000000000000000000000000000000
5400031048722449551  000322694990 002990           000001700000000000238000000000000000000000000000000000000000000000000000000
5400002542075530551  000323594990 0011726          000000010000000000180000000000000000000000000000000000000000000000000000000
5400002542075530551  000323594990 002990           000000500000000000070000000000000000000000000000000000000000000000000000000
5400018005845553551  000326594990 001990           000000470000000000070500000000000000000000000000000000000000000000000000000
5400018005845553551  000326594990 002978           000000010000000000120000000000000000000000000000000000000000000000000000000
5400010876421591551  000327594990 001972           000000010000000000299660000000000340000000000000000000000000000000000000000
5400010876421591551  000327594990 002990           000000360000000000050340000000000060000000000000000000000000000000000000000
5410498764000536551  000328694990 001990           000000720000000000100800000000000000000000000000000000000000000000000000000
5410498764000536551  000328694990 0021180          000000010000000000130000000000000000000000000000000000000000000000000000000
5404785526000266551  000329694990 001990           000001000000000000140000000000000000000000000000000000000000000000000000000
5404785526000266551  000329694990 0021726          000000010000000000600000000000000000000000000000000000000000000000000000000
5400022757112015551  000330694990 001990           000000450000000000062540000000000460000000000000000000000000000000000000000
5400022757112015551  000330694990 0021726          000000010000000000347460000000002540000000000000000000000000000000000000000
5400064144216420551  000331694990 001990           000001050000000000147000000000000000000000000000000000000000000000000000000
5400064144216420551  000331694990 0021726          000000010000000000250000000000000000000000000000000000000000000000000000000
5400064144216420551  000331694990 0032222          000000010000000000490000000000000000000000000000000000000000000000000000000
5400053687418472551  000332694990 001976           000000010000000000250000000000000000000000000000000000000000000000000000000
5400053687418472551  000332694990 002990           000001200000000000168000000000000000000000000000000000000000000000000000000
5400037752030520551  000334594990 0011180          000000010000000000450000000000000000000000000000000000000000000000000000000
5400037752030520551  000334594990 0021726          000000010000000000150000000000000000000000000000000000000000000000000000000
5400001593417527551  000335594990 0011750          000000010000000000180000000000000000000000000000000000000000000000000000000
5404875268000128551  000336594990 001992           000000010000000000347240000000002760000000000000000000000000000000000000000
5404875268000128551  000336594990 002990           000002050000000000284730000000002270000000000000000000000000000000000000000
5404875268000128551  000336594990 0031180          000000010000000000248030000000001970000000000000000000000000000000000000000
5407919969000100551  001088210200 0011143          000003000000000000300000000000000000000000000000000000000000000000000000000
54000999999999992D1  003635510200 001717           000000040000000000002000000000000000000000002000000000000000000000000001800
54000999999999992D1  003635540360 0024912          000000100000000000018000000000002000000000000000000000000000000000000000000
54000999999999992D1  003636540360 0013774          000000010000000000011750000000000250000000000000000000000000000000000000000
54000999999999992D1  003636510200 002472           000000050000000000003250000000000000000000003250000000000000000000000001800
54000999999999992D1  003637540360 001215           000000010000000000017000000000003000000000000000000000000000000000000000000
54000999999999992D1  003637540360 0021002          000000050000000000010000000000000000000000000000000000000000000000000000000
54000999999999992D1  003637540360 003538           000000010000000000028000000000003000000000000000000000000000000000000000000
54000999999999992D1  003638540360 0011059          000000060000000000024000000000000000000000000000000000000000000000000000000
54000999999999992D1  003639540360 001681           000000010000000000025000000000004000000000000000000000000000000000000000000
54000999999999992D1  003639540360 0021987          000000010000000000053000000000004000000000000000000000000000000000000000000
54000999999999992D1  003639540360 0031767          000000010000000000012000000000000000000000000000000000000000000000000000000
54000999999999992D1  003643510200 001727           000000010000000000008000000000001000000000008000000000000000000000000001800
54000999999999992D1  003643510200 002803           000000010000000000025000000000003000000000025000000000000000000000000001800
54000999999999992D1  003644540360 0014493          000000010000000000010000000000002000000000000000000000000000000000000000000
54000999999999992D1  003645510200 0011122          000000010000000000027500000000000500000000027500000000000000000000000001800
54000999999999992D1  003645510200 0021271          000000070000000000010500000000000000000000010500000000000000000000000001800
54000999999999992D1  003646540360 0011307          000000020000000000025000000000001000000000000000000000000000000000000000000
54000360064835722D1  003647510200 0011609          000000010000000000028000000000001000000000028000000000000000000000000001800
54000999999999992D1  003648540360 0013147          000000030000000000120000000000006000000000000000000000000000000000000000000
54000999999999992D1  003649540360 001770           000000030000000000045000000000006000000000000000000000000000000000000000000
54000999999999992D1  003650540360 0015161          000000010000000000094000000000006000000000000000000000000000000000000000000
54000999999999992D1  003651540360 001770           000000030000000000048000000000003000000000000000000000000000000000000000000
54000999999999992D1  003652510200 001804           000000010000000000174000000000024000000000174000000000000000000000000001800
54000999999999992D1  003652510200 002757           000000060000000000009000000000003000000000009000000000000000000000000001800
54000999999999992D1  003652510200 003810           000000060000000000012000000000003000000000012000000000000000000000000001800
54000999999999992D1  003653540360 0011561          000000010000000000055000000000008000000000000000000000000000000000000000000
54000097384506672D1  003654540360 0013189          000000010000000000014000000000000000000000000000000000000000000000000000000
54000097384506672D1  003654540360 00261            000000010000000000036000000000000000000000000000000000000000000000000000000
54000097384506672D1  003654510220 0031080          000000010000000000227000000000000000000000227000000000000000000000000000560
54000097384506672D1  003654540360 0041595          000000010000000000067000000000000000000000000000000000000000000000000000000
54000097384506672D1  003654540360 0051596          000000010000000000060000000000000000000000000000000000000000000000000000000
54000097384506672D1  003654540360 0063145          000000020000000000074000000000000000000000000000000000000000000000000000000
54000097384506672D1  003654540360 0075066          000000010000000000187000000000000000000000000000000000000000000000000000000
54000999999999992D1  003655540360 001153           000000010000000000022000000000002000000000000000000000000000000000000000000
54000356079474912D1  003656640360 001770           000000010000000000015000000000002000000000000000000000000000000000000000000
54000999999999992D1  003657540360 0014959          000000010000000000015000000000000000000000000000000000000000000000000000000
54000999999999992D1  003658540360 001608           000000010000000000185000000000005000000000000000000000000000000000000000000
54000999999999992D1  003659510200 0011762          000000010000000000200000000000015000000000200000000000000000000000000001800
54000999999999992D1  003660510200 0012572          000000010000000000140000000000016000000000140000000000000000000000000001800
54000999999999992D1  003661540360 0013189          000000010000000000011000000000003000000000000000000000000000000000000000000
54000999999999992D1  003661540360 0023145          000000030000000000102000000000009000000000000000000000000000000000000000000
54000999999999992D1  003661540360 0031875          000000010000000000010000000000002000000000000000000000000000000000000000000
54000999999999992D1  003661540360 0041145          000000010000000000023000000000003000000000000000000000000000000000000000000
54000999999999992D1  003661540360 00565            000000020000000000024000000000004000000000000000000000000000000000000000000
54000999999999992D1  003663540360 00182            000000010000000000097000000000000000000000000000000000000000000000000000000
54000999999999992D1  003663510200 0021143          000000010000000000002000000000000000000000002000000000000000000000000001800
54000999999999992D1  003663540360 0031430          000000010000000000012000000000000000000000000000000000000000000000000000000
54000999999999992D1  003663540360 0041846          000000010000000000020000000000000000000000000000000000000000000000000000000
54000999999999992D1  003663540360 0053051          000000010000000000140000000000005000000000000000000000000000000000000000000
54000999999999992D1  003663540360 0065201          000000010000000000065000000000000000000000000000000000000000000000000000000
54000999999999992D1  003664510220 0011884          000000010000000000075000000000003000000000075000000000000000000000000000560
54000999999999992D1  003665540360 0013147          000000010000000000040000000000002000000000000000000000000000000000000000000
54000999999999992D1  003666510200 0015432          000000010000000000042000000000004000000000042000000000000000000000000001800
54000999999999992D1  003666510200 0025433          000000010000000000038000000000004000000000038000000000000000000000000001800
54000472144735342D1  003667540360 0013147          000000010000000000041980000000000020000000000000000000000000000000000000000
54000472144735342D1  003667540360 0023822          000000010000000000102960000000000040000000000000000000000000000000000000000
54000472144735342D1  003667540360 0033823          000000010000000000058970000000000030000000000000000000000000000000000000000
54000472144735342D1  003667540360 004207           000000010000000000059970000000000030000000000000000000000000000000000000000
54000472144735342D1  003667540360 005215           000000020000000000039980000000000020000000000000000000000000000000000000000
54000472144735342D1  003667540360 006320           000000010000000000171930000000000070000000000000000000000000000000000000000
54000472144735342D1  003667540360 007471           000000010000000000052980000000000020000000000000000000000000000000000000000
54000472144735342D1  003667540360 008538           000000010000000000030990000000000010000000000000000000000000000000000000000
54000472144735342D1  003667540360 009842           000000010000000000162930000000000070000000000000000000000000000000000000000
54000472144735342D1  003667510200 0101143          000000040000000000008000000000000000000000008000000000000000000000000001800
54000472144735342D1  003667540360 0111145          000000010000000000025990000000000010000000000000000000000000000000000000000
54000472144735342D1  003667540360 0122800          000000060000000000089960000000000040000000000000000000000000000000000000000
54000472144735342D1  003667540360 0132997          000000010000000000231900000000000100000000000000000000000000000000000000000
54000472144735342D1  003667540360 0143146          000000050000000001279460000000000540000000000000000000000000000000000000000
54000999999999992D1  003668510200 0011679          000000020000000000003000000000000000000000003000000000000000000000000001800
54000999999999992D1  003668540360 0025805          000000010000000000120000000000031000000000000000000000000000000000000000000
54000999999999992D1  003668540360 0035601          000000020000000000023000000000003000000000000000000000000000000000000000000
54000999999999992D1  003668540360 0042133          000000010000000000019000000000002000000000000000000000000000000000000000000
54000999999999992D1  003668540360 0052132          000000010000000000013500000000001500000000000000000000000000000000000000000
54000999999999992D1  003668510200 0061271          000000010000000000001500000000000000000000001500000000000000000000000001800
54000999999999992D1  003668510200 0071105          000000010000000000014000000000001000000000014000000000000000000000000001800
54000999999999992D1  003668540360 008996           000000010000000000008000000000002000000000000000000000000000000000000000000
54000999999999992D1  003668510200 009753           000000010000000000003000000000000500000000003000000000000000000000000001800
54000999999999992D1  003668540360 010267           000000010000000000050000000000004000000000000000000000000000000000000000000
54000999999999992D1  003668540360 011217           000000010000000000035000000000002000000000000000000000000000000000000000000
54000097384506672D1  003669540360 0012873          000000020000000000102000000000010000000000000000000000000000000000000000000
54000097384506672D1  003669540360 0022877          000000020000000000098000000000004000000000000000000000000000000000000000000
54000053341638832D1  003670610200 0011060          000000040000000000010000000000000000000000010000000000000000000000000001200
54000999999999992D1  003671540360 001215           000000010000000000020000000000000000000000000000000000000000000000000000000
54000999999999992D1  003671540360 0023145          000000030000000000105000000000006000000000000000000000000000000000000000000
54000999999999992D1  003671510200 0031143          000000010000000000002000000000000000000000002000000000000000000000000001800
54000999999999992D1  003671540360 004538           000000010000000000030000000000001000000000000000000000000000000000000000000
54000999999999992D1  003672540360 001491           000000010000000000030000000000001000000000000000000000000000000000000000000
54000999999999992D1  003673510200 001277           000000010000000000022000000000004000000000022000000000000000000000000001800
54000999999999992D1  003673510200 002279           000000010000000000043000000000004000000000043000000000000000000000000001800
54000999999999992D1  003674540360 001183           000000010000000000075000000000006000000000000000000000000000000000000000000
54000027923328082D1  003675540360 0012112          000000010000000000042000000000004000000000000000000000000000000000000000000
54000027923328082D1  003675510200 0021028          000000010000000000018000000000000000000000018000000000000000000000000001800
54000027923328082D1  003675540360 003154           000000010000000000035000000000000000000000000000000000000000000000000000000
54000999999999992D1  003676540360 0011250          000000100000000000010000000000000000000000000000000000000000000000000000000
54000999999999992D1  003676540360 0021249          000000100000000000010000000000000000000000000000000000000000000000000000000
54000999999999992D1  003677510200 001831           000000010000000000006000000000000000000000006000000000000000000000000001800
54000999999999992D1  003677510200 002742           000000010000000000001500000000000000000000001500000000000000000000000001800
54000999999999992D1  003677540360 003770           000000010000000000015500000000001500000000000000000000000000000000000000000
54000999999999992D1  003677510200 004771           000000010000000000002000000000000000000000002000000000000000000000000001800
54000999999999992D1  003678540360 0011059          000000050000000000017000000000003000000000000000000000000000000000000000000
54000999999999992D1  003679540360 001715           000000010000000000095000000000010000000000000000000000000000000000000000000
54000999999999992D1  003680540360 0015650          000000070000000000084000000000035000000000000000000000000000000000000000000
54000999999999992D1  003680540360 0021683          000000070000000000091000000000000000000000000000000000000000000000000000000
54000999999999992D1  003681510200 0011129          000000010000000000010000000000000000000000010000000000000000000000000001800
54000999999999992D1  003681510200 0021028          000000010000000000017600000000000400000000017600000000000000000000000001800
54000999999999992D1  003681510200 0031130          000000020000000000000400000000000000000000000400000000000000000000000001800
54000999999999992D1  003682510200 0012039          000000020000000000020000000000000000000000020000000000000000000000000001800
54000999999999992D1  003682510220 0021125          000000010000000000185000000000007000000000185000000000000000000000000000560
54000999999999992D1  003683540360 001215           000000010000000000020000000000000000000000000000000000000000000000000000000
54000999999999992D1  003684510200 0011128          000000010000000000028000000000002000000000028000000000000000000000000001800
54000999999999992D1  003685540360 0015505          000000010000000000099000000000006000000000000000000000000000000000000000000
54000999999999992D1  003685540360 0024645          000000010000000000270000000000013000000000000000000000000000000000000000000
54000999999999992D1  003685540360 0032699          000000010000000000000500000000000000000000000000000000000000000000000000000
54000999999999992D1  003685540360 0041396          000000010000000000000500000000000000000000000000000000000000000000000000000
54000999999999992D1  003687540360 001596           000000010000000000045000000000003000000000000000000000000000000000000000000
54000999999999992D1  003688510200 001750           000000010000000000024000000000002000000000024000000000000000000000000001800
54000999999999992D1  003688540360 002871           000000010000000000009000000000001000000000000000000000000000000000000000000
54000999999999992D1  003688510200 003478           000000010000000000001500000000000000000000001500000000000000000000000001800
54000999999999992D1  003689540360 0012873          000000010000000000050000000000006000000000000000000000000000000000000000000
54000418621474342D1  003691540360 001786           000000020000000000091920000000010080000000000000000000000000000000000000000
54000418621474342D1  003691540360 0024435          000000010000000000108120000000011880000000000000000000000000000000000000000
54000418621474342D1  003691540360 0033712          000000010000000000114440000000012560000000000000000000000000000000000000000
54000418621474342D1  003691540360 0043027          000000010000000000011710000000001290000000000000000000000000000000000000000
54000418621474342D1  003691540360 0053016          000000020000000000129730000000014270000000000000000000000000000000000000000
54000418621474342D1  003691510220 0062099          000000030000000000137850000000015150000000137850000000000000000000000000560
54000418621474342D1  003691540360 0071913          000000010000000000006320000000000680000000000000000000000000000000000000000
54000418621474342D1  003691540360 0081430          000000010000000000010810000000001190000000000000000000000000000000000000000
54000418621474342D1  003691510200 0091271          000000010000000000001360000000000140000000001360000000000000000000000001800
54000418621474342D1  003691540360 0101153          000000010000000000050450000000005550000000000000000000000000000000000000000
54000418621474342D1  003691540360 0111144          000000010000000000016230000000001770000000000000000000000000000000000000000
54000418621474342D1  003691510200 0121143          000000020000000000003590000000000410000000003590000000000000000000000001800
54000418621474342D1  003691540360 0131004          000000080000000000014400000000001600000000000000000000000000000000000000000
54000418621474342D1  003691540360 014798           000000020000000000169410000000018590000000000000000000000000000000000000000
54000418621474342D1  003691540360 015538           000000010000000000027940000000003060000000000000000000000000000000000000000
54000418621474342D1  003691510200 016477           000000020000000000001800000000000200000000001800000000000000000000000001800
54000418621474342D1  003691540360 017362           000000010000000000067580000000007420000000000000000000000000000000000000000
54000418621474342D1  003691540360 0185352          000000010000000000110820000000012180000000000000000000000000000000000000000
54000418621474342D1  003691540360 0194679          000000010000000001974170000000216830000000000000000000000000000000000000000
54000418621474342D1  003691510200 0204678          000000030000000000051350000000005650000000051350000000000000000000000001800
54000999999999992D1  003692510200 00189            000000010000000000003000000000000000000000003000000000000000000000000001800
54000999999999992D1  003693510200 0013005          000000010000000000090000000000004000000000090000000000000000000000000001800
54000999999999992D1  003694540360 001215           000000010000000000020000000000000000000000000000000000000000000000000000000
54000052111914632D1  003695610200 0011272          000000020000000000040000000000006000000000040000000000000000000000000001200
54000052111914632D1  003695640360 0021978          000000010000000000370000000000105000000000000000000000000000000000000000000
54000052111914632D1  003695610200 0031298          000000020000000000010000000000000000000000010000000000000000000000000001200
54000052111914632D1  003695640360 004428           000000010000000000338000000000084000000000000000000000000000000000000000000
54000052111914632D1  003695610220 0051125          000000010000000000178000000000014000000000178000000000000000000000000000560
54000999999999992D1  003696540360 001131           000000010000000000053000000000005000000000000000000000000000000000000000000
54000999999999992D1  003696540360 0022625          000000010000000000042000000000004000000000000000000000000000000000000000000
54000999999999992D1  003697540360 0011059          000000020000000000008000000000000000000000000000000000000000000000000000000
54000999999999992D1  003697540360 002432           000000010000000000470000000000070000000000000000000000000000000000000000000
54000999999999992D1  003697510200 003475           000000020000000000001000000000000000000000001000000000000000000000000001800
54000999999999992D1  003697510200 004478           000000010000000000001500000000000000000000001500000000000000000000000001800
54000999999999992D1  003697540360 005661           000000010000000000014500000000001500000000000000000000000000000000000000000
54000999999999992D1  003697510200 006765           000000020000000000003000000000000000000000003000000000000000000000000001800
54000999999999992D1  003697510200 007779           000000020000000000012000000000002000000000012000000000000000000000000001800
54000999999999992D1  003697540360 0085616          000000010000000000125000000000020000000000000000000000000000000000000000000
54000999999999992D1  003698510200 0011609          000000010000000000030000000000000000000000030000000000000000000000000001800
54000999999999992D1  003699540360 0011030          000000010000000000015000000000000000000000000000000000000000000000000000000
54000638818885002D1  003700540360 001247           000000010000000000045000000000000000000000000000000000000000000000000000000
54000638818885002D1  003700510200 0023476          000000010000000000003000000000000000000000003000000000000000000000000001800
54000638818885002D1  003700540360 003228           000000010000000000062000000000000000000000000000000000000000000000000000000
54000772260894912D1  003701540360 0012349          000000080000000000036000000000000000000000000000000000000000000000000000000
54000772260894912D1  003701510200 002713           000000080000000000004000000000000000000000004000000000000000000000000001800
54000772260894912D1  003701510200 0034672          000000080000000000008000000000000000000000008000000000000000000000000001800
54000999999999992D1  003702510200 0011105          000000010000000000015000000000000000000000015000000000000000000000000001800
54000999999999992D1  003703540360 0011058          000000010000000000014000000000000000000000000000000000000000000000000000000
54000999999999992D1  003703540360 0021059          000000010000000000004000000000000000000000000000000000000000000000000000000
54000999999999992D1  003703510200 003867           000000010000000000002000000000000000000000002000000000000000000000000001800
54000749869023342D1  003704510220 0011102          000000010000000000150000000000013000000000150000000000000000000000000000560
54000749869023342D1  003704510200 0021272          000000020000000000040000000000006000000000040000000000000000000000000001800
54000749869023342D1  003704510200 0031298          000000020000000000010000000000000000000000010000000000000000000000000001800
54000999999999992D1  003705510200 001201           000000010000000000007000000000000000000000007000000000000000000000000001800
54000999999999992D1  003705540360 002237           000000020000000000016000000000000000000000000000000000000000000000000000000
54000999999999992D1  003705510200 0031271          000000030000000000004500000000000000000000004500000000000000000000000001800
54000999999999992D1  003705510200 004867           000000020000000000003000000000000000000000003000000000000000000000000001800
54000999999999992D1  003707540360 0012573          000000010000000000150000000000040000000000000000000000000000000000000000000
54000999999999992D1  003707510200 0021117          000000030000000000285000000000003000000000285000000000000000000000000001800
54000999999999992D1  003708540360 0011862          000000010000000000148000000000002000000000000000000000000000000000000000000
54000999999999992D1  003709540360 001215           000000010000000000020000000000000000000000000000000000000000000000000000000
54000999999999992D1  003709540360 0023768          000000010000000000245000000000022000000000000000000000000000000000000000000
54000636273965532D1  003710540360 0012997          000000020000000000460000000000004000000000000000000000000000000000000000000
54000636273965532D1  003710540360 002538           000000030000000000090000000000003000000000000000000000000000000000000000000
54000999999999992D1  003711540360 0011645          000000010000000000040000000000003000000000000000000000000000000000000000000
54000999999999992D1  003712540360 0015755          000000010000000000030000000000001000000000000000000000000000000000000000000
54000999999999992D1  003712540360 0023193          000000010000000000020000000000000000000000000000000000000000000000000000000
54000503719835682D1  003713510220 0011102          000000010000000000160000000000003000000000160000000000000000000000000000560
54000503719835682D1  003713510200 0022039          000000020000000000020000000000000000000000020000000000000000000000000001800
54000999999999992D1  003714510200 001480           000000010000000000001000000000000000000000001000000000000000000000000001800
54000999999999992D1  003714540360 0024376          000000010000000000067000000000006000000000000000000000000000000000000000000
54000999999999992D1  003715510200 0011060          000000030000000000007500000000000000000000007500000000000000000000000001800
54000505437506632D1  003716540360 001770           000000010000000000015000000000002000000000000000000000000000000000000000000
54000280493149872D1  003717540360 001247           000000010000000000040000000000005000000000000000000000000000000000000000000
54000280493149872D1  003717540360 002251           000000010000000000050000000000003000000000000000000000000000000000000000000
54000999999999992D1  003718510200 001749           000000040000000000012000000000000000000000012000000000000000000000000001800
54000999999999992D1  003718510200 0021085          000000040000000000028000000000000000000000028000000000000000000000000001800
54000999999999992D1  003719510220 0012397          000000010000000000002500000000000000000000002500000000000000000000000000560
54000999999999992D1  003719540360 0021059          000000010000000000004000000000000000000000000000000000000000000000000000000
54000999999999992D1  003719510200 0031060          000000010000000000002500000000000000000000002500000000000000000000000001800
54000999999999992D1  003719540360 004587           000000010000000000004500000000000000000000000000000000000000000000000000000
54000999999999992D1  003719510220 0054615          000000010000000000016500000000001500000000016500000000000000000000000000560
54000025420755302D1  003720540360 0012645          000000010000000000009000000000000000000000000000000000000000000000000000000
54000025420755302D1  003720540360 0022643          000000010000000000008000000000000000000000000000000000000000000000000000000
54000025420755302D1  003720540360 0035636          000000010000000000001000000000000000000000000000000000000000000000000000000
54000025420755302D1  003720540360 0045635          000000050000000000020000000000000000000000000000000000000000000000000000000
54000025420755302D1  003720540360 0055130          000000010000000000003000000000000000000000000000000000000000000000000000000
54000025420755302D1  003720540360 0064279          000000010000000000036000000000000000000000000000000000000000000000000000000
54000025420755302D1  003720510200 0073680          000000010000000000006000000000000000000000006000000000000000000000000001800
54000025420755302D1  003720540360 0083516          000000010000000000108000000000000000000000000000000000000000000000000000000
54000025420755302D1  003720540360 0095867          000000040000000000012000000000000000000000000000000000000000000000000000000
54000025420755302D1  003720540360 0105705          000000010000000000074000000000000000000000000000000000000000000000000000000
54000025420755302D1  003720540360 0115683          000000020000000000100000000000000000000000000000000000000000000000000000000
54000025420755302D1  003720540360 0125639          000000050000000000005000000000000000000000000000000000000000000000000000000
54000025420755302D1  003720540360 0135638          000000010000000000008000000000000000000000000000000000000000000000000000000
54000025420755302D1  003720540360 0145637          000000020000000000340000000000000000000000000000000000000000000000000000000
54000025420755302D1  003721540360 0014504          000000080000000000080000000000000000000000000000000000000000000000000000000
54000025420755302D1  003721540360 0021809          000000120000000000024000000000000000000000000000000000000000000000000000000
54000025420755302D1  003721540360 0031020          000000180000000000009000000000000000000000000000000000000000000000000000000
54000025420755302D1  003721510200 004831           000000020000000000012000000000000000000000012000000000000000000000000001800
54000025420755302D1  003721510200 005771           000000040000000000008000000000000000000000008000000000000000000000000001800
54000999999999992D1  003722540360 0011252          000000200000000000020000000000000000000000000000000000000000000000000000000
54000999999999992D1  003723540360 001527           000000010000000000025000000000004000000000000000000000000000000000000000000
54000999999999992D1  003723540360 0022720          000000010000000000025000000000004000000000000000000000000000000000000000000
54000999999999992D1  003724510200 0011170          000000020000000000050000000000004000000000050000000000000000000000000001800
54000999999999992D1  003725540360 0011174          000000010000000000012000000000002000000000000000000000000000000000000000000
54000999999999992D1  003726540360 00161            000000010000000000035000000000001000000000000000000000000000000000000000000
54000999999999992D1  003726540360 00265            000000010000000000014000000000000000000000000000000000000000000000000000000
54000999999999992D1  003726540360 003473           000000010000000000016000000000000000000000000000000000000000000000000000000
54000999999999992D1  003727540360 0012792          000000010000000000330000000000034000000000000000000000000000000000000000000
54000999999999992D1  003728540360 0011059          000000030000000000010020000000001980000000000000000000000000000000000000000
54000999999999992D1  003729540360 0015726          000000010000000000045000000000000000000000000000000000000000000000000000000
54000999999999992D1  003730540360 001215           000000010000000000020000000000000000000000000000000000000000000000000000000
54000999999999992D1  003731540360 001408           000000010000000000007000000000000000000000000000000000000000000000000000000
54000999999999992D1  003731540360 002496           000000010000000000052000000000007000000000000000000000000000000000000000000
54000999999999992D1  003731540360 003645           000000010000000000039000000000000000000000000000000000000000000000000000000
54000999999999992D1  003731510200 004771           000000010000000000002000000000000000000000002000000000000000000000000001800
54000999999999992D1  003731540360 0051553          000000030000000000018000000000000000000000000000000000000000000000000000000
54000999999999992D1  003731540360 0061766          000000010000000000045000000000000000000000000000000000000000000000000000000
54000999999999992D1  003731540360 0072950          000000030000000000009000000000000000000000000000000000000000000000000000000
54000999999999992D1  003731540360 0083366          000000020000000000038000000000000000000000000000000000000000000000000000000
54000999999999992D1  003732540360 0011985          000000010000000000002000000000000000000000000000000000000000000000000000000
54000999999999992D1  003732540360 0025197          000000010000000000023000000000004000000000000000000000000000000000000000000
54000999999999992D1  003733540360 001739           000000010000000000095000000000007000000000000000000000000000000000000000000
54000999999999992D1  003733510220 0021094          000000020000000000060000000000006000000000060000000000000000000000000000560
54000999999999992D1  003734510200 001747           000000020000000000006000000000000000000000006000000000000000000000000001800
54000999999999992D1  003734540360 0021059          000000040000000000016000000000000000000000000000000000000000000000000000000
54000999999999992D1  003734540360 0031910          000000010000000000008000000000000000000000000000000000000000000000000000000
54000999999999992D1  003734540360 004619           000000020000000000040000000000004000000000000000000000000000000000000000000
54000999999999992D1  003735540360 001237           000000010000000000007000000000001000000000000000000000000000000000000000000
54000999999999992D1  003736510200 001799           000000040000000000014000000000002000000000014000000000000000000000000001800
54000999999999992D1  003736510200 002713           000000040000000000002000000000000000000000002000000000000000000000000001800
54000999999999992D1  003736510200 003760           000000040000000000004000000000000000000000004000000000000000000000000001800
54000999999999992D1  003737540360 001462           000000020000000000120000000000010000000000000000000000000000000000000000000
54000999999999992D1  003737540360 0021561          000000010000000000057000000000006000000000000000000000000000000000000000000
54000001314975022D1  003738540360 001966           000000010000000000080000000000001000000000000000000000000000000000000000000
54000001314975022D1  003738540360 0021033          000000010000000000008000000000000000000000000000000000000000000000000000000
54000052111914632D1  003739640360 001516           000000080000000000032000000000008000000000000000000000000000000000000000000
54000052111914632D1  003739640360 002848           000000020000000000032000000000006000000000000000000000000000000000000000000
54000052111914632D1  003739640360 003161           000000040000000000352000000000084000000000000000000000000000000000000000000
54000999999999992D1  003740540360 0013147          000000020000000000070000000000014000000000000000000000000000000000000000000
54000999999999992D1  003741510200 001478           000000030000000000004500000000000000000000004500000000000000000000000001800
54000999999999992D1  003741540360 002836           000000050000000000053750000000006250000000000000000000000000000000000000000
54000999999999992D1  003741510200 0031060          000000050000000000011750000000000750000000011750000000000000000000000001800
54000999999999992D1  003742510200 0011271          000000050000000000007000000000000500000000007000000000000000000000000001800
54000999999999992D1  003743540360 0013147          000000010000000000040000000000002000000000000000000000000000000000000000000
54000550005505442D1  003744510220 0013578          000000010000000005800000000000334000000005800000000000000000000000000000560
54000999999999992D1  003745540360 0014122          000000010000000000010000000000000000000000000000000000000000000000000000000
54000999999999992D1  003745540360 002496           000000010000000000055000000000004000000000000000000000000000000000000000000
54000999999999992D1  003746510200 0011143          000000050000000000010000000000000000000000010000000000000000000000000001800
54000999999999992D1  003746540360 002966           000000020000000000155000000000007000000000000000000000000000000000000000000
54000483466407492D1  003747610200 001380           000000010000000000013000000000002000000000013000000000000000000000000001200
54000483466407492D1  003747640360 002519           000000010000000000032000000000004000000000000000000000000000000000000000000
54000999999999992D1  003748510220 0011090          000000010000000000190000000000021000000000190000000000000000000000000000560
5413642699000135551  005006510200 001280           000000020000000000210000000000068000000000210000000000000000000000000001800
5412786836000576551  005007540360 001963           000000200000000000155000000000025000000000000000000000000000000000000000000
5400001667297520551  005008540360 001190           000000010000000000250000000000015000000000000000000000000000000000000000000
5400035607947491551  005010640360 0012132          000000010000000000013000000000002000000000000000000000000000000000000000000
5400035607947491551  005010640360 0022133          000000020000000000037000000000005000000000000000000000000000000000000000000
5400001412416590551  005011540360 0011875          000000010000000000013000000000000000000000000000000000000000000000000000000
5400001412416590551  005011510200 0021143          000000010000000000002000000000000000000000002000000000000000000000000001800
5400001412416590551  005011540360 0034493          000000010000000000020000000000000000000000000000000000000000000000000000000
5400001412416590551  005011540360 0044751          000000010000000000165000000000000000000000000000000000000000000000000000000
5400065248040400551  005012540360 0011656          000000020000000000110000000000012000000000000000000000000000000000000000000
